:100000000C9458000C9480000C9480000C94800098
:100010000C9480000C9480000C9480000C94800060
:100020000C9480000C9480000C9480000C94800050
:100030000C9480000C9480000C9480000C94800040
:100040000C9409070C9480000C9480000C948000A0
:100050000C9480000C9480000C9480000C94800020
:100060000C9480000C948000000000002300260007
:10007000290000000000250028002B0000000000DF
:10008000240027002A0004040404040404040202D7
:100090000202020203030303030301020408102007
:1000A0004080010204081020010204081020C50845
:1000B00011241FBECFEFD8E0DEBFCDBF11E0A0E01E
:1000C000B1E0E2EBFAE102C005900D92AC36B10767
:1000D000D9F728E0ACE6B1E001C01D92AA38B2071A
:1000E000E1F710E0C8E5D0E004C02197FE010E94CE
:1000F0004C0DC735D107C9F70E9466070C94570D00
:100100000C940000EF920F931F93F901DA013C91D8
:100110002E2D209532233C9330813E293083FC01E3
:10012000D80198E080E030E020E04C914E2189F049
:100130002A95D9F720E04C914E2159F02A95D9F70C
:1001400020E84C914E2129F02A95D9F73A9561F78C
:1001500017C047E04A95F1F7000031E0550F4C9188
:100160004E2109F051609A9529F45193839598E0B6
:10017000681731F020E84C914E2111F72A95D9F7F4
:100180001F910F91EF9008950F931F93F901208114
:10019000202B2083DA012C91202B2C93208140816D
:1001A000202B30E010E00095109550E0042315233B
:1001B000DC015D9148E00083550F40F474E07A95CE
:1001C000F1F720837AE07A95F1F705C07EE07A9521
:1001D000F1F7000020834A9529F073E07A95F1F752
:1001E0000000E9CF6A9529F071E07A95F1F70000F7
:1001F000E0CF72E07A95F1F700000000008374E030
:100200007A95F1F70000000020831F910F91089567
:100210007F928F929F92AF92BF92CF92DF92EF9296
:10022000FF920F931F93CF93DF93DB01642F59014C
:10023000F02E282F30E0F901E656FF4FE490F90147
:10024000EA57FF4F249130E0220F331FF901E458A1
:10025000FF4FC591D491F901EE58FF4FC590D4904E
:10026000F901E859FF4F859094907FB6F8940E2DD0
:100270009601AE01CD010E94C40084019601AE0139
:100280006F2DC5010E9482007FBEDF91CF911F912B
:100290000F91FF90EF90DF90CF90BF90AF909F9025
:1002A0008F907F9008953F924F925F926F927F92CE
:1002B0008F929F92AF92BF92CF92DF92EF92FF9276
:1002C0000F931F93CF93DF9300D01F92CDB7DEB76C
:1002D0003B014A01290190E0FC01E656FF4FF490F2
:1002E000FC01EA57FF4F849190E0880F991FFC01B1
:1002F000E458FF4FC590D490FC01EE58FF4FA590F5
:10030000B490FC01E859FF4F059114913FB6F89461
:1003100019821A821B82EF2C9501A60163E0CE019F
:1003200001960E9482008130B9F48981811109C04F
:100330000F2D9501A60163E0C3010E94C40081E076
:100340002BC0813411F50F2D9501A6016AE0C4017F
:100350000E94C40082E020C08330B9F489818034D7
:10036000A1F48A81833089F40F2D9501A60168E0FC
:10037000C2010E94C4008B818370813041F08230C1
:1003800041F0833041F486E007C080E005C084E09E
:1003900003C085E001C083E03FBE0F900F900F9037
:1003A000DF91CF911F910F91FF90EF90DF90CF9051
:1003B000BF90AF909F908F907F906F905F904F9085
:1003C0003F900895FC01108E089508950895FC0152
:1003D00092819F3020F49F5F928381E00895128282
:1003E00080E00895CF93DF93EC01FB018B8188239C
:1003F00019F0813061F014C085858B7F8587CE012F
:100400000E94E70181110CC081E08B8309C08585C2
:1004100084608587CE010E94E701811101C01B82A3
:10042000DF91CF910895CF93DF93EC01FB018B8196
:10043000882319F0813071F018C086858F7B8687FC
:1004400080E2838BCE010E94E70181110EC081E022
:100450008B830BC08685806486878AEE838BCE0172
:100460000E94E701811101C01B82DF91CF910895A5
:10047000FC0113820895CF93DF93EC01FB018B8184
:10048000813049F0823089F081111AC087858C83D0
:1004900080898D8313C08FE78787808BCE010E9470
:1004A000E70181110DC082E00AC08C8187878D81B0
:1004B000808BCE010E94E701811102C081E08B8315
:1004C000DF91CF910895FC01DB018381882319F02E
:1004D000813059F008951F968C911F978483509610
:1004E0008C91858381E08383089584811F968C930A
:1004F0001F97858150968C930895CF93DF93EC01DD
:10050000FB018C819D818130910599F082309105AC
:1005100021F0892B11F580E201C08AEE8787CE0198
:100520000E94E701811119C081E090E09D838C83D6
:1005300014C08FE78787CE010E94E70181110DC0AB
:100540009B81992329F022E030E03D832C8302C077
:100550001D821C8281E089278B83DF91CF910895D2
:10056000CF93DF93EC018B819C81009769F0019719
:10057000B9F48AEEFB018787CE010E94E701811161
:100580000FC01C821B820CC080E2FB018787CE015A
:100590000E94E701811104C081E090E09C838B837D
:1005A000DF91CF9108950E94520DCF93DF93EC011C
:1005B0001E8E0E94FD06EF8DF8A1E659F94F2A8D97
:1005C0003B8D621B730B71836083DF91CF91089524
:1005D000AF92BF92CF92DF92EF92FF920F931F9351
:1005E000CF93DF93CDB7DEB760970FB6F894DEBF39
:1005F0000FBECDBF8C017B01DC015E968C915E97B6
:10060000811129C05F96ED91FC919097E759F94FC0
:1006100010825F960D90BC91A02D85E1FB010190A9
:100620000D928A95E1F785E1FB01D80113960190BF
:100630000D928A95E1F7F801118E108E0E94FD0649
:10064000D8015A966D937D938D939C935D9781E02D
:100650005E968C931DC188E0F8017096DE011996B4
:1006600001900D928A95E1F7F801C2883389948947
:10067000D588B688778988E0F7013D96DE01119626
:1006800001900D928A95E1F72985898182278F70E3
:1006900009F05BC0D7011F966C911F9750964C9143
:1006A000509751962C91519752968C915297539600
:1006B000AC91F701A488FA855A815F27F52FF07570
:1006C00009F043C0B0E0AB19B109B7FF03C0B19561
:1006D000A195B1091A97CCF555FD37C0EA2DF0E088
:1006E000E71BF109F7FF03C0F195E195F1093A978E
:1006F00064F570E06C19710977FF03C0719561951D
:1007000071096A3071050CF550E0431B510957FF20
:1007100003C05195419551094A305105B4F430E078
:10072000291B310937FF03C03195219531092A3042
:1007300031055CF490E08D19910997FF03C0919504
:10074000819591090A970CF4A3C00E94FD06D80177
:100750005A962D913C915B97621B730B59967C9333
:100760006E9358975F96ED91FC919097AF01475922
:10077000594FDA019C91943B08F08AC0B9E09B9FE5
:10078000E00DF11D1124768B658BD80150962C91CC
:10079000D7011D968C912827878920FB80F9878BAC
:1007A000D80150963C91D7011D962C912327269570
:1007B000217020FB81F9878BD80150963C91D7019D
:1007C0001D962C91232722FB222720F920FB82F95A
:1007D000878BD80150963C91D7011D962C912327E9
:1007E00023FB222720F920FB83F9878BD801519620
:1007F0003C91D7011E962C9123272295217020FB36
:1008000086F9878BD80151963C91D7011E962C9181
:10081000232726FB222720F920FB84F9878BD80188
:1008200051963C91D7011E962C911E97232725FBAC
:10083000222720F920FB85F9878B53968C915397BB
:10084000808F54968C915497818F1F968C911F970F
:10085000828F50968C915097838F51968C9151979F
:10086000848F52968C91858F9F5FFA01908385E1EA
:10087000F701D801139601900D928A95E1F70E9435
:10088000FD06D8015A966D937D938D939C935D9749
:1008900060960FB6F894DEBF0FBECDBFDF91CF914B
:1008A0001F910F91FF90EF90DF90CF90BF90AF908E
:1008B0000895EF92FF920F931F93CF93DF93CDB7DD
:1008C000DEB765970FB6F894DEBF0FBECDBF8C01C3
:1008D0007B010E94FD06D8015B962D913C915C97AF
:1008E000621B730B5A967C936E93599758968C9112
:1008F00058979096ED91FC919197811123C085E1D5
:10090000DE01119601900D928A95E1F785E1FE01D5
:100910003196D801139601900D928A95E1F7F8016E
:10092000128E118E0E94FD06D8015B966D937D9309
:100930008D939C935E975F961C925F9781E058968B
:100940008C9329C1D8015F964C91DF01A759B94F0B
:100950008C91481708F0F5C0242F30E0DF0189E0C2
:10096000489FA00DB11D1124CD01459655960D90BF
:10097000BC91A02DA617B70708F0EAC0DC011296BB
:100980008C91D80150969C9180FF03C090959170F6
:1009900001C09170D80150968C91509790FB80F9CE
:1009A00050968C9399E0929FD001939FB00D1124A3
:1009B000AE0FBF1F57969C9191FF05C08695817021
:1009C00091E0982703C081FB992790F9D8015096B0
:1009D0008C91509790FB81F950968C9399E0929F5F
:1009E000D001939FB00D1124AE0FBF1F57969C915D
:1009F00092FF06C082FB882780F991E0982703C008
:100A000082FB992790F9D80150968C91509790FBD2
:100A100082F950968C9399E0929FD001939FB00DEC
:100A20001124AE0FBF1F57969C9183FB882780F936
:100A300093FF02C091E08927D80150969C9150976E
:100A400080FB93F950969C9389E0829FD001839F0D
:100A5000B00D1124AE0FBF1F57968C91D80151963F
:100A60009C919295917086FF02C081E09827D801F1
:100A700051968C91519790FB84F951968C9399E003
:100A8000929FD001939FB00D1124AE0FBF1F5796B8
:100A90009C9194FF06C086FB882780F991E09827F7
:100AA00003C086FB992790F9D80151968C915197F4
:100AB00090FB86F951968C9399E0929FD001939F79
:100AC000B00D1124AE0FBF1F57969C9185FB882750
:100AD00080F995FF02C091E08927D80151969C9139
:100AE000519780FB95F951969C93519759E0529FED
:100AF000C001539F900D1124E80FF91F808D569669
:100B00008C935697818D57968C935797828D5296DA
:100B10008C935297838D53968C935397848D5496D0
:100B20008C935497858D55968C9355974F5F5F9610
:100B30004C930E94FD06F801638F748F858F968F0A
:100B400007C0E659F94F808191816817790700F550
:100B5000D7011E969C911E9793FB442740F991FB69
:100B6000332730F992FB222720F985E1F8013396EB
:100B700001900D928A95E1F7F701868590FB80F947
:100B800040FB83F930FB81F920FB82F9868703C0A3
:100B9000D80158961C9265960FB6F894DEBF0FBE2A
:100BA000CDBFDF91CF911F910F91FF90EF900895EE
:100BB000DF92EF92FF920F931F93CF93DF937C010D
:100BC000EB010E94B10CD82E0E94B10C8C01017077
:100BD0001127D0FC0FC0012B11F080E201C08AEE7A
:100BE000F70180830E94B10C6AEC70E00E94240D32
:100BF0008F5D0EC00E94B10C6AEC70E00E94240D63
:100C00008F5DF7018083012B11F080E201C08AEE35
:100C10008883DF91CF911F910F91FF90EF90DF902C
:100C20000895CF93DF93EC01FB018B81882319F0AA
:100C3000813061F01CC08FE78787808BCE010E94D6
:100C4000E701811114C081E08B8311C08C818787FB
:100C50008D81808BCE010E94E701811108C0BE0109
:100C60006B5F7F4FCE0104960E94D8051B82DF91F7
:100C7000CF910895CF93DF93EC018B81FB018787A0
:100C80008C81808BCE010E94E701811109C0BE01D9
:100C90006C5F7F4FCE010396DF91CF910C94D80506
:100CA000DF91CF910895FC011192119287E0DF014D
:100CB0001D928A95E9F708953FB7F8948091A401B1
:100CC0009091A501A091A601B091A70126B5A89B7E
:100CD00005C02F3F19F00196A11DB11D3FBFBA2FCE
:100CE000A92F982F8827820F911DA11DB11DBC012E
:100CF000CD0142E0660F771F881F991F4A95D1F7F3
:100D000008950F931F93CF93DF93082FEB01142FB8
:100D10008091860190918701DC01ED91FC91028028
:100D2000F381E02D099590917101091316C080910E
:100D30007001282F30E02F5F3F4F412F50E02417E4
:100D400035075CF48F5F80937001FE01E80FF11DA1
:100D5000E80FF11D8081918110C0943039F4009327
:100D60007101109270018881998107C084E080939D
:100D700071011092700183E898E09093870180934D
:100D80008601DF91CF911F910F9108958F929F92CD
:100D9000AF92BF92CF92DF92EF92FF920E945C06D9
:100DA0004B015C0184E6C82ED12CE12CF12C0E9471
:100DB0005C06DC01CB0188199909AA09BB09883EA8
:100DC0009340A105B10598F321E0C21AD108E108CA
:100DD000F10888EE880E83E0981EA11CB11CC11496
:100DE000D104E104F10419F7FF90EF90DF90CF9068
:100DF000BF90AF909F908F9008952FB7F894609117
:100E0000A0017091A1018091A2019091A3012FBF37
:100E100008951F920F920FB60F9211242F933F93B4
:100E20008F939F93AF93BF938091A0019091A10165
:100E3000A091A201B091A30130919F0123E0230F63
:100E40002D3720F40196A11DB11D05C026E8230F02
:100E50000296A11DB11D20939F018093A001909344
:100E6000A101A093A201B093A3018091A40190914C
:100E7000A501A091A601B091A7010196A11DB11DE8
:100E80008093A4019093A501A093A601B093A7011C
:100E9000BF91AF919F918F913F912F910F900FBE76
:100EA0000F901F901895FC010FB6F894609186087A
:100EB0007091870880918808909189080FBE3097BB
:100EC00021F060837183828393830895CF93DF93AE
:100ED000CDB7DEB765970FB6F894DEBF0FBECDBFB6
:100EE000789484B5826084BD84B5816084BD85B505
:100EF000826085BD85B5816085BD80916E00816011
:100F000080936E00109281008091810082608093B6
:100F100081008091810081608093810080918000B8
:100F20008160809380008091B10084608093B100E3
:100F30008091B00081608093B00080917A008460DD
:100F400080937A0080917A00826080937A00809109
:100F50007A00816080937A0080917A008068809323
:100F60007A001092C10080E090E00E945307CB010C
:100F70000E94B60CE7EAF0E02491E3E9F0E0849106
:100F8000882399F090E0880F991FFC01E458FF4FE7
:100F9000A591B491FC01EE58FF4F859194918FB7C4
:100FA000F894EC91E22BEC938FBF80E0E82E80E088
:100FB000F82E11E490E4D92E8091890190918A0154
:100FC000892BB9F090918B0193FB992790F980912F
:100FD0009E01D98223E02A839B8308E026E931E041
:100FE00043E0BE016F5F7F4F0E940801883029F106
:100FF0000EC080919E01198203E029E831E041E0B2
:10100000BE016F5F7F4F0E940801833039F010925C
:10101000890110928A0110928B01B4C080919E01C7
:1010200019830AE02CE831E041E0BE016F5F7F4F99
:101030000E9408018A3031F2A5C08091960185FD99
:10104000E6CF85E1E9E8F1E0DE01119601900D922D
:101050008A95E1F78F8580FD04C080916C01811134
:1010600075C08F8583FD04C080916D01811175C0AD
:101070008F8581FD04C080916E01811175C08F85BF
:1010800082FD04C080916F01811175C08F85982FFA
:10109000917090936C0183FB992790F990936D0167
:1010A00082FB992790F990936F01869581708093C8
:1010B0006E018091860190918701DC01ED91FC9198
:1010C0000190F081E02DBE016F5F7F4F09958F8504
:1010D000847F8B7F8F878E8585FD54C00FB7F894F2
:1010E0009E01225F3F4FAE014C5F5F4FBE016F5FBD
:1010F0007F4F809188010E945301813069F49E01E5
:10110000225F3F4FAE014C5F5F4FBE016F5F7F4F6D
:10111000809188010E945301823069F49E01225F10
:101120003F4FAE014C5F5F4FBE016F5F7F4F8091BD
:1011300088010E9453010FBF8350833018F5E114DA
:10114000F10409F439CF0E94000036CF46E062E78F
:1011500071E080E00E94810684CF41E06EE771E09B
:1011600081E00E94810684CF42E060E871E082E085
:101170000E94810684CF41E064E871E083E00E9430
:10118000810684CF0E94C606DACFEF92FF920F93BA
:101190001F93CF93DF9383E080939E0184E080933D
:1011A0008801CCE6D1E0188219821A821B821C8247
:1011B0008D838CE0E4E0F1E0A2E7B1E001900D92D4
:1011C0008A95E1F708EA11E01B8B0A8B80911001E8
:1011D00090911101A0911201B09113018C8B9D8B04
:1011E000AE8BBF8B8AECE82E81E0F82EF98EE88E6C
:1011F000E3E8F8E0FB8FEA8F128288E691E09183C2
:101200008083EEE7F8E0128280E691E091838083AC
:1012100081E090E094838383E9E7F8E0128288E537
:1012200091E0918380838FE783838483E3E7F8E011
:10123000128220E531E03183208313828483858309
:10124000EDE6F8E0128228E431E03183208391E07A
:10125000938322E030E035832483E7E6F8E01282CE
:1012600020E431E031832083138284838583E1E6A7
:10127000F8E0128228E331E03183208313828483F3
:101280008583EDE5F8E0128280E391E0918380832D
:101290001382E7E5F8E0128288E291E0918380838F
:1012A00013828AEE8483858380E092E00E94530655
:1012B00089E092E00E94530682E192E00E94530688
:1012C0008BE192E00E94530684E292E00E94530672
:1012D0008DE292E00E94530686E392E00E9453065C
:1012E0008FE392E00E94530688E492E00E94530646
:1012F00081E592E00E9453068AE592E00E9453063F
:1013000083E692E00E9453068CE692E00E94530628
:1013100085E792E00E9453068EE792E00E94530612
:1013200087E892E00E94530680E992E00E9453060B
:1013300089E992E00E94530682EA92E00E945306F5
:101340008BEA92E00E94530684EB92E00E945306DF
:101350008DEB92E00E94530686EC92E00E945306C9
:101360008FEC92E00E94530688ED92E00E945306B3
:1013700081EE92E00E9453068AEE92E00E945306AC
:1013800083EF92E00E9453068CEF92E00E94530696
:1013900085E093E00E9453068EE093E00E9453069E
:1013A00087E193E00E94530680E293E00E94530697
:1013B00089E293E00E94530682E393E00E94530681
:1013C0008BE393E00E94530684E493E00E9453066B
:1013D0008DE493E00E94530686E593E00E94530655
:1013E0008FE593E00E94530688E693E00E9453063F
:1013F00081E793E00E9453068AE793E00E94530638
:1014000083E893E00E9453068CE893E00E94530621
:1014100085E993E00E9453068EE993E00E9453060B
:1014200087EA93E00E94530680EB93E00E94530604
:1014300089EB93E00E94530682EC93E00E945306EE
:101440008BEC93E00E94530684ED93E00E945306D8
:101450008DED93E00E94530686EE93E00E945306C2
:101460008FEE93E00E94530688EF93E00E945306AC
:1014700081E094E00E9453068AE094E00E945306C3
:1014800083E194E00E9453068CE194E00E945306AD
:1014900085E294E00E9453068EE294E00E94530697
:1014A00087E394E00E94530680E494E00E94530690
:1014B00089E494E00E94530682E594E00E9453067A
:1014C0008BE594E00E94530684E694E00E94530664
:1014D0008DE694E00E94530686E794E00E9453064E
:1014E0008FE794E00E94530688E894E00E94530638
:1014F00081E994E00E9453068AE994E00E94530631
:1015000083EA94E00E9453068CEA94E00E9453061A
:1015100085EB94E00E9453068EEB94E00E94530604
:1015200087EC94E00E94530680ED94E00E945306FD
:1015300089ED94E00E94530682EE94E00E945306E7
:101540008BEE94E00E94530684EF94E00E945306D1
:101550008DEF94E00E94530686E095E00E945306CA
:101560008FE095E00E94530688E195E00E945306C3
:1015700081E295E00E9453068AE295E00E945306BC
:1015800083E395E00E9453068CE395E00E945306A6
:1015900085E495E00E9453068EE495E00E94530690
:1015A00087E595E00E94530680E695E00E94530689
:1015B00089E695E00E94530682E795E00E94530673
:1015C0008BE795E00E94530684E895E00E9453065D
:1015D0008DE895E00E94530686E995E00E94530647
:1015E0008FE995E00E94530688EA95E00E94530631
:1015F00081EB95E00E9453068AEB95E00E9453062A
:1016000083EC95E00E9453068CEC95E00E94530613
:1016100085ED95E00E9453068EED95E00E945306FD
:1016200087EE95E00E94530680EF95E00E945306F6
:1016300089EF95E00E94530682E096E00E945306EF
:101640008BE096E00E94530684E196E00E945306E8
:101650008DE196E00E94530686E296E00E945306D2
:101660008FE296E00E94530688E396E00E945306BC
:1016700081E496E00E9453068AE496E00E945306B5
:1016800083E596E00E9453068CE596E00E9453069F
:1016900085E696E00E9453068EE696E00E94530689
:1016A00087E796E00E94530680E896E00E94530682
:1016B00089E896E00E94530682E996E00E9453066C
:1016C0008BE996E00E94530684EA96E00E94530656
:1016D0008DEA96E00E94530686EB96E00E94530640
:1016E0008FEB96E00E94530688EC96E00E9453062A
:1016F00081ED96E00E9453068AED96E00E94530623
:1017000083EE96E00E9453068CEE96E00E9453060C
:1017100085EF96E00E9453068EEF96E00E945306F6
:1017200087E097E00E94530680E197E00E9453060D
:1017300089E197E00E94530682E297E00E945306F7
:101740008BE297E00E94530684E397E00E945306E1
:101750008DE397E00E94530686E497E00E945306CB
:101760008FE497E00E94530688E597E00E945306B5
:1017700081E697E00E9453068AE697E00E945306AE
:1017800083E797E00E9453068CE797E00E94530698
:1017900085E897E00E9453068EE897E00E94530682
:1017A00087E997E00E94530680EA97E00E9453067B
:1017B00089EA97E00E94530682EB97E00E94530665
:1017C0008BEB97E00E94530684EC97E00E9453064F
:1017D0008DEC97E00E94530686ED97E00E94530639
:1017E0008FED97E00E94530688EE97E00E94530623
:1017F00081EF97E00E9453068AEF97E00E9453061C
:1018000083E098E00E9453068CE098E00E94530623
:1018100085E198E00E9453068EE198E00E9453060D
:1018200087E298E00E94530680E398E00E94530606
:1018300089E398E00E94530682E498E00E945306F0
:101840008BE498E00E9453068BEE91E010925408CE
:10185000D70112961C92129720E231E02D933C930F
:1018600025E1EDECF1E0DF01322F1D923A95E9F729
:10187000D70159961C921E925897F701128E138E1B
:10188000148E158E168E90A3878FD80112961C92F7
:10189000129748E151E04D935C93EBEAF1E0DF01F0
:1018A0001D922A95E9F7F801108E128E118E138E73
:1018B000148E158E168E178E91A380A3DF91CF9173
:1018C0001F910F91FF90EF9008958F929F92AF928A
:1018D000BF92CF92DF92EF92FF92CF93DF93EC0112
:1018E000688179818A819B816115710581059105E6
:1018F00021F464E279ED8BE597E02DE133EF41E0EF
:1019000050E00E94C10C49015A019B01AC01A7EAB9
:10191000B1E40E94E00C6B017C01ACEEB4EFA501D8
:1019200094010E94EE0CDC01CB018C0D9D1DAE1DBF
:10193000BF1DB7FF03C00197A109B04888839983F1
:10194000AA83BB839F77DF91CF91FF90EF90DF90C9
:10195000CF90BF90AF909F908F9008950E94650C9C
:10196000089580E091E00E94650C0895A0E0B0E049
:101970008093000190930101A0930201B0930301B1
:101980000895052E97FB1EF400940E94D80C57FD75
:1019900007D00E94F30C07FC03D04EF40C94D80C33
:1019A00050954095309521953F4F4F4F5F4F08958B
:1019B00090958095709561957F4F8F4F9F4F0895BB
:1019C0000E94150DA59F900DB49F900DA49F800DB2
:1019D000911D11240895B7FF0C94E00C0E94E00CB7
:1019E000821B930B0895A1E21A2EAA1BBB1BFD01BB
:1019F0000DC0AA1FBB1FEE1FFF1FA217B307E407EE
:101A0000F50720F0A21BB30BE40BF50B661F771F45
:101A1000881F991F1A9469F7609570958095909525
:101A20009B01AC01BD01CF010895A29FB001B39FFE
:101A3000C001A39F700D811D1124911DB29F700DD7
:101A4000811D1124911D089597FB072E16F4009413
:101A500007D077FD09D00E94380D07FC05D03EF471
:101A6000909581959F4F0895709561957F4F08954A
:101A7000AA1BBB1B51E107C0AA1FBB1FA617B707B4
:101A800010F0A61BB70B881F991F5A95A9F78095D0
:101A90009095BC01CD010895EE0FFF1F0590F491C4
:101AA000E02D099481E090E0F8940C94570DF8949F
:021AB000FFCF66
:101AB200010000007E08790873086D086708610854
:101AC2005D085708000000005904E2010000000010
:101AD200E802D502000000001302E5010000000048
:101AE200F201E501000000003B02380200000000A4
:101AF2001106E501000000007D02E5010000000082
:101B020063023802000000003A06E501000000000E
:0C1B1200B002E50100000000E601E50162
:00000001FF
