:100000000C9458000C9480000C9480000C94800098
:100010000C9480000C9480000C9480000C94800060
:100020000C9480000C9480000C9480000C94800050
:100030000C9480000C9480000C9480000C94800040
:100040000C94F8060C9480000C9480000C948000B2
:100050000C9480000C9480000C9480000C94800020
:100060000C9480000C948000000000002300260007
:10007000290000000000250028002B0000000000DF
:10008000240027002A0004040404040404040202D7
:100090000202020203030303030301020408102007
:1000A00040800102040810200102040810205E07AD
:1000B00011241FBECFEFD8E0DEBFCDBF11E0A0E01E
:1000C000B1E0EAEAF5E102C005900D92A834B1076B
:1000D000D9F724E0A8E4B1E001C01D92A430B20732
:1000E000E1F710E0C8E5D0E004C02197FE010E94CE
:1000F000C80AC735D107C9F70E9479080C94D30AFA
:100100000C940000EF92FF921F93CF93DF93182F70
:10011000EB017A018091630190916401DC01ED9122
:10012000FC910280F381E02D0995909156011913FD
:1001300017C080915501482F50E04F5F5F4FF70186
:10014000208130E0421753075CF48F5F80935501A4
:10015000FE01E80FF11DE80FF11D8081918110C0B3
:10016000943039F410935601109255018881998189
:1001700007C084E080935601109255018DEF93E003
:100180009093640180936301DF91CF911F91FF9061
:10019000EF9008953FB7F89480914D0190914E01F2
:1001A000A0914F01B091500126B5A89B05C02F3FEB
:1001B00019F00196A11DB11D3FBFBA2FA92F982F8D
:1001C0008827820F911DA11DB11DBC01CD0142E008
:1001D000660F771F881F991F4A95D1F708958F9250
:1001E0009F92AF92BF92CF92DF92EF92FF920E94C6
:1001F000CA004B015C0184E6C82ED12CE12CF12C05
:100200000E94CA00DC01CB0188199909AA09BB091F
:10021000883E9340A105B10598F321E0C21AD108A8
:10022000E108F10888EE880E83E0981EA11CB11C3D
:10023000C114D104E104F10419F7FF90EF90DF90AD
:10024000CF90BF90AF909F908F9008952FB7F89464
:100250006091490170914A0180914B0190914C014C
:100260002FBF0895EF920F931F93F901DA013C918C
:100270002E2D209532233C9330813E293083FC0182
:10028000D80198E080E030E020E04C914E2189F0E8
:100290002A95D9F720E04C914E2159F02A95D9F7AB
:1002A00020E84C914E2129F02A95D9F73A9561F72B
:1002B00017C047E04A95F1F7000031E0550F4C9127
:1002C0004E2109F051609A9529F45193839598E055
:1002D000681731F020E84C914E2111F72A95D9F793
:1002E0001F910F91EF9008950F931F93F9012081B3
:1002F000202B2083DA012C91202B2C93208140810C
:10030000202B30E010E00095109550E004231523D9
:10031000DC015D9148E00083550F40F474E07A956C
:10032000F1F720837AE07A95F1F705C07EE07A95BF
:10033000F1F7000020834A9529F073E07A95F1F7F0
:100340000000E9CF6A9529F071E07A95F1F7000095
:10035000E0CF72E07A95F1F700000000008374E0CE
:100360007A95F1F70000000020831F910F91089506
:100370007F928F929F92AF92BF92CF92DF92EF9235
:10038000FF920F931F93CF93DF93DB01642F5901EB
:10039000F02E282F30E0F901E656FF4FE490F901E6
:1003A000EA57FF4F249130E0220F331FF901E45840
:1003B000FF4FC591D491F901EE58FF4FC590D490ED
:1003C000F901E859FF4F859094907FB6F8940E2D6F
:1003D0009601AE01CD010E94740184019601AE0127
:1003E0006F2DC5010E9432017FBEDF91CF911F9119
:1003F0000F91FF90EF90DF90CF90BF90AF909F90C4
:100400008F907F9008953F924F925F926F927F926C
:100410008F929F92AF92BF92CF92DF92EF92FF9214
:100420000F931F93CF93DF9300D01F92CDB7DEB70A
:100430003B014A01290190E0FC01E656FF4FF49090
:10044000FC01EA57FF4F849190E0880F991FFC014F
:10045000E458FF4FC590D490FC01EE58FF4FA59093
:10046000B490FC01E859FF4F059114913FB6F89400
:1004700019821A821B82EF2C9501A60163E0CE013E
:1004800001960E9432018130B9F48981811109C03D
:100490000F2D9501A60163E0C3010E94740181E064
:1004A0002BC0813411F50F2D9501A6016AE0C4011E
:1004B0000E94740182E020C08330B9F489818034C5
:1004C000A1F48A81833089F40F2D9501A60168E09B
:1004D000C2010E9474018B818370813041F08230AF
:1004E00041F0833041F486E007C080E005C084E03D
:1004F00003C085E001C083E03FBE0F900F900F90D6
:10050000DF91CF911F910F91FF90EF90DF90CF90EF
:10051000BF90AF909F908F907F906F905F904F9023
:100520003F900895CF93DF93EC011E8E0E94260129
:10053000FE01EC5FFE4F2A8D3B8D621B730B7183B6
:100540006083DF91CF910895AF92BF92CF92DF92F7
:10055000EF92FF920F931F93CF93DF93CDB7DEB748
:1005600060970FB6F894DEBF0FBECDBF7C018B0144
:10057000DC015E968C915E97811123C0F701ED5FDF
:10058000FE4F108285E1FB015F9601900D928A95E6
:10059000E1F785E1FB01D701139601900D928A9551
:1005A000E1F7F701118E108E0E942601D7015A96AD
:1005B0006D937D938D939C935D9781E05E968C9374
:1005C0000DC188E0F7017096DE01199601900D9239
:1005D0008A95E1F7F701C28833899489D588B6886E
:1005E000778988E0F8013D96DE01119601900D9221
:1005F0008A95E1F72985898182278F7009F05BC090
:10060000D8011F966C911F9750964C915097519618
:100610002C91519752968C9152975396AC91F80128
:10062000A488FA855A815F27F52FF07509F043C039
:10063000B0E0AB19B109B7FF03C0B195A195B109FD
:100640001A97CCF555FD37C0EA2DF0E0E71BF1090C
:10065000F7FF03C0F195E195F1093A9764F570E071
:100660006C19710977FF03C07195619571096A3042
:1006700071050CF550E0431B510957FF03C051951C
:10068000419551094A305105B4F430E0291B310934
:1006900037FF03C03195219531092A3031055CF4CB
:1006A00090E08D19910997FF03C09195819591096B
:1006B0000A970CF493C00E942601D7015A962D91F7
:1006C0003C915B97621B730B59967C936E93589782
:1006D0006701BDEFCB1ABEEFDB0AF60190819731BF
:1006E00008F07CC0F70189E0989FE00DF11D11240E
:1006F00075AB64ABD70150964C91D8011D962C91E7
:100700001D97242786A920FB80F986AB1D963C9176
:100710001D9734273695317030FB81F986AB1D96D5
:100720003C911D97342732FB332730F930FB82F997
:1007300086AB1D962C91242723FB222720F920FB32
:1007400083F986ABD70151964C91D8011E963C9106
:100750001E9734273295317030FB86F986AB1E9692
:100760003C911E97342736FB332730F930FB84F950
:1007700086AB1E962C911E97242725FB222720F955
:1007800020FB85F986AB53968C91539787AB549693
:100790008C91549780AF1F968C911F9781AF509684
:1007A0008C91509782AF51968C91519783AF52960E
:1007B0008C9184AF9F5FF601908385E1F801D701AA
:1007C000139601900D928A95E1F70E942601D701B8
:1007D0005A966D937D938D939C935D9760960FB61B
:1007E000F894DEBF0FBECDBFDF91CF911F910F9167
:1007F000FF90EF90DF90CF90BF90AF900895FC01F5
:10080000108E0895EF92FF920F931F93CF93DF9373
:10081000CDB7DEB765970FB6F894DEBF0FBECDBF7C
:100820008C017B010E942601D8015B962D913C91A1
:100830005C97621B730B5A967C936E9359975896EC
:100840008C9158979096ED91FC919197811123C0CE
:1008500085E1DE01119601900D928A95E1F785E11F
:10086000FE013196D801139601900D928A95E1F719
:10087000F801128E118E0E942601D8015B966D93AD
:100880007D938D939C935E975F961C925F9781E01A
:1008900058968C9329C1D8015F964C91DF01AC51D9
:1008A000BF4F8C91481708F0F5C0242F30E0DF01CE
:1008B00089E0489FA00DB11D1124CD0145965596A4
:1008C0000D90BC91A02DA617B70708F0EAC0DC0177
:1008D00012968C91D80150969C9180FF03C0909500
:1008E000917001C09170D80150968C91509790FBF7
:1008F00080F950968C9399E0929FD001939FB00D10
:100900001124AE0FBF1F57969C9191FF05C086958D
:10091000817091E0982703C081FB992790F9D80155
:1009200050968C91509790FB81F950968C9399E05A
:10093000929FD001939FB00D1124AE0FBF1F579609
:100940009C9192FF06C082FB882780F991E098274E
:1009500003C082FB992790F9D80150968C9150974B
:1009600090FB82F950968C9399E0929FD001939FCF
:10097000B00D1124AE0FBF1F57969C9183FB8827A3
:1009800080F993FF02C091E08927D80150969C918D
:10099000509780FB93F950969C9389E0829FD001F9
:1009A000839FB00D1124AE0FBF1F57968C91D801B5
:1009B00051969C919295917086FF02C081E0982794
:1009C000D80151968C91519790FB84F951968C9354
:1009D00099E0929FD001939FB00D1124AE0FBF1FDD
:1009E00057969C9194FF06C086FB882780F991E07A
:1009F000982703C086FB992790F9D80151968C91CE
:100A0000519790FB86F951968C9399E0929FD00173
:100A1000939FB00D1124AE0FBF1F57969C9185FB7D
:100A2000882780F995FF02C091E08927D801519667
:100A30009C91519780FB95F951969C93519759E061
:100A4000529FC001539F900D1124E80FF91F808D14
:100A500056968C935697818D57968C935797828D87
:100A600052968C935297838D53968C935397848D83
:100A700054968C935497858D55968C9355974F5FCC
:100A80005F964C930E942601F801638F748F858FC7
:100A9000968F07C0EB51FF4F8081918168177907CE
:100AA00000F5D7011E969C911E9793FB442740F9B1
:100AB00091FB332730F992FB222720F985E1F801D9
:100AC000339601900D928A95E1F7F701868590FBA8
:100AD00080F940FB83F930FB81F920FB82F986879E
:100AE00003C0D80158961C9265960FB6F894DEBFE5
:100AF0000FBECDBFDF91CF911F910F91FF90EF906F
:100B00000895CF93DF93EC0145960E945507CE01DF
:100B10004E960E945507CE0187960E945507CE013A
:100B2000C0960E945507CE01C9960E945507CE0176
:100B30008E5B9F4F0E945507CE01855B9F4F0E94A1
:100B40005507CE018C5A9F4F0E945507CE01835AFC
:100B50009F4F0E945507CE018A599F4F0E9455070B
:100B6000CE0181599F4F0E945507CE0188589F4F53
:100B70000E945507CE018F579F4F0E945507CE0107
:100B800086579F4F0E945507CE018D569F4F0E945A
:100B90005507CE0184569F4F0E945507CE018B55B5
:100BA0009F4F0E945507CE0182559F4F0E945507C7
:100BB000CE0189549F4F0E945507CE0180549F4F0C
:100BC0000E945507CE0187539F4F0E945507CE01C3
:100BD0008E529F4F0E945507CE0185529F4F0E9413
:100BE0005507CC51DF4F1882DF91CF9108950895BA
:100BF0000895FC0192819D3220F49F5F928381E0F1
:100C00000895128280E00895CF93DF93EC01FB01F9
:100C10008B81882319F0813061F014C085858B7F2A
:100C20008587CE010E94F90581110CC081E08B837C
:100C300009C0858584608587CE010E94F9058111F0
:100C400001C01B82DF91CF910895CF93DF93EC0118
:100C5000FB018C818230C1F0843021F081111DC0F4
:100C600080E213C08FE78787CE010E94F9058111CA
:100C700014C09B81992319F082E08C8301C01C82EF
:100C800081E089278B8309C08AEE8787CE010E9485
:100C9000F905811102C084E08C83DF91CF91089522
:100CA0000E94CE0AFF920F931F93CF93DF93EC0124
:100CB000FB018B81882319F0813089F045C086853E
:100CC0008F7B868780E2838B8FE78787808BCE013F
:100CD0000E94F905811138C081E08B8335C086857B
:100CE000806486878AEE838B8C8187878D81808B59
:100CF000CE010E94F905811127C00E942D0AF82E0D
:100D00000E942D0A8C0101701127F0FC0EC0012BEE
:100D100011F080E201C08AEE8C830E942D0A6AECF9
:100D200070E00E94A00A8F5D0DC00E942D0A6AEC3F
:100D300070E00E94A00A8F5D8C83012B11F080E28D
:100D400001C08AEE8D831B82DF91CF911F910F919D
:100D5000FF900895FF920F931F93CF93DF93EC01C1
:100D6000FB018B81882319F0813061F03BC08FE754
:100D70008787808BCE010E94F905811133C081E005
:100D80008B8330C08D8187878E81808BCE010E94BE
:100D9000F905811127C00E942D0AF82E0E942D0A04
:100DA0008C0101701127F0FC0EC0012B11F080E2C4
:100DB00001C08AEE8D830E942D0A6AEC70E00E94C9
:100DC000A00A8F5D0DC00E942D0A6AEC70E00E949F
:100DD000A00A8F5D8D83012B11F080E201C08AEEA5
:100DE0008E831B82DF91CF911F910F91FF90089509
:100DF0001F920F920FB60F9211242F933F938F9350
:100E00009F93AF93BF938091490190914A01A09124
:100E10004B01B0914C013091480123E0230F2D3755
:100E200020F40196A11DB11D05C026E8230F0296EE
:100E3000A11DB11D209348018093490190934A015F
:100E4000A0934B01B0934C0180914D0190914E01C4
:100E5000A0914F01B09150010196A11DB11D809349
:100E60004D0190934E01A0934F01B0935001BF915B
:100E7000AF919F918F913F912F910F900FBE0F9047
:100E80001F901895FC010FB6F894609100047091C2
:100E9000010480910204909103040FBE309721F069
:100EA00060837183828393830895FC011192119270
:100EB00087E0DF011D928A95E9F708952F923F920E
:100EC0004F925F926F927F928F929F92AF92BF925A
:100ED000CF92DF92EF92FF920F931F93CF93DF9306
:100EE000EBEBF2E0128284E4882E81E0982E91826E
:100EF0008082E5EBF2E012829CE3A92E91E0B92E0C
:100F0000B182A08281E083831482EEEAF2E0128251
:100F100024E3C22E21E0D22ED182C08213823AEE87
:100F2000332E35823682E8EAF2E012824CE2E42E79
:100F300041E0F42EF182E082138234823582E4EAC9
:100F4000F2E0128204E211E0118300831382EEE9E1
:100F5000F1E012825CE1652E51E0752E71826082B3
:100F600065E1262EA1EAB1E0ED01822D19928A9564
:100F7000E9F7118E108E128E138E148E158E168E2A
:100F80008DEB91E00E948105ECE7F1E0128274E1C3
:100F9000472E71E0572E51824082AFE7B1E0ED015C
:100FA000822D19928A95E9F7108E128E118E138E6A
:100FB000148E158E168E178E8DEB91E091A380A363
:100FC00083E080937B0184E080936501E1E5F1E0BB
:100FD000108211821282138214828583809104010F
:100FE00090910501A0910601B09107018683978336
:100FF000A087B187CEEBD2E0D387C287809108016A
:1010000090910901A0910A01B0910B018487958705
:10101000A687B787A0EEB2E0B18BA08B8DEF93E0EF
:10102000938B828BFC01128291828082E7EFF3E046
:101030001282B182A08281E083831482E0EFF3E028
:101040001282D182C082138235823682EAEEF3E0C8
:101050001282F182E082138234823582E6EEF3E07E
:10106000128211830083138212961C92129711969A
:101070007C926E9223EE32E0F901822D11928A95D4
:10108000E9F759961C921E9258975A961D921D92F6
:101090001D921C925D975E961C928FEF92E00E94CB
:1010A00081051A8259824882E1ECF2E0DF011D924B
:1010B0002A94E9F7188E1A8E198E1B8E1C8E1D8E9F
:1010C0001E8E1F8E8FEF92E099A388A3DF91CF91A0
:1010D0001F910F91FF90EF90DF90CF90BF90AF9056
:1010E0009F908F907F906F905F904F903F902F9048
:1010F0000895CF93DF93CDB7DEB765970FB6F89419
:10110000DEBF0FBECDBF789484B5826084BD84B548
:10111000816084BD85B5826085BD85B5816085BDF2
:1011200080916E00816080936E00109281008091AA
:101130008100826080938100809181008160809332
:101140008100809180008160809380008091B10057
:1011500084608093B1008091B00081608093B00082
:1011600080917A00846080937A0080917A00826016
:1011700080937A0080917A00816080937A008091D8
:101180007A00806880937A001092C10080E090E03D
:101190000E944207CB010E94320AE7EAF0E0249164
:1011A000E3E9F0E08491882399F090E0880F991F9B
:1011B000FC01E458FF4FA591B491FC01EE58FF4F9C
:1011C000859194918FB7F894EC91E22BEC938FBFBB
:1011D00080E0E82E80E0F82E11E490E4D92E809192
:1011E000660190916701892BB9F09091680193FB9A
:1011F000992790F980917B01D98223E02A839B83F0
:1012000008E023E731E043E0BE016F5F7F4F0E94BB
:10121000B801883029F10EC080917B01198203E06A
:1012200026E631E041E0BE016F5F7F4F0E94B801CA
:10123000833039F0109266011092670110926801B4
:10124000BDC080917B0119830AE029E631E041E0CD
:10125000BE016F5F7F4F0E94B8018A3031F2AEC08D
:101260008091730185FDE6CF85E1E6E6F1E0DE01E0
:10127000119601900D928A95E1F78F8580FD04C04B
:101280008091510181117AC08F8583FD04C08091C6
:10129000520181117BC08F8581FD04C08091530173
:1012A00081117CC08F8582FD04C080915401811121
:1012B0007DC09F85292F217081E02827209351012F
:1012C00093FB222720F928272093520192FB222703
:1012D00020F92827209354019695917089278093AF
:1012E00053018091630190916401DC01ED91FC91C7
:1012F0000190F081E02DBE016F5F7F4F09958F85D2
:10130000847F8B7F8F878E8585FD58C00FB7F894BB
:101310009E01225F3F4FAE014C5F5F4FBE016F5F8A
:101320007F4F809165010E940302813069F49E0124
:10133000225F3F4FAE014C5F5F4FBE016F5F7F4F3B
:10134000809165010E940302823069F49E01225F50
:101350003F4FAE014C5F5F4FBE016F5F7F4F80918B
:1013600065010E9403020FBF8350833038F5E114FA
:10137000F10409F434CF0E94000031CF4FE051E076
:1013800067E571E080E00E9482007ECF4EE051E090
:101390006BE571E081E00E9482007DCF4DE051E07D
:1013A0006DE571E082E00E9482007CCF4CE051E06C
:1013B00061E671E083E00E9482007BCF0E94EF0033
:1013C000D6CF8F929F92AF92BF92CF92DF92EF9241
:1013D000FF92CF93DF93EC01688179818A819B81B1
:1013E000611571058105910521F464E279ED8BE5C4
:1013F00097E02DE133EF41E050E00E943D0A4901C2
:101400005A019B01AC01A7EAB1E40E945C0A6B019E
:101410007C01ACEEB4EFA50194010E946A0ADC01E4
:10142000CB018C0D9D1DAE1DBF1DB7FF03C00197E5
:10143000A109B04888839983AA83BB839F77DF91F2
:10144000CF91FF90EF90DF90CF90BF90AF909F90A3
:101450008F9008950E94E109089580E091E00E9434
:10146000E1090895A0E0B0E08093000190930101AC
:10147000A0930201B09303010895052E97FB1EF47B
:1014800000940E94540A57FD07D00E946F0A07FC7F
:1014900003D04EF40C94540A509540953095219504
:1014A0003F4F4F4F5F4F0895909580957095619590
:1014B0007F4F8F4F9F4F08950E94910AA59F900DD7
:1014C000B49F900DA49F800D911D11240895B7FF26
:1014D0000C945C0A0E945C0A821B930B0895A1E2A3
:1014E0001A2EAA1BBB1BFD010DC0AA1FBB1FEE1F9E
:1014F000FF1FA217B307E407F50720F0A21BB30BE9
:10150000E40BF50B661F771F881F991F1A9469F764
:1015100060957095809590959B01AC01BD01CF01C0
:101520000895A29FB001B39FC001A39F700D811DBC
:101530001124911DB29F700D811D1124911D0895DC
:1015400097FB072E16F4009407D077FD09D00E9470
:10155000B40A07FC05D03EF4909581959F4F0895FD
:10156000709561957F4F0895AA1BBB1B51E107C081
:10157000AA1FBB1FA617B70710F0A61BB70B881F23
:10158000991F5A95A9F780959095BC01CD010895B2
:10159000EE0FFF1F0590F491E02D099481E090E09B
:0A15A000F8940C94D30AF894FFCFDE
:1015AA0001000000F703F003E603EA030102010267
:1015BA00000000000204FF0300000000A4029202DF
:1015CA00000000000406F705000000005206F705B7
:1015DA0000000000AA06F705000000002506F7052E
:0815EA0000000000F805F70500
:00000001FF
