:100000000C9486000C94AE000C94AE000C94AE00E0
:100010000C94AE000C94AE000C94AE000C94AE00A8
:100020000C94AE000C94AE000C94AE000C94AE0098
:100030000C94AE000C94AE000C94AE000C94AE0088
:100040000C949F050C94AE000C9436040C94100490
:100050000C94AE000C94AE000C94AE000C94AE0068
:100060000C94AE000C94AE000000000023002600AB
:10007000290000000000240027002A004572726F4A
:10008000722072656164696E672047616D65637592
:10009000626520636F6E74726F6C6C65722E0045C2
:1000A00072726F722077726974696E672047616D32
:1000B000656375626520636F6E74726F6C6C6572D8
:1000C0002E0000000000250028002B00040404047A
:1000D00004040404020202020202030303030303F2
:1000E00001020408102040800102040810200102CF
:1000F00004081020000000080002010000030407AB
:100100000000000000000000EF07DF0711241FBE01
:10011000CFEFD8E0DEBFCDBF11E0A0E0B1E0E6E771
:10012000F6E102C005900D92A23BB107D9F722E09B
:10013000A2EBB1E001C01D92A539B207E1F710E0D2
:10014000C5E8D0E004C02197FE010E94020AC4382D
:10015000D107C9F70E94FC050C942E0B0C940000EB
:10016000CF92DF92EF92FF920F931F93CF93DF9383
:100170006C017A018B01C0E0D0E0CE15DF0581F083
:10018000D8016D918D01D601ED91FC910190F08126
:10019000E02DC6010995892B11F02196EECF7E0145
:1001A000C701DF91CF911F910F91FF90EF90DF90EA
:1001B000CF900895089580E090E00895FC01538D5C
:1001C000448D252F30E0842F90E0821B930B541731
:1001D00010F0CF96089501970895FC01918D828DBE
:1001E000981761F0828DDF01A80FB11D5D968C918B
:1001F000928D9F5F9F73928F90E008958FEF9FEF96
:100200000895FC01918D828D981731F0828DE80F51
:10021000F11D858D90E008958FEF9FEF0895FC010B
:10022000918D228D892F90E0805C9F4F821B9109D8
:100230008F739927089582EB91E00E940F0121E0CE
:10024000892B09F420E0822F0895FC01848DDF01C1
:10025000A80FB11DA35ABF4F2C91848D90E0019639
:100260008F739927848FA689B7892C93A089B18928
:100270008C91837080648C93938D848D981306C0C9
:100280000288F389E02D80818F7D80830895EF922D
:10029000FF920F931F93CF93DF93EC0181E0888F40
:1002A0009B8D8C8D981305C0E889F989808185FD27
:1002B00026C0F62E0B8D10E00F5F1F4F0F73112716
:1002C000E02E8C8DE8120CC00FB607FCFACFE8893F
:1002D000F989808185FFF5CFCE010E942501F1CFFC
:1002E0008B8DFE01E80FF11DE35AFF4FF0829FB79F
:1002F000F8940B8FEA89FB89808180620AC09FB7DE
:10030000F894EE89FF896083E889F9898081837098
:10031000806480839FBF81E090E0DF91CF911F9147
:100320000F91FF90EF900895CF93DF93EC01888DAC
:100330008823C9F0EA89FB89808185FD05C0A889E9
:10034000B9898C9186FD0FC00FB607FCF5CF80816F
:1003500085FFF2CFA889B9898C9185FFEDCFCE01B9
:100360000E942501E7CFDF91CF91089580E090E0D2
:10037000892B29F00E941B0181110C940000089523
:10038000EF920F931F93F901DA013C912E2D2095E6
:1003900032233C9330813E293083FC01D80198E020
:1003A00080E030E020E04C914E2189F02A95D9F789
:1003B00020E04C914E2159F02A95D9F720E84C9134
:1003C0004E2129F02A95D9F73A9561F717C047E0F1
:1003D0004A95F1F7000031E0550F4C914E2109F09C
:1003E00051609A9529F45193839598E0681731F0FC
:1003F00020E84C914E2111F72A95D9F71F910F91C2
:10040000EF9008950F931F93F9012081202B2083F3
:10041000DA012C91202B2C9320814081202B30E07D
:1004200010E00095109550E004231523DC015D9148
:1004300048E00083550F40F474E07A95F1F720838B
:100440007AE07A95F1F705C07EE07A95F1F7000041
:1004500020834A9529F073E07A95F1F70000E9CFFF
:100460006A9529F071E07A95F1F70000E0CF72E02B
:100470007A95F1F700000000008374E07A95F1F7B7
:100480000000000020831F910F9108957F928F92AA
:100490009F92AF92BF92CF92DF92EF92FF920F9313
:1004A0001F93CF93DF93DB01642F5901F02E282F88
:1004B00030E0F901E052FF4FE490F901E453FF4FBF
:1004C000249130E0220F331FF901EE58FF4FC59100
:1004D000D491F901EE53FF4FC590D490F901E8593A
:1004E000FF4F859094907FB6F8940E2D9601AE0143
:1004F000CD010E94020284019601AE016F2DC5015B
:100500000E94C0017FBEDF91CF911F910F91FF909C
:10051000EF90DF90CF90BF90AF909F908F907F90A3
:1005200008953F924F925F926F927F928F929F9227
:10053000AF92BF92CF92DF92EF92FF920F931F93F1
:10054000CF93DF9300D01F92CDB7DEB73B014A01B6
:10055000290190E0FC01E052FF4FF490FC01E453CC
:10056000FF4F849190E0880F991FFC01EE58FF4FD8
:10057000C590D490FC01EE53FF4FA590B490FC01C0
:10058000E859FF4F059114913FB6F89419821A82E9
:100590001B82EF2C9501A60163E0CE0101960E941B
:1005A000C0018130B9F48981811109C00F2D9501F5
:1005B000A60163E0C3010E94020281E02BC08134E6
:1005C00011F50F2D9501A6016AE0C4010E940202F7
:1005D00082E020C08330B9F489818034A1F48A811B
:1005E000833089F40F2D9501A60168E0C2010E94B5
:1005F00002028B818370813041F0823041F0833080
:1006000041F486E007C080E005C084E003C085E0D7
:1006100001C083E03FBE0F900F900F90DF91CF910C
:100620001F910F91FF90EF90DF90CF90BF90AF9010
:100630009F908F907F906F905F904F903F90089524
:100640000895089525E1FB01DC019C9601900D922F
:100650002A95E1F70895FC01DB0182811D969C91AA
:100660001D97882311F09B7F01C094601D969C9379
:10067000928181E0892782830895FC0182819381A0
:10068000009749F48AEEDB011F968C9382E090E09C
:10069000938382830895029731F480E2DB011F96F1
:1006A0008C93138212820895FC01A481B581109766
:1006B00029F4A281B3818D919C9104C014968D91EF
:1006C0009C911597009721F09583848381E008958C
:1006D00080E00895FC01158214820895FC01848154
:1006E0009581009719F0FC0180819181089508950A
:1006F0000E94290B0C94A00A0C94A00A0F931F933C
:10070000CF93DF93EC0188819981009739F0FC0148
:10071000048115810E94A00AC801F7CF1B821A82AA
:1007200019821882DF91CF911F910F9108950C9437
:10073000A00A0C94A00A0C94A00A0C94A00A0C9491
:10074000A00A0C94A00A0C94A00A0C94A00AEF92A0
:10075000FF920F931F93CF93DF938C01EB01FC016A
:1007600092818E85992339F08F7B8E8780E28B8BE7
:100770008FE78F8721C080648E878AEE8B8B0E94E3
:1007800067097C01F1E0EF22FF2480FF08C00E948E
:1007900067096AEC70E00E94DA09805E01C08AEEA7
:1007A0008F87EF2841F40E9467096AEC70E00E948D
:1007B000DA098F5D01C08AEE888BF801928181E0B1
:1007C00089278283DF91CF911F910F91FF90EF9046
:1007D00008950F931F93CF93DF93EB010E94670956
:1007E0008C010170112780FF08C00E9467096AEC24
:1007F00070E00E94DA09805E01C08AEE8F87012BCB
:1008000041F40E9467096AEC70E00E94DA098F5D8A
:1008100001C08AEE888BDF91CF911F910F910895CF
:100820001F920F920FB60F9211242F933F934F9365
:100830005F936F937F938F939F93AF93BF93EF9348
:10084000FF9382EB91E00E942501FF91EF91BF9110
:10085000AF919F918F917F916F915F914F913F9158
:100860002F910F900FBE0F901F9018951F920F920F
:100870000FB60F9211242F938F939F93EF93FF93B3
:10088000E091C201F091C3018081E091C801F09133
:10089000C90182FD12C090818091CB018F5F8F735F
:1008A0002091CC01821751F0E091CB01F0E0EE54A1
:1008B000FE4F958F8093CB0101C08081FF91EF9116
:1008C0009F918F912F910F900FBE0F901F901895B1
:1008D00008950895CF93DF932AE331E0FC0131833B
:1008E0002083EB5BFF4FC081D181209741F0CE0187
:1008F0000E947E03CE01DF91CF910C94A00ADF917C
:10090000CF910895CF93DF93EC010E946A04CE014A
:10091000DF91CF910C94A00A089508950895089549
:100920000895089508953FB7F894809189029091B1
:100930008A02A0918B02B0918C0226B5A89B05C0BB
:100940002F3F19F00196A11DB11D3FBFBA2FA92F4E
:10095000982F8827820F911DA11DB11DBC01CD01CB
:1009600042E0660F771F881F991F4A95D1F70895B7
:10097000E1E0F1E09491EDEEF0E02491E9EDF0E0BA
:10098000E491EE2309F43CC0992339F1933091F0BE
:1009900038F49130A9F0923001F594B59F7D12C0E2
:1009A000973091F09830A1F09430B9F49091800094
:1009B0009F7D03C0909180009F77909380000DC031
:1009C00094B59F7794BD09C09091B0009F7703C004
:1009D0009091B0009F7D9093B000F0E0EE0FFF1F6C
:1009E000EE53FF4FA591B4919FB7F894811104C0C5
:1009F0008C912095282302C0EC912E2B2C939FBF25
:100A000008958F929F92AF92BF92CF92DF92EF9212
:100A1000FF920E9493044B015C0188EEC82E83E094
:100A2000D82EE12CF12C0E949304DC01CB01881913
:100A30009909AA09BB09883E9340A105B10598F31D
:100A400021E0C21AD108E108F10888EE880E83E09F
:100A5000981EA11CB11CC114D104E104F10419F7C2
:100A6000FF90EF90DF90CF90BF90AF909F908F90CE
:100A7000089542E050E06EEA71E082EB91E00C9460
:100A8000B0000F931F93CF93DF938C01C0E0D0E0B1
:100A9000F801EC0FFD1F6491662341F082EB91E0B9
:100AA0000E944701892B11F02196F2CFCE01DF91F0
:100AB000CF911F910F9108950F931F93CF93DF93C1
:100AC0008C01EB0180916B0290916C02DC01ED9145
:100AD000FC910680F781E02D099580916B02909141
:100AE0006C02D801ED91FC91309791F02081318119
:100AF0008217930721F00480F581E02DF5CFE8817E
:100B0000F9810084F185E02DCE010995811107C09E
:100B1000E881F9810680F781E02DCE010995E88111
:100B2000F9810480F581E02DCE01099590936C0246
:100B300080936B02DF91CF911F910F9108951F92C7
:100B40000F920FB60F9211242F933F938F939F9381
:100B5000AF93BF938091850290918602A091870206
:100B6000B09188023091840223E0230F2D3720F4C6
:100B70000196A11DB11D05C026E8230F0296A11DF7
:100B8000B11D209384028093850290938602A093E6
:100B90008702B09388028091890290918A02A09185
:100BA0008B02B0918C020196A11DB11D8093890228
:100BB00090938A02A0938B02B0938C02BF91AF9165
:100BC0009F918F913F912F910F900FBE0F901F908B
:100BD0001895FC010FB6F89460918D0270918E0209
:100BE00080918F02909190020FBE309721F0608328
:100BF0007183828393830895CF93DF93CDB7DEB75C
:100C000065970FB6F894DEBF0FBECDBF789484B55C
:100C1000826084BD84B5816084BD85B5826085BDF8
:100C200085B5816085BD80916E00816080936E0086
:100C30001092810080918100826080938100809178
:100C40008100816080938100809180008160809329
:100C500080008091B10084608093B1008091B000E9
:100C600081608093B00080917A00846080937A00E4
:100C700080917A00826080937A0080917A0081600E
:100C800080937A0080917A00806880937A00109235
:100C9000C10080E090E00E94E905CB010E946C0950
:100CA000EDEEF0E02491E9EDF0E08491882399F0F5
:100CB00090E0880F991FFC01EE58FF4FA591B49169
:100CC000FC01EE53FF4F859194918FB7F894EC910E
:100CD000E22BEC938FBFE091C201F091C30182E05F
:100CE0008083E091BE01F091BF011082E091C001CC
:100CF000F091C10180E180831092CA01E091C601A8
:100D0000F091C70186E08083E091C401F091C501B4
:100D1000808180618083E091C401F091C501808170
:100D200088608083E091C401F091C5018081806872
:100D30008083E091C401F091C50180818F7D808323
:100D400011E480E4F82E80916E0290916F02892B5D
:100D5000B9F09091700293FB992790F980918302EA
:100D6000F98223E02A839B8308E02BE732E043E00B
:100D7000BE016F5F7F4F0E944602883029F10EC08E
:100D800080918302198203E02EE632E041E0BE0149
:100D90006F5F7F4F0E944602833039F010926E02DF
:100DA00010926F0210927002BFC08091830219836B
:100DB0000AE021E732E041E0BE016F5F7F4F0E9411
:100DC00046028A3031F2B0C080917B0285FDE6CFC9
:100DD00085E1EEE6F2E0DE01119601900D928A9532
:100DE000E1F78F8583FB992790F983FF03C09093E8
:100DF0004F020EC080914F02882351F010924F0293
:100E00006091690270916A0285E692E00E945C0539
:100E10008F8581FB992790F981FF03C09093500241
:100E20000EC080915002882351F0109250026091C0
:100E30005D0270915E0289E592E00E945C058F85FB
:100E400082FB992790F982FF03C0909351020EC054
:100E500080915102882351F01092510260916302F7
:100E6000709164028FE592E00E945C058F85982F57
:100E7000917080FF03C0909352020EC08091520285
:100E8000882351F0109252026091570270915802DB
:100E900083E592E00E945C0580916B0290916C0268
:100EA000DC01ED91FC910480F581E02DBE016F5FC6
:100EB0007F4F09958E8585FD3AC00FB7F8949E0146
:100EC000225F3F4FAE014C5F5F4FBE016F5F7F4FB0
:100ED00080916D020E949102813069F49E01225F2F
:100EE0003F4FAE014C5F5F4FBE016F5F7F4F809100
:100EF0006D020E949102823069F49E01225F3F4F91
:100F0000AE014C5F5F4FBE016F5F7F4F80916D02FE
:100F10000E9491020FBF8350833048F480E00E940A
:100F2000B8040E94B6010FCF8CE790E002C08FE9B1
:100F300090E00E9441050E94390581E00E94B804BA
:100F40000E940105EBCF0F931F93CF93DF93EC012A
:100F50008B0186E090E00E94080AFC011382128255
:100F6000158214821183008388819981892B29F449
:100F7000FB83EA83F983E8830AC0AA81BB81B38338
:100F8000A2831596FC93EE931497FB83EA83DF917B
:100F9000CF911F910F910895CF93DF93EC0186E0DD
:100FA00090E00E94080A2EE031E0FC0131832083AA
:100FB00015821482D383C283DF91CF91089585E691
:100FC00092E00E947E038FE592E00E947E0389E515
:100FD00092E00E947E0383E592E00C947E030F93DF
:100FE0001F93CF93DF93E2EBF1E01382128288EE3E
:100FF00093E0A0E0B0E084839583A683B7838CE17F
:1010000091E09183808385EC90E09587848784ECE0
:1010100090E09787868780EC90E0918B808B81ECC5
:1010200090E0938B828B82EC90E0958B848B86ECA6
:1010300090E0978B868B118E128E138E148E83E028
:101040008093830285E080936D02CFE4D2E0188222
:1010500019821A821B821D821C821F821E8283E5D6
:1010600092E00E94CC07998788871B861A861D8686
:101070001C8689E592E00E94CC079F878E87198A9B
:10108000188A1B8A1A8A8FE592E00E94CC079D8BF2
:101090008C8B1F8A1E8A198E188E85E692E00E941C
:1010A000CC079B8F8A8F82E090E00E94080A2AE991
:1010B00031E0DC012D933C93BC0183E592E00E947A
:1010C000A30784E090E00E94080A2EE531E0FC01CD
:1010D0003183208313821282BC0183E592E00E9457
:1010E000A30782E090E00E94080A2EE831E0DC01CC
:1010F0002D933C93BC0183E592E00E94A30782E01C
:1011000090E00E94080A22E831E0FC01318320834C
:10111000BC0189E592E00E94A30783E090E00E9471
:10112000080A22E531E0DC0111963C932E931296D9
:101130001C92BC0189E592E00E94A30783E090E045
:101140000E94080A26E431E0FC01318320831282E8
:10115000BC0189E592E00E94A30782E090E00E9432
:10116000080A26E731E0DC012D933C93BC018FE5B2
:1011700092E00E94A30787E490E00E94080A8C0195
:10118000FC018AE391E08193919385E1DF01982F3F
:101190001D929A95E9F7F8017796DF01982F1D9235
:1011A0009A95E9F77596DF011D928A95E9F775968C
:1011B000108211821282138284E090E00E94080A59
:1011C000FC011182108213821282F801EB5BFF4F47
:1011D00091838083B8018FE592E00E94A30782E0AB
:1011E00090E00E94080A2AE631E0DC012D933C934E
:1011F000BC0185E692E00E94A30789E190E00E948D
:10120000080A2EE231E0FC0131832083BC0185E62F
:1012100092E00E94A30788859985DC01ED91FC91FD
:101220000480F581E02D09959D8F8C8FDF91CF9102
:101230001F910F9108958F929F92AF92BF92CF927C
:10124000DF92EF92FF92CF93DF93EC016881798177
:101250008A819B81611571058105910521F464E204
:1012600079ED8BE597E02DE133EF41E050E00E940E
:10127000770949015A019B01AC01A7EAB1E40E9438
:1012800096096B017C01ACEEB4EFA50194010E94BC
:10129000A409DC01CB018C0D9D1DAE1DBF1DB7FF48
:1012A00003C00197A109B04888839983AA83BB83AF
:1012B0009F77DF91CF91FF90EF90DF90CF90BF901D
:1012C000AF909F908F9008950E941B09089580E031
:1012D00091E00E941B090895A0E0B0E08093000116
:1012E00090930101A0930201B09303010895052E8C
:1012F00097FB1EF400940E948E0957FD07D00E94B0
:10130000A90907FC03D04EF40C948E095095409522
:10131000309521953F4F4F4F5F4F089590958095A1
:10132000709561957F4F8F4F9F4F08950E94CB0915
:10133000A59F900DB49F900DA49F800D911D112429
:101340000895B7FF0C9496090E949609821B930B8F
:101350000895A1E21A2EAA1BBB1BFD010DC0AA1FF6
:10136000BB1FEE1FFF1FA217B307E407F50720F00E
:10137000A21BB30BE40BF50B661F771F881F991F89
:101380001A9469F760957095809590959B01AC01D2
:10139000BD01CF010895A29FB001B39FC001A39FDB
:1013A000700D811D1124911DB29F700D811D11249E
:1013B000911D089597FB072E16F4009407D077FD32
:1013C00009D00E94EE0907FC05D03EF49095819566
:1013D0009F4F0895709561957F4F0895AA1BBB1B81
:1013E00051E107C0AA1FBB1FA617B70710F0A61B25
:1013F000B70B881F991F5A95A9F780959095BC0146
:10140000CD010895EE0FFF1F0590F491E02D099492
:101410000F931F93CF93DF938230910510F482E0F6
:1014200090E0E0919302F091940220E030E0A0E09F
:10143000B0E0309719F14081518102811381481742
:101440005907C8F08417950769F4109731F0129680
:101450000C93129713961C9327C00093930210933A
:10146000940222C02115310519F04217530718F4D0
:101470009A01BD01EF01DF01F801DBCF2115310534
:10148000F9F0281B390B2430310580F48A819B81C7
:101490006115710521F0FB019383828304C0909351
:1014A000940280939302FE01329644C0FE01E20F43
:1014B000F31F8193919322503109398328833AC0D5
:1014C0002091910230919202232B41F42091060148
:1014D00030910701309392022093910220910401F0
:1014E000309105012115310541F42DB73EB74091EA
:1014F000080150910901241B350BE0919102F091F4
:101500009202E217F307A0F42E1B3F0B28173907AE
:1015100078F0AC014E5F5F4F2417350748F04E0F4F
:101520005F1F50939202409391028193919302C066
:10153000E0E0F0E0CF01DF91CF911F910F9108958E
:10154000CF93DF93009709F481C0FC013297138297
:101550001282A0919302B0919402109781F420819D
:101560003181820F931F20919102309192022817AE
:10157000390751F5F0939202E093910267C0ED01B3
:1015800020E030E0CE17DF0740F44A815B819E0106
:1015900041155105F1F0EA01F5CFD383C2834081B3
:1015A0005181840F951FC817D90759F488819981F3
:1015B000840F951F0296918380838A819B819383F8
:1015C00082832115310529F4F0939402E09393026C
:1015D0003DC0E901FB83EA8349915991C40FD51FAE
:1015E000EC17FD0761F480819181840F951F0296AD
:1015F000E90199838883828193819B838A83E0E0D8
:10160000F0E012968D919C911397009719F0FD01CF
:10161000DC01F7CF8D919C9111979D012E5F3F4F7B
:10162000820F931F2091910230919202281739075F
:1016300069F4309729F4109294021092930202C038
:1016400013821282B0939202A0939102DF91CF9104
:10165000089581E090E0F8940C942E0B10E0C5E81A
:10166000D0E004C0FE010E94020A2196C638D107CC
:06167000C9F7F894FFCF5A
:1016760001000000000095028000000000007703D2
:10168600A5036E036A035403000000004701B0007F
:10169600DE0094010F01ED000101000000008C0442
:1016A600970321032003000000006A04820422033A
:1016B6002003000000008F049D03A7032003000001
:1016C60000008E049B032B032003000000009204FD
:1016D600A3033D0320030000000069047C032103EB
:1016E60020030000000068047A03210320030000A1
:1016F60000008D04990321032003000000009004DC
:101706009F03E9032003000000009104A1032103C5
:1017160020030000000078037803780378030D0A9D
:021726000000C1
:00000001FF
