:100000000C9485000C94AD000C94AD000C94AD00E4
:100010000C94AD000C94AD000C94AD000C94AD00AC
:100020000C94AD000C94AD000C94AD000C94AD009C
:100030000C94AD000C94AD000C94AD000C94AD008C
:100040000C9415050C94AD000C9485050C945F057B
:100050000C94AD000C94AD000C94AD000C94AD006C
:100060000C94AD000C94AD000000000023002600AD
:10007000290000000000240027002A004572726F4A
:10008000722072656164696E672047616D65637592
:10009000626520636F6E74726F6C6C65722E0045C2
:1000A00072726F722077726974696E672047616D32
:1000B000656375626520636F6E74726F6C6C6572D8
:1000C0002E0000000000250028002B00040404047A
:1000D00004040404020202020202030303030303F2
:1000E00001020408102040800102040810200102CF
:1000F00004081020000000080002010000030407AB
:100100000000000000000000CA0511241FBECFEF50
:10011000D8E0DEBFCDBF11E0A0E0B1E0E2E0F5E164
:1001200002C005900D92A635B107D9F722E0A6E5E9
:10013000B1E001C01D92AD32B207E1F710E0C5E8B1
:10014000D0E004C02197FE010E945309C438D107B2
:10015000C9F70E94FD050C947F0A0C940000EF92F1
:10016000FF920F931F93CF93DF93813019F4DB013C
:100170008C9341C0FB0180818823E9F1E9018A0168
:100180007B0180916F0190917001DC01ED91FC91F8
:100190000280F381E02D099580916F0190917001AB
:1001A000D801ED91FC91309791F020813181821737
:1001B000930721F00480F581E02DF5CFE881F981E6
:1001C0000084F185E02DCE010995811107C0E881F9
:1001D000F9810680F781E02DCE010995E881F9814A
:1001E0000480F581E02DCE010995909370018093F4
:1001F0006F01F7011082DF91CF911F910F91FF9056
:10020000EF900895E1E0F1E09491EDEEF0E02491BB
:10021000E9EDF0E0E491EE2309F43CC0992339F1D3
:10022000933091F038F49130A9F0923001F594B503
:100230009F7D12C0973091F09830A1F09430B9F4BE
:10024000909180009F7D03C0909180009F77909354
:1002500080000DC094B59F7794BD09C09091B00007
:100260009F7703C09091B0009F7D9093B000F0E025
:10027000EE0FFF1FEE53FF4FA591B4919FB7F89477
:10028000811104C08C912095282302C0EC912E2B63
:100290002C939FBF08953FB7F89480916B01909184
:1002A0006C01A0916D01B0916E0126B5A89B05C0AF
:1002B0002F3F19F00196A11DB11D3FBFBA2FA92FE5
:1002C000982F8827820F911DA11DB11DBC01CD0162
:1002D00042E0660F771F881F991F4A95D1F708954E
:1002E0008F929F92AF92BF92CF92DF92EF92FF9246
:1002F0000E944B014B015C0188EEC82E83E0D82E92
:10030000E12CF12C0E944B01DC01CB0188199909E9
:10031000AA09BB09883E9340A105B10598F321E0E5
:10032000C21AD108E108F10888EE880E83E0981E11
:10033000A11CB11CC114D104E104F10419F7FF9010
:10034000EF90DF90CF90BF90AF909F908F900895E7
:10035000CF92DF92EF92FF920F931F93CF93DF9391
:100360006C017A018B01C0E0D0E0CE15DF0581F091
:10037000D8016D918D01D601ED91FC910190F08134
:10038000E02DC6010995892B11F02196EECF7E0153
:10039000C701DF91CF911F910F91FF90EF90DF90F8
:1003A000CF90089542E050E062E571E081E791E08E
:1003B0000C94A801089580E090E00895FC01538D0D
:1003C000448D252F30E0842F90E0821B930B54172F
:1003D00010F0CF96089501970895FC01918D828DBC
:1003E000981761F0828DDF01A80FB11D5D968C9189
:1003F000928D9F5F9F73928F90E008958FEF9FEF94
:100400000895FC01918D828D981731F0828DE80F4F
:10041000F11D858D90E008958FEF9FEF0895FC0109
:10042000918D228D892F90E0805C9F4F821B9109D6
:100430008F739927089581E791E00E940F0221E0D0
:10044000892B09F420E0822F0895FC01848DDF01BF
:10045000A80FB11DA35ABF4F2C91848D90E0019637
:100460008F739927848FA689B7892C93A089B18926
:100470008C91837080648C93938D848D981306C0C7
:100480000288F389E02D80818F7D80830895EF922B
:10049000FF920F931F93CF93DF93EC0181E0888F3E
:1004A0009B8D8C8D981305C0E889F989808185FD25
:1004B00026C0F62E0B8D10E00F5F1F4F0F73112714
:1004C000E02E8C8DE8120CC00FB607FCFACFE8893D
:1004D000F989808185FFF5CFCE010E942502F1CFF9
:1004E0008B8DFE01E80FF11DE35AFF4FF0829FB79D
:1004F000F8940B8FEA89FB89808180620AC09FB7DC
:10050000F894EE89FF896083E889F9898081837096
:10051000806480839FBF81E090E0DF91CF911F9145
:100520000F91FF90EF9008950F931F93CF93DF9358
:100530008C01C0E0D0E0F801EC0FFD1F6491662350
:1005400041F081E791E00E944702892B11F021964A
:10055000F2CFCE01DF91CF911F910F910895CF93EC
:10056000DF93EC01888D8823C9F0EA89FB898081BB
:1005700085FD05C0A889B9898C9186FD0FC00FB68D
:1005800007FCF5CF808185FFF2CFA889B9898C91CE
:1005900085FFEDCFCE010E942502E7CFDF91CF91FD
:1005A000089580E090E0892B29F00E941B028111C0
:1005B0000C9400000895EF920F931F93F901DA0154
:1005C0003C912E2D209532233C9330813E2930835F
:1005D000FC01D80198E080E030E020E04C914E2111
:1005E00089F02A95D9F720E04C914E2159F02A95AF
:1005F000D9F720E84C914E2129F02A95D9F73A9560
:1006000061F717C047E04A95F1F7000031E0550F58
:100610004C914E2109F051609A9529F4519383959C
:1006200098E0681731F020E84C914E2111F72A9597
:10063000D9F71F910F91EF9008950F931F93F90130
:100640002081202B2083DA012C91202B2C932081D8
:100650004081202B30E010E00095109550E00423FD
:100660001523DC015D9148E00083550F40F474E0F0
:100670007A95F1F720837AE07A95F1F705C07EE06C
:100680007A95F1F7000020834A9529F073E07A9576
:10069000F1F70000E9CF6A9529F071E07A95F1F75A
:1006A0000000E0CF72E07A95F1F7000000000083CF
:1006B00074E07A95F1F70000000020831F910F91FC
:1006C00008957F928F929F92AF92BF92CF92DF92C6
:1006D000EF92FF920F931F93CF93DF93DB01642F71
:1006E0005901F02E282F30E0F901E052FF4FE4903D
:1006F000F901E453FF4F249130E0220F331FF90139
:10070000EE58FF4FC591D491F901EE53FF4FC590BC
:10071000D490F901E859FF4F859094907FB6F894F2
:100720000E2D9601AE01CD010E941D03840196019C
:10073000AE016F2DC5010E94DB027FBEDF91CF911C
:100740001F910F91FF90EF90DF90CF90BF90AF90EF
:100750009F908F907F9008953F924F925F926F92FB
:100760007F928F929F92AF92BF92CF92DF92EF9241
:10077000FF920F931F93CF93DF9300D01F92CDB7BB
:10078000DEB73B014A01290190E0FC01E052FF4F36
:10079000F490FC01E453FF4F849190E0880F991F7F
:1007A000FC01EE58FF4FC590D490FC01EE53FF4F73
:1007B000A590B490FC01E859FF4F059114913FB604
:1007C000F89419821A821B82EF2C9501A60163E02E
:1007D000CE0101960E94DB028130B9F4898181113A
:1007E00009C00F2D9501A60163E0C3010E941D03FE
:1007F00081E02BC0813411F50F2D9501A6016AE02F
:10080000C4010E941D0382E020C08330B9F48981B5
:100810008034A1F48A81833089F40F2D9501A601DB
:1008200068E0C2010E941D038B818370813041F01A
:10083000823041F0833041F486E007C080E005C09B
:1008400084E003C085E001C083E03FBE0F900F90BD
:100850000F90DF91CF911F910F91FF90EF90DF905C
:10086000CF90BF90AF909F908F907F906F905F9050
:100870004F903F900895FC01A481B581109729F411
:10088000A281B3818D919C9104C014968D919C910D
:100890001597009721F09583848381E0089580E087
:1008A0000895FC01158214820895FC0184819581CC
:1008B000009719F0FC0180819181089508950895B1
:1008C000FC01DB0182811D969C911D97882311F00C
:1008D0009B7F01C094601D969C93928181E0892743
:1008E000828308950895FC0182819381009749F4E1
:1008F0008AEEDB011F968C9382E090E093838283E3
:100900000895029731F480E2DB011F968C931382E5
:10091000128208950F931F93CF93DF93EC018B0105
:1009200086E090E00E945909FC0113821282158230
:1009300014821183008388819981892B29F4FB8398
:10094000EA83F983E8830AC0AA81BB81B383A283C7
:100950001596FC93EE931497FB83EA83DF91CF9176
:100960001F910F9108950E947A0A0C94F109EF9259
:10097000FF920F931F93CF93DF938C01EB01FC0148
:100980008281882341F08E858F7B8E8780E28B8BDE
:100990008FE78F871CC080E090E00E94B705CB01F5
:1009A0000E94BD088E8580648E878AEE8B8B0E94A4
:1009B000B8082AECE22EF12CB7010E942B098F5DBA
:1009C0008F870E94B808B7010E942B098F5D888B22
:1009D000F801928181E089278283DF91CF911F9175
:1009E0000F91FF90EF9008950F931F93CF93DF9394
:1009F000EB0180E090E00E94B705CB010E94BD08AA
:100A00000E94B8080AEC10E0B8010E942B098F5D23
:100A10008F870E94B808B8010E942B098F5D888BD0
:100A2000DF91CF911F910F9108951F920F920FB6F2
:100A30000F9211242F933F938F939F93AF93BF9364
:100A40008091670190916801A0916901B0916A015C
:100A50003091660123E0230F2D3720F40196A11D6C
:100A6000B11D05C026E8230F0296A11DB11D2093DC
:100A700066018093670190936801A0936901B09328
:100A80006A0180916B0190916C01A0916D01B09110
:100A90006E010196A11DB11D80936B0190936C01B5
:100AA000A0936D01B0936E01BF91AF919F918F9113
:100AB0003F912F910F900FBE0F901F9018951F928E
:100AC0000F920FB60F9211242F933F934F935F9382
:100AD0006F937F938F939F93AF93BF93EF93FF9306
:100AE00081E791E00E942502FF91EF91BF91AF91C4
:100AF0009F918F917F916F915F914F913F912F9136
:100B00000F900FBE0F901F9018951F920F920FB667
:100B10000F9211242F938F939F93EF93FF93E09164
:100B20008101F09182018081E0918701F09188013B
:100B300082FD12C0908180918A018F5F8F73209116
:100B40008B01821751F0E0918A01F0E0EF58FE4FDF
:100B5000958F80938A0101C08081FF91EF919F91D1
:100B60008F912F910F900FBE0F901F901895FC0141
:100B70000FB6F894609125027091260280912702A9
:100B8000909128020FBE309721F060837183828399
:100B900093830895E1E7F1E01382128288EE93E0F7
:100BA000A0E0B0E084839583A683B78384E491E0DA
:100BB0009183808385EC90E09587848784EC90E036
:100BC0009787868780EC90E0918B808B81EC90E01A
:100BD000938B828B82EC90E0958B848B86EC90E0FB
:100BE000978B868B118E128E138E148E83E08093DA
:100BF000240285E080930E020895CF93DF9300D006
:100C00001F92CDB7DEB7789484B5826084BD84B579
:100C1000816084BD85B5826085BD85B5816085BDF7
:100C200080916E00816080936E00109281008091AF
:100C30008100826080938100809181008160809337
:100C40008100809180008160809380008091B1005C
:100C500084608093B1008091B00081608093B00087
:100C600080917A00846080937A0080917A0082601B
:100C700080937A0080917A00816080937A008091DD
:100C80007A00806880937A001092C10084E090E03E
:100C90000E9459098C01DC0111961C921E92139638
:100CA0001C921E921297909358018093570182E0F4
:100CB00090E00E9459092CE331E0FC01318320834C
:100CC000BC01C8010E948A0484E090E00E94590996
:100CD0002EE031E0DC0111963C932E9313961C928A
:100CE0001E921297BC01C8010E948A0482E090E023
:100CF0000E94590924E331E0FC0131832083BC01C7
:100D0000C8010E948A0486E090E00E9459097C0193
:100D100046E2C42E41E0D42EDC011196DC92CE9244
:100D200015961C921E92149713961C930E9312976D
:100D300090935A018093590184E090E00E945909F0
:100D40008C01FC0111821082138212829093600147
:100D500080935F0183E090E00E94590926E131E031
:100D6000DC0111963C932E9312961C92BC01C80193
:100D70000E948A0483E090E00E9459092EE131E04C
:100D8000FC01318320831282BC01C8010E948A04C5
:100D900086E090E00E945909FC01D182C082158250
:100DA000148213830283909362018093610184E033
:100DB00090E00E9459098C01DC0111961C921E9250
:100DC00013961C921E92129790935D0180935C0182
:100DD00082E090E00E9459092CE331E0FC0131836C
:100DE0002083BC01C8010E948A0488E090E00E9430
:100DF00059096C018CE391E0D60111969C938E9376
:100E000013961C921E92129784E090E00E9459095A
:100E1000FC011182108213821282D60117969C93D4
:100E20008E931697B601C8010E948A0484E090E070
:100E30000E9459098C01FC011182108213821282D6
:100E4000909365018093640182E090E00E945909CB
:100E50002CE331E0DC012D933C93BC01C8010E94DE
:100E60008A0484E090E00E9459092CE331E0FC01FF
:100E700031832083BC01C8010E948A04D701ED910F
:100E8000FC910480F581E02DC701099590937001D4
:100E900080936F01EDEEF0E02491E9EDF0E08491B4
:100EA000882399F090E0880F991FFC01EE58FF4FBE
:100EB000A591B491FC01EE53FF4F859194918FB7AA
:100EC000F894EC91E22BEC938FBFE0918101F091CB
:100ED000820182E08083E0917D01F0917E011082A9
:100EE000E0917F01F091800180E18083109289017F
:100EF000E0918501F091860186E08083E091830195
:100F0000F0918401808180618083E0918301F09180
:100F10008401808188608083E0918301F091840165
:100F2000808180688083E0918301F09184018081D9
:100F30008F7D808311E480E4F82E80910F029091E0
:100F40001002892BB9F09091110293FB992790F927
:100F500080912402F98223E02A839B8308E02CE11C
:100F600032E043E0BE016F5F7F4F0E946103883033
:100F700029F10EC080912402198203E02FE032E0B3
:100F800041E0BE016F5F7F4F0E946103833039F003
:100F900010920F02109210021092110289C08091DB
:100FA000240219830AE022E132E041E0BE016F5FD2
:100FB0007F4F0E9461038A3031F27AC080911C0217
:100FC00085FDE6CF80911D02082F017081FBDD2495
:100FD000D0F882FBEE24E0F8409164015091650165
:100FE00020E030E063E671E083FB882780F90E940F
:100FF000AF00209161013091620140915F015091F9
:1010000060016EE571E08D2D0E94AF0040915C01A2
:1010100050915D0120E030E06BE571E08E2D0E9483
:10102000AF002091590130915A01409157015091E0
:10103000580166E571E0802F0E94AF0080911C028C
:1010400085FD47C00FB7F8942CE132E042E152E051
:101050006FE072E080910E020E94AC03813051F487
:101060002CE132E042E152E06FE072E080910E024A
:101070000E94AC03823051F42CE132E042E152E0B4
:101080006FE072E080910E020E94AC030FBF8330CC
:1010900021F480911102877F05C0843031F4809162
:1010A00011028860809311020EC0853091F4F1CF57
:1010B0008CE790E00E9494020E94D20181E00E949D
:1010C00002010E94700180E00E9402010E94D10290
:1010D00034CF8FE990E0EECF8F929F92AF92BF9284
:1010E000CF92DF92EF92FF92CF93DF93EC01688172
:1010F00079818A819B81611571058105910521F4B2
:1011000064E279ED8BE597E02DE133EF41E050E0CB
:101110000E94C80849015A019B01AC01A7EAB1E449
:101120000E94E7086B017C01ACEEB4EFA5019401CD
:101130000E94F508DC01CB018C0D9D1DAE1DBF1D6D
:10114000B7FF03C00197A109B04888839983AA8398
:10115000BB839F77DF91CF91FF90EF90DF90CF908F
:10116000BF90AF909F908F9008950E946C08089553
:1011700080E091E00E946C080895A0E0B0E08093C8
:10118000000190930101A0930201B093030108951F
:10119000052E97FB1EF400940E94DF0857FD07D030
:1011A0000E94FA0807FC03D04EF40C94DF08509517
:1011B0004095309521953F4F4F4F5F4F0895909543
:1011C0008095709561957F4F8F4F9F4F08950E9436
:1011D0001C09A59F900DB49F900DA49F800D911D9B
:1011E00011240895B7FF0C94E7080E94E708821BBA
:1011F000930B0895A1E21A2EAA1BBB1BFD010DC083
:10120000AA1FBB1FEE1FFF1FA217B307E407F507B6
:1012100020F0A21BB30BE40BF50B661F771F881F92
:10122000991F1A9469F760957095809590959B0128
:10123000AC01BD01CF010895A29FB001B39FC001D1
:10124000A39F700D811D1124911DB29F700D811DF2
:101250001124911D089597FB072E16F4009407D0D2
:1012600077FD09D00E943F0907FC05D03EF4909518
:1012700081959F4F0895709561957F4F0895AA1BA2
:10128000BB1B51E107C0AA1FBB1FA617B70710F071
:10129000A61BB70B881F991F5A95A9F780959095A3
:1012A000BC01CD010895EE0FFF1F0590F491E02DD4
:1012B00009940F931F93CF93DF938230910510F41D
:1012C00082E090E0E0912B02F0912C0220E030E0EF
:1012D000A0E0B0E0309719F1408151810281138183
:1012E00048175907C8F08417950769F4109731F02B
:1012F00012960C93129713961C9327C000932B02FF
:1013000010932C0222C02115310519F04217530702
:1013100018F49A01BD01EF01DF01F801DBCF2115BF
:101320003105F9F0281B390B2430310580F48A810E
:101330009B816115710521F0FB019383828304C0B9
:1013400090932C0280932B02FE01329644C0FE0142
:10135000E20FF31F8193919322503109398328833F
:101360003AC02091290230912A02232B41F4209186
:1013700006013091070130932A022093290220911F
:101380000401309105012115310541F42DB73EB717
:101390004091080150910901241B350BE09129026D
:1013A000F0912A02E217F307A0F42E1B3F0B281737
:1013B000390778F0AC014E5F5F4F2417350748F0CE
:1013C0004E0F5F1F50932A024093290281939193FD
:1013D00002C0E0E0F0E0CF01DF91CF911F910F91CB
:1013E0000895CF93DF93009709F481C0FC013297F1
:1013F00013821282A0912B02B0912C02109781F4DB
:1014000020813181820F931F2091290230912A027D
:101410002817390751F5F0932A02E093290267C093
:10142000ED0120E030E0CE17DF0740F44A815B8118
:101430009E0141155105F1F0EA01F5CFD383C28336
:1014400040815181840F951FC817D90759F48881AD
:101450009981840F951F0296918380838A819B8155
:10146000938382832115310529F4F0932C02E093B4
:101470002B023DC0E901FB83EA8349915991C40FD6
:10148000D51FEC17FD0761F480819181840F951FB2
:101490000296E90199838883828193819B838A8361
:1014A000E0E0F0E012968D919C911397009719F06F
:1014B000FD01DC01F7CF8D919C9111979D012E5F6D
:1014C0003F4F820F931F2091290230912A02281743
:1014D000390769F4309729F410922C0210922B02EC
:1014E00002C013821282B0932A02A0932902DF91D4
:1014F000CF91089581E090E0F8940C947F0AF894DD
:02150000FFCF1B
:101502000100000000002D028000000000007304B2
:101512005F040000000060045F0400000000B704E4
:101522005F04000000005E04B504550451043B044E
:1015320000000000F4045F040000000072045F0475
:10154200000000004702A801DE01AF020F02ED0118
:0615520001020D0A000079
:00000001FF
