:100000000C9485000C94AD000C94AD000C94AD00E4
:100010000C94AD000C94AD000C94AD000C94AD00AC
:100020000C94AD000C94AD000C94AD000C94AD009C
:100030000C94AD000C94AD000C94AD000C94AD008C
:100040000C94C4040C94AD000C9434050C940E056F
:100050000C94AD000C94AD000C94AD000C94AD006C
:100060000C94AD000C94AD000000000023002600AD
:10007000290000000000240027002A004572726F4A
:10008000722072656164696E672047616D65637592
:10009000626520636F6E74726F6C6C65722E0045C2
:1000A00072726F722077726974696E672047616D32
:1000B000656375626520636F6E74726F6C6C6572D8
:1000C0002E0000000000250028002B00040404047A
:1000D00004040404020202020202030303030303F2
:1000E00001020408102040800102040810200102CF
:1000F00004081020000000080002010000030407AB
:100100000000000000000000790511241FBECFEFA1
:10011000D8E0DEBFCDBF11E0A0E0B1E0EAEFF2E150
:1001200002C005900D92AA35B107D9F722E0AAE5E1
:10013000B1E001C01D92A332B207E1F710E0C5E8BB
:10014000D0E004C02197FE010E944F08C438D107B7
:10015000C9F70E94AC050C947B090C940000E1E007
:10016000F1E09491EDEEF0E02491E9EDF0E0E4911E
:10017000EE2309F43CC0992339F1933091F038F41F
:100180009130A9F0923001F594B59F7D12C097305F
:1001900091F09830A1F09430B9F4909180009F7D57
:1001A00003C0909180009F77909380000DC094B51C
:1001B0009F7794BD09C09091B0009F7703C0909144
:1001C000B0009F7D9093B000F0E0EE0FFF1FEE5364
:1001D000FF4FA591B4919FB7F894811104C08C9101
:1001E0002095282302C0EC912E2B2C939FBF0895BD
:1001F0003FB7F8948091630190916401A0916501EB
:10020000B091660126B5A89B05C02F3F19F0019655
:10021000A11DB11D3FBFBA2FA92F982F8827820F8C
:10022000911DA11DB11DBC01CD0142E0660F771FDC
:10023000881F991F4A95D1F708958F929F92AF9288
:10024000BF92CF92DF92EF92FF920E94F8004B0193
:100250005C0188EEC82E83E0D82EE12CF12C0E94A0
:10026000F800DC01CB0188199909AA09BB09883E6D
:100270009340A105B10598F321E0C21AD108E10825
:10028000F10888EE880E83E0981EA11CB11CC114F1
:10029000D104E104F10419F7FF90EF90DF90CF90C3
:1002A000BF90AF909F908F900895CF92DF92EF9282
:1002B000FF920F931F93CF93DF936C017A018B0111
:1002C000C0E0D0E0CE15DF0581F0D8016D918D0141
:1002D000D601ED91FC910190F081E02DC6010995C8
:1002E000892B11F02196EECF7E01C701DF91CF91CE
:1002F0001F910F91FF90EF90DF90CF90089542E013
:1003000050E066E571E087E691E00C9455010895B0
:1003100080E090E00895FC01538D448D252F30E05E
:10032000842F90E0821B930B541710F0CF96089502
:1003300001970895FC01918D828D981761F0828D4F
:10034000DF01A80FB11D5D968C91928D9F5F9F7309
:10035000928F90E008958FEF9FEF0895FC01918DAB
:10036000828D981731F0828DE80FF11D858D90E018
:1003700008958FEF9FEF0895FC01918D228D892FB5
:1003800090E0805C9F4F821B91098F73992708959D
:1003900087E691E00E94BC0121E0892B09F420E06E
:1003A000822F0895FC01848DDF01A80FB11DA35A8F
:1003B000BF4F2C91848D90E001968F739927848F85
:1003C000A689B7892C93A089B1898C9183708064A8
:1003D0008C93938D848D981306C00288F389E02D49
:1003E00080818F7D80830895EF92FF920F931F93FA
:1003F000CF93DF93EC0181E0888F9B8D8C8D9813D8
:1004000005C0E889F989808185FD26C0F62E0B8D0F
:1004100010E00F5F1F4F0F731127E02E8C8DE81235
:100420000CC00FB607FCFACFE889F989808185FFF7
:10043000F5CFCE010E94D201F1CF8B8DFE01E80FE6
:10044000F11DE35AFF4FF0829FB7F8940B8FEA89B2
:10045000FB89808180620AC09FB7F894EE89FF898A
:100460006083E889F98980818370806480839FBF7D
:1004700081E090E0DF91CF911F910F91FF90EF907D
:1004800008950F931F93CF93DF938C01C0E0D0E0CA
:10049000F801EC0FFD1F6491662341F087E691E0BF
:1004A0000E94F401892B11F02196F2CFCE01DF9149
:1004B000CF911F910F910895CF93DF93EC01888D19
:1004C0008823C9F0EA89FB89808185FD05C0A88958
:1004D000B9898C9186FD0FC00FB607FCF5CF8081DE
:1004E00085FFF2CFA889B9898C9185FFEDCFCE0128
:1004F0000E94D201E7CFDF91CF91089580E090E094
:10050000892B29F00E94C80181110C9400000895E4
:10051000EF920F931F93F901DA013C912E2D209554
:1005200032233C9330813E293083FC01D80198E08E
:1005300080E030E020E04C914E2189F02A95D9F7F7
:1005400020E04C914E2159F02A95D9F720E84C91A2
:100550004E2129F02A95D9F73A9561F717C047E05F
:100560004A95F1F7000031E0550F4C914E2109F00A
:1005700051609A9529F45193839598E0681731F06A
:1005800020E84C914E2111F72A95D9F71F910F9130
:10059000EF9008950F931F93F9012081202B208362
:1005A000DA012C91202B2C9320814081202B30E0EC
:1005B00010E00095109550E004231523DC015D91B7
:1005C00048E00083550F40F474E07A95F1F72083FA
:1005D0007AE07A95F1F705C07EE07A95F1F70000B0
:1005E00020834A9529F073E07A95F1F70000E9CF6E
:1005F0006A9529F071E07A95F1F70000E0CF72E09A
:100600007A95F1F700000000008374E07A95F1F725
:100610000000000020831F910F9108957F928F9218
:100620009F92AF92BF92CF92DF92EF92FF920F9381
:100630001F93CF93DF93DB01642F5901F02E282FF6
:1006400030E0F901E052FF4FE490F901E453FF4F2D
:10065000249130E0220F331FF901EE58FF4FC5916E
:10066000D491F901EE53FF4FC590D490F901E859A8
:10067000FF4F859094907FB6F8940E2D9601AE01B1
:10068000CD010E94CA0284019601AE016F2DC50101
:100690000E9488027FBEDF91CF911F910F91FF9042
:1006A000EF90DF90CF90BF90AF909F908F907F9012
:1006B00008953F924F925F926F927F928F929F9296
:1006C000AF92BF92CF92DF92EF92FF920F931F9360
:1006D000CF93DF9300D01F92CDB7DEB73B014A0125
:1006E000290190E0FC01E052FF4FF490FC01E4533B
:1006F000FF4F849190E0880F991FFC01EE58FF4F47
:10070000C590D490FC01EE53FF4FA590B490FC012E
:10071000E859FF4F059114913FB6F89419821A8257
:100720001B82EF2C9501A60163E0CE0101960E9489
:1007300088028130B9F48981811109C00F2D95019A
:10074000A60163E0C3010E94CA0281E02BC081348C
:1007500011F50F2D9501A6016AE0C4010E94CA029D
:1007600082E020C08330B9F489818034A1F48A8189
:10077000833089F40F2D9501A60168E0C2010E9423
:10078000CA028B818370813041F0823041F0833026
:1007900041F486E007C080E005C084E003C085E046
:1007A00001C083E03FBE0F900F900F90DF91CF917B
:1007B0001F910F91FF90EF90DF90CF90BF90AF907F
:1007C0009F908F907F906F905F904F903F90089593
:1007D000FC01A481B581109729F4A281B3818D9188
:1007E0009C9104C014968D919C911597009721F0CF
:1007F0009583848381E0089580E00895FC0115824B
:1008000014820895FC0184819581009719F0FC0100
:1008100080819181089508950895FC01DB01828112
:100820001D969C911D97882311F09B7F01C09460B9
:100830001D969C93928181E0892782830895089573
:10084000FC0182819381009749F48AEEDB011F96B7
:100850008C9382E090E0938382830895029731F431
:1008600080E2DB011F968C931382128208950F930E
:100870001F93CF93DF93EC018B0186E090E00E9401
:100880005508FC01138212821582148211830083A1
:1008900088819981892B29F4FB83EA83F983E88392
:1008A0000AC0AA81BB81B383A2831596FC93EE9301
:1008B0001497FB83EA83DF91CF911F910F910895E5
:1008C0000E9476090C94ED080C94ED08EF92FF92CB
:1008D0000F931F93CF93DF938C01EB01FC01828177
:1008E000882341F08E858F7B8E8780E28B8B8FE70C
:1008F0008F871CC080E090E00E946605CB010E94BB
:10090000B9078E8580648E878AEE8B8B0E94B40730
:100910002AECE22EF12CB7010E9427088F5D8F8709
:100920000E94B407B7010E9427088F5D888BF801E9
:10093000928181E089278283DF91CF911F910F916E
:10094000FF90EF9008950F931F93CF93DF93EB01E8
:1009500080E090E00E946605CB010E94B9070E94EA
:10096000B4070AEC10E0B8010E9427088F5D8F875A
:100970000E94B407B8010E9427088F5D888BDF9121
:10098000CF911F910F9108951F920F920FB60F9262
:1009900011242F933F938F939F93AF93BF93809195
:1009A0005F0190916001A0916101B091620130916D
:1009B0005E0123E0230F2D3720F40196A11DB11D08
:1009C00005C026E8230F0296A11DB11D20935E01EC
:1009D00080935F0190936001A0936101B0936201E5
:1009E0008091630190916401A0916501B0916601CD
:1009F0000196A11DB11D8093630190936401A093A2
:100A00006501B0936601BF91AF919F918F913F9126
:100A10002F910F900FBE0F901F9018951F920F925D
:100A20000FB60F9211242F933F934F935F936F93C1
:100A30007F938F939F93AF93BF93EF93FF9387E63B
:100A400091E00E94D201FF91EF91BF91AF919F91F0
:100A50008F917F916F915F914F913F912F910F9067
:100A60000FBE0F901F9018951F920F920FB60F9206
:100A700011242F938F939F93EF93FF93E09177012E
:100A8000F09178018081E0917D01F0917E0182FDFD
:100A900012C09081809180018F5F8F7320918101BE
:100AA000821751F0E0918001F0E0E959FE4F958FF7
:100AB0008093800101C08081FF91EF919F918F9180
:100AC0002F910F900FBE0F901F901895FC010FB63D
:100AD000F89460911B0270911C0280911D0290910C
:100AE0001E020FBE309721F060837183828393834F
:100AF0000895E7E6F1E01382128288EE93E0A0E029
:100B0000B0E084839583A683B78388E491E09183E2
:100B1000808385EC90E09587848784EC90E09787CC
:100B2000868780EC90E0918B808B81EC90E0938BBA
:100B3000828B82EC90E0958B848B86EC90E0978B97
:100B4000868B118E128E138E148E83E080931A0280
:100B500085E0809304020895CF93DF9300D01F9225
:100B6000CDB7DEB7789484B5826084BD84B58160EA
:100B700084BD85B5826085BD85B5816085BD809168
:100B80006E00816080936E001092810080918100E0
:100B900082608093810080918100816080938100D8
:100BA000809180008160809380008091B10084609A
:100BB0008093B1008091B00081608093B0008091FB
:100BC0007A00846080937A0080917A0082608093BA
:100BD0007A0080917A00816080937A0080917A0017
:100BE000806880937A001092C10084E090E00E94B7
:100BF00055088C01FC01118210821382128290939D
:100C00005D0180935C0182E090E00E94550822E43F
:100C100031E0FC0131832083BC01C8010E9437040C
:100C200084E090E00E9455082EE031E0FC01318321
:100C3000208313821282BC01C8010E94370482E023
:100C400090E00E9455082CE331E0FC0131832083C1
:100C5000BC01C8010E94370486E090E00E9455085C
:100C6000FC0184E191E091838083158214821383D7
:100C7000028384E090E00E9455088C01FC011182FF
:100C800010821382128290935B0180935A0182E05A
:100C900090E00E94550822E431E0FC01318320837A
:100CA000BC01C8010E94370483E090E00E9455080F
:100CB00022E231E0FC01318320831282BC01809169
:100CC0005A0190915B010E94370483E090E00E94FA
:100CD000550828E231E0FC01318320831282BC01F7
:100CE00080915A0190915B010E94370400915A0152
:100CF00010915B0186E090E00E945508FC018EE2B5
:100D000091E0918380831582148213830283EDEE38
:100D1000F0E02491E9EDF0E08491882399F090E0EF
:100D2000880F991FFC01EE58FF4FA591B491FC016B
:100D3000EE53FF4F859194918FB7F894EC91E22B8D
:100D4000EC938FBFE0917701F091780182E080838E
:100D5000E0917301F09174011082E0917501F091BE
:100D6000760180E1808310927F01E0917B01F09118
:100D70007C0186E08083E0917901F0917A018081A5
:100D800080618083E0917901F0917A0180818860AF
:100D90008083E0917901F0917A018081806880837D
:100DA000E0917901F0917A0180818F7D808311E457
:100DB00080E4F82E8091050290910602892BB9F00B
:100DC0009091070293FB992790F980911A02F9827A
:100DD00023E02A839B8308E022E132E043E0BE0166
:100DE0006F5F7F4F0E940E03883029F10EC0809103
:100DF0001A02198203E025E032E041E0BE016F5F94
:100E00007F4F0E940E03833039F01092050210923A
:100E10000602109207024BC080911A0219830AE061
:100E200028E032E041E0BE016F5F7F4F0E940E0379
:100E30008A3031F23CC08091120285FDE6CF0FB7B7
:100E4000F89422E132E048E052E065E072E08091FF
:100E500004020E945903813051F422E132E048E05B
:100E600052E065E072E0809104020E9459038230F2
:100E700051F422E132E048E052E065E072E0809116
:100E800004020E9459030FBF833021F480910702AE
:100E9000877F05C0843031F4809107028860809399
:100EA000070210C0853091F38FE990E002C08CE713
:100EB00090E00E9441020E947F0181E00E94AF0009
:100EC0000E941D0180E00E94AF000E947E0272CF4E
:100ED0008F929F92AF92BF92CF92DF92EF92FF924A
:100EE000CF93DF93EC01688179818A819B816115C1
:100EF00071058105910521F464E279ED8BE597E0B8
:100F00002DE133EF41E050E00E94C40749015A014E
:100F10009B01AC01A7EAB1E40E94E3076B017C01ED
:100F2000ACEEB4EFA50194010E94F107DC01CB0106
:100F30008C0D9D1DAE1DBF1DB7FF03C00197A109FC
:100F4000B04888839983AA83BB839F77DF91CF9131
:100F5000FF90EF90DF90CF90BF90AF909F908F90D9
:100F600008950E946807089580E091E00E94680754
:100F70000895A0E0B0E08093000190930101A09358
:100F80000201B09303010895052E97FB1EF400940F
:100F90000E94DB0757FD07D00E94F60707FC03D02D
:100FA0004EF40C94DB0750954095309521953F4FBA
:100FB0004F4F5F4F089590958095709561957F4F45
:100FC0008F4F9F4F08950E941808A59F900DB49FC2
:100FD000900DA49F800D911D11240895B7FF0C94CE
:100FE000E3070E94E307821B930B0895A1E21A2EE8
:100FF000AA1BBB1BFD010DC0AA1FBB1FEE1FFF1FBD
:10100000A217B307E407F50720F0A21BB30BE40B0C
:10101000F50B661F771F881F991F1A9469F7609553
:101020007095809590959B01AC01BD01CF0108950D
:10103000A29FB001B39FC001A39F700D811D112419
:10104000911DB29F700D811D1124911D089597FB74
:10105000072E16F4009407D077FD09D00E943B08B4
:1010600007FC05D03EF4909581959F4F08957095AB
:1010700061957F4F0895AA1BBB1B51E107C0AA1FB2
:10108000BB1FA617B70710F0A61BB70B881F991F29
:101090005A95A9F780959095BC01CD010895EE0F62
:1010A000FF1F0590F491E02D09940F931F93CF93A8
:1010B000DF938230910510F482E090E0E09121020C
:1010C000F091220220E030E0A0E0B0E0309719F18A
:1010D000408151810281138148175907C8F0841754
:1010E000950769F4109731F012960C9312971396A6
:1010F0001C9327C0009321021093220222C02115C5
:10110000310519F04217530718F49A01BD01EF0198
:10111000DF01F801DBCF21153105F9F0281B390B70
:101120002430310580F48A819B816115710521F09D
:10113000FB019383828304C0909322028093210257
:10114000FE01329644C0FE01E20FF31F819391939A
:1011500022503109398328833AC020911F023091EF
:101160002002232B41F42091060130910701309396
:10117000200220931F0220910401309105012115C6
:10118000310541F42DB73EB7409108015091090156
:10119000241B350BE0911F02F0912002E217F307A8
:1011A000A0F42E1B3F0B2817390778F0AC014E5FD7
:1011B0005F4F2417350748F04E0F5F1F50932002F2
:1011C00040931F028193919302C0E0E0F0E0CF01D1
:1011D000DF91CF911F910F910895CF93DF930097E7
:1011E00009F481C0FC01329713821282A09121027E
:1011F000B0912202109781F420813181820F931FD8
:1012000020911F02309120022817390751F5F093E1
:101210002002E0931F0267C0ED0120E030E0CE170E
:10122000DF0740F44A815B819E0141155105F1F0D1
:10123000EA01F5CFD383C28340815181840F951F8A
:10124000C817D90759F488819981840F951F029690
:10125000918380838A819B819383828321153105C9
:1012600029F4F0932202E09321023DC0E901FB83BF
:10127000EA8349915991C40FD51FEC17FD0761F41A
:1012800080819181840F951F0296E901998388835B
:10129000828193819B838A83E0E0F0E012968D91B6
:1012A0009C911397009719F0FD01DC01F7CF8D9108
:1012B0009C9111979D012E5F3F4F820F931F2091AC
:1012C0001F02309120022817390769F4309729F45A
:1012D000109222021092210202C013821282B09355
:1012E0002002A0931F02DF91CF91089581E090E04A
:0A12F000F8940C947B09F894FFCFEA
:1012FA00010000000000230280000000000020041A
:10130A00000000000B0464040204FE03E80300006A
:10131A0000000D04000000006604000000000C0438
:10132A0062040204FE03E80300000000A3040000B4
:10133A0000001F0400000000F40155018B015C024B
:0A134A00BC019A01AE010D0A00007B
:00000001FF
