:100000000C9465000C948D000C948D000C948D0064
:100010000C948D000C948D000C948D000C948D002C
:100020000C948D000C948D000C948D000C948D001C
:100030000C948D000C948D000C948D000C948D000C
:100040000C94D9060C948D000C948D000C948D00AA
:100050000C948D000C948D000C948D000C948D00EC
:100060000C948D000C948D008C0594059D05A605BF
:10007000B905C205C705D105B005D605DB05E00504
:10008000E505000000002300260029000000000014
:10009000250028002B0000000000240027002A0073
:1000A000040404040404040402020202020203031E
:1000B0000303030301020408102040800102040826
:1000C0001020010204081020360711241FBECFEFB4
:1000D000D8E0DEBFCDBF11E0A0E0B1E0E0E6F5E1A1
:1000E00002C005900D92A635B107D9F728E0A6E524
:1000F000B1E001C01D92AC3DB207E1F710E0C5E6EA
:10010000D0E004C02197FE010E948F0AC436D107B7
:10011000C9F70E9451080C94AE0A0C940000EF92AB
:10012000FF921F93CF93DF93182FEB017A018091F9
:10013000710190917201DC01ED91FC910280F381DB
:10014000E02D099590916401191317C08091630106
:10015000482F50E04F5F5F4FF701208130E042179A
:1001600053075CF48F5F80936301FE01E80FF11D7C
:10017000E80FF11D8081918110C0943039F4109303
:100180006401109263018881998107C084E08093A3
:1001900064011092630185ED98E090937201809361
:1001A0007101DF91CF911F91FF90EF9008953FB7BC
:1001B000F89480915B0190915C01A0915D01B091F8
:1001C0005E0126B5A89B05C02F3F19F00196A11D21
:1001D000B11D3FBFBA2FA92F982F8827820F911DDD
:1001E000A11DB11DBC01CD0142E0660F771F881F24
:1001F000991F4A95D1F708958F929F92AF92BF921F
:10020000CF92DF92EF92FF920E94D7004B015C01E8
:1002100084E6C82ED12CE12CF12C0E94D700DC0101
:10022000CB0188199909AA09BB09883E9340A10509
:10023000B10598F321E0C21AD108E108F10888EE6F
:10024000880E83E0981EA11CB11CC114D104E104E6
:10025000F10419F7FF90EF90DF90CF90BF90AF902F
:100260009F908F9008952FB7F894609157017091E7
:1002700058018091590190915A012FBF0895EF9232
:100280000F931F93F901DA013C912E2D2095322313
:100290003C9330813E293083FC01D80198E080E016
:1002A00030E020E04C914E2189F02A95D9F720E0EA
:1002B0004C914E2159F02A95D9F720E84C914E21C6
:1002C00029F02A95D9F73A9561F717C047E04A9582
:1002D000F1F7000031E0550F4C914E2109F05160CB
:1002E0009A9529F45193839598E0681731F020E8A6
:1002F0004C914E2111F72A95D9F71F910F91EF904C
:1003000008950F931F93F9012081202B2083DA0198
:100310002C91202B2C9320814081202B30E010E069
:100320000095109550E004231523DC015D9148E011
:100330000083550F40F474E07A95F1F720837AE05A
:100340007A95F1F705C07EE07A95F1F700002083F9
:100350004A9529F073E07A95F1F70000E9CF6A95A4
:1003600029F071E07A95F1F70000E0CF72E07A951C
:10037000F1F700000000008374E07A95F1F70000C7
:10038000000020831F910F9108958F929F92AF924A
:10039000BF92CF92DF92EF92FF920F931F93CF9372
:1003A000DF93DB01642F5901F02E282F30E0F90193
:1003B000EC54FF4FE490F901E056FF4F249130E0F8
:1003C000220F331FF901EA56FF4FC591D491F9016D
:1003D000E457FF4FC590D490F901EE57FF4F859039
:1003E0009490F8940E2D9601AE01CD010E948101EA
:1003F00084019601AE016F2DC5010E943F01DF917E
:10040000CF911F910F91FF90EF90DF90CF90BF9011
:10041000AF909F908F9008954F925F926F927F92CE
:100420008F929F92AF92BF92CF92DF92EF92FF9204
:100430000F931F93CF93DF9300D01F92CDB7DEB7FA
:100440003B014A01290190E0FC01EC54FF4FF4907C
:10045000FC01E056FF4F849190E0880F991FFC014A
:10046000EA56FF4FC590D490FC01E457FF4FA5908A
:10047000B490FC01EE57FF4F05911491F894198246
:100480001A821B82EF2C9501A60163E0CE01019632
:100490000E943F018130B9F48981811109C00F2D7B
:1004A0009501A60163E0C3010E94810181E02BC098
:1004B000813411F50F2D9501A6016AE0C4010E9457
:1004C000810182E020C08330B9F489818034A1F4B5
:1004D0008A81833089F40F2D9501A60168E0C2015D
:1004E0000E9481018B818370813041F0823041F024
:1004F000833041F486E007C080E005C084E003C09B
:1005000085E001C083E00F900F900F90DF91CF91B5
:100510001F910F91FF90EF90DF90CF90BF90AF9021
:100520009F908F907F906F905F904F900895CF93A2
:10053000DF93EC011E8E0E943301FE01E759FC4F50
:100540002A8D3B8D621B730B71836083DF91CF918A
:100550000895FC01108E0895FC011192119287E21A
:10056000DF011D928A95E9F70895CF93DF93EC019F
:1005700045960E94AC02CE01CE960E94AC02CE01FE
:1005800089599F4F0E94AC02CE0180579F4F0E9415
:10059000AC02CE0187549F4F0E94AC02CE018E5117
:1005A0009F4F0E94AC02CE01855F9E4F0E94AC021D
:1005B000CE018C5C9E4F0E94AC02CE01835A9E4FAE
:1005C0000E94AC02CE018A579E4F0E94AC02CE011F
:1005D00081559E4F0E94AC02CE0188529E4F0E94D0
:1005E000AC02CE018F5F9D4F0E94AC02CE01865DB2
:1005F0009D4F0E94AC02CE018D5A9D4F0E94AC02CD
:10060000CE0184589D4F0E94AC02CE018B559D4F68
:100610000E94AC02CE0182539D4F0E94AC02CE01DB
:1006200089509D4F0E94AC02CE01805E9C4F0E947B
:10063000AC02C75BDC4F1882DF91CF91089508951B
:100640000895FC0192819D3220F49F5F928381E0A6
:100650000895128280E00895CF93DF93EC01FB01AF
:100660008B81882319F0813061F014C085858B7FE0
:100670008587CE010E94210381110CC081E08B830C
:1006800009C0858584608587CE010E942103811180
:1006900001C01B82DF91CF910895CF93DF93EC01CE
:1006A000FB018C818230C1F0843021F081111DC0AA
:1006B00080E213C08FE78787CE010E94210381115A
:1006C00014C09B81992319F082E08C8301C01C82A5
:1006D00081E089278B8309C08AEE8787CE010E943B
:1006E0002103811102C084E08C83DF91CF910895B2
:1006F0000E94A90A4F925F926F927F928F929F926F
:10070000AF92BF92CF92DF92EF92FF920F931F931F
:10071000CF93DF93CDB7DEB7A7970FB6F894DEBFC0
:100720000FBECDBF8C017B01FC01868D811120C0E5
:10073000E859FC4F1082D8015F9685E1FB010190DA
:100740000D928A95E1F7D801139685E1FB0101909E
:100750000D928A95E1F7F801118E108E0E943301F7
:10076000F801628F738F848F958F81E0868F43C1EC
:1007700088E0F8017096DE011E9601900D928A9530
:10078000E1F7F801C28833899489D588B6887789DA
:1007900088E0F7013D96DE01119601900D928A9551
:1007A000E1F72E85898182278F7009F051C0F7010A
:1007B0006785408921898289A389A488FF855A8118
:1007C0005F27F52FF07509F043C0B0E0AB19B10910
:1007D000B7FF03C0B195A195B1091A97CCF555FDA6
:1007E00037C0EA2DF0E0E71BF109F7FF03C0F195F0
:1007F000E195F1093A9764F570E06C19710977FF9A
:1008000003C07195619571096A3071050CF550E06E
:10081000431B510957FF03C05195419551094A3077
:100820005105B4F430E0291B310937FF03C031957D
:10083000219531092A3031055CF490E08D19910938
:1008400097FF03C09195819591090A970CF4D3C045
:100850000E943301F801228D338D621B730B718F5F
:10086000608F5801F8E9AF1AFCEFBF0AF5019080DC
:10087000F3E1F91508F4BFC0292D30E0F80189E251
:10088000989EE00DF11D112480E090E016AA10AEB4
:1008900017AA019633968D309105C1F789E2829FA0
:1008A000A001839F500D1124F801E40FF51F75ABD3
:1008B00064ABF8018089982F91709B8F81FB9927F9
:1008C00090F99C8F82FB992790F99D8F83FB882755
:1008D00080F98E8F818984FB992790F99F8F86FB01
:1008E000992790F998A3968999A385FB882780F981
:1008F0008AA387898BA382898CA383898DA384890A
:100900008EA385898FA3F7018585982F91709E8787
:1009100081FB992790F99F8782FB992790F9988B03
:1009200083FB882780F9898B868584FB992790F93A
:100930009A8B86FB992790F99B8B93899C8B85FBDF
:10094000882780F98D8B84898E8B87858F8B808912
:10095000888F8189898F82898A8F8DE0E4E0F1E038
:10096000DE01119601900D928A95E1F7DE011E9647
:10097000BE01655E7F4FCE0101962C013B012D919A
:10098000FB018191BF0130E0281B3109E1F0F20148
:100990008080882D90E06C01CC0CDD1CC80ED91E27
:1009A000C40ED51EC00ED11EF60186AA01966C019A
:1009B000CC0CDD1C8C0D9D1D840F951F800F911F8D
:1009C000FC0135AB24ABFFEF4F1A5F0AA615B70544
:1009D000B1F69394F5019082D801139685E1F70161
:1009E00001900D928A95E1F70E943301F801628F20
:1009F000738F848F958FA7960FB6F894DEBF0FBEC6
:100A0000CDBFDF91CF911F910F91FF90EF90DF90BD
:100A1000CF90BF90AF909F908F907F906F905F909E
:100A20004F900895EF92FF920F931F93CF93DF9310
:100A3000CDB7DEB765970FB6F894DEBF0FBECDBF5A
:100A40008C017B010E943301D8015B962D913C9172
:100A50005C97621B730B5A967C936E9359975896CA
:100A60008C9158979096ED91FC919197811123C0AC
:100A700085E1DE01119601900D928A95E1F785E1FD
:100A8000FE013196D801139601900D928A95E1F7F7
:100A9000F801128E118E0E943301D8015B966D937E
:100AA0007D938D939C935E975F961C925F9781E0F8
:100AB00058968C93CBC0D8015F969C91DF01A75BC1
:100AC000BC4F8C91981708F097C0DF0189E2989F7E
:100AD000A00DB11D112455962D913C9156972617C6
:100AE000370708F090C0DF0189E2989FA00DB11D83
:100AF000112420E030E05796EC9157974E2F50E0AC
:100B00004D30510508F065C0FA01EC5CFF4F589676
:100B10008C9158970C948F0AF8014089542F51708A
:100B2000850F80FB40F91AC0F801408941FB552729
:100B300050F9850F80FB41F911C0F801408942FB53
:100B4000552750F9850F80FB42F908C0F80140890C
:100B500043FB552750F9850F80FB43F9408B39C083
:100B6000F801418944FB552750F9850F80FB44F972
:100B700016C0F801418946FB552750F9850F80FBC7
:100B800046F90DC0F8014689840F868B22C0F80112
:100B9000418945FB552750F9850F80FB45F9418B6D
:100BA00018C0F8014789840F878B13C0F801428968
:100BB000840F828B0EC0F8014389840F838B09C098
:100BC000F8014489840F848B04C0F8014589840F9F
:100BD000858B2F5F3F4F13962D30310509F08BCF5A
:100BE0009F5FD8015F969C930E943301F801638F49
:100BF000748F858F968F07C0E65BFC4F8081918153
:100C00006817790700F5D7011E969C911E9793FBF4
:100C1000442740F991FB332730F992FB222720F932
:100C2000F801339685E101900D928A95E1F7F7017D
:100C3000868590FB80F940FB83F930FB81F920FB2E
:100C400082F9868703C0D80158961C9265960FB624
:100C5000F894DEBF0FBECDBFDF91CF911F910F91F2
:100C6000FF90EF900895FF920F931F93CF93DF9320
:100C7000EC01FB018B81882319F0813089F045C09C
:100C800086858F7B868780E2838B8FE78787808B43
:100C9000CE010E942103811138C081E08B8335C0D1
:100CA0008685806486878AEE838B8C8187878D8199
:100CB000808BCE010E942103811127C00E94080A67
:100CC000F82E0E94080A8C0101701127F0FC0EC05A
:100CD000012B11F080E201C08AEE8C830E94080A89
:100CE0006AEC70E00E947B0A8F5D0DC00E94080ACA
:100CF0006AEC70E00E947B0A8F5D8C83012B11F0FF
:100D000080E201C08AEE8D831B82DF91CF911F911B
:100D10000F91FF900895FF920F931F93CF93DF934E
:100D2000EC01FB018B81882319F0813061F03BC01D
:100D30008FE78787808BCE010E942103811133C00A
:100D400081E08B8330C08D8187878E81808BCE013F
:100D50000E942103811127C00E94080AF82E0E94D8
:100D6000080A8C0101701127F0FC0EC0012B11F054
:100D700080E201C08AEE8D830E94080A6AEC70E06E
:100D80000E947B0A8F5D0DC00E94080A6AEC70E029
:100D90000E947B0A8F5D8D83012B11F080E201C0E0
:100DA0008AEE8E831B82DF91CF911F910F91FF906E
:100DB00008951F920F920FB60F9211242F933F9315
:100DC0008F939F93AF93BF93809157019091580158
:100DD000A0915901B0915A013091560123E0230F9F
:100DE0002D3720F40196A11DB11D05C026E8230F63
:100DF0000296A11DB11D2093560180935701909337
:100E00005801A0935901B0935A0180915B019091D0
:100E10005C01A0915D01B0915E010196A11DB11D23
:100E200080935B0190935C01A0935D01B0935E01A0
:100E3000BF91AF919F918F913F912F910F900FBED6
:100E40000F901F901895FC010FB6F8946091D80888
:100E50007091D9088091DA089091DB080FBE309725
:100E600021F0608371838283938308952F923F9250
:100E70004F925F926F927F928F929F92AF92BF92AA
:100E8000CF92DF92EF92FF920F931F93CF93DF9356
:100E9000EEE2F5E0128281E5882E81E0982E9182C3
:100EA0008082E8E2F5E0128299E4A92E91E0B92E61
:100EB000B182A08281E083831482E1E2F5E01282B4
:100EC00021E4C22E21E0D22ED182C08213823AEEDA
:100ED000332E35823682EBE1F5E0128249E3E42ECF
:100EE00041E0F42EF182E082138234823582E7E120
:100EF000F5E0128201E311E0118300831382ECEA32
:100F0000F1E0128259E2652E51E0752E7182608205
:100F100065E1262EAFEAB1E0ED01822D19928A95A6
:100F2000E9F7118E108E128E138E148E158E168E7A
:100F30008BEC91E00E94B502EAE8F1E0128271E2E6
:100F4000472E71E0572E51824082ADE8B1E0ED01AD
:100F5000822D19928A95E9F7108E128E118E138EBA
:100F6000148E158E168E178E8BEC91E091A380A3B4
:100F700083E08093890184E080937301EFE5F1E0E1
:100F80001082118212821382148285838091110152
:100F900090911201A0911301B0911401868397835F
:100FA000A087B187C1E3D5E0D387C28780911501BF
:100FB00090911601A0911701B0911801848795872F
:100FC000A687B787A3E5B5E0B18BA08B85ED98E048
:100FD000938B828BFC01128291828082EFECF8E08D
:100FE0001282B182A08281E083831482E8ECF8E06F
:100FF0001282D182C082138235823682E2ECF8E01E
:101000001282F182E082138234823582EEEBF8E0C4
:10101000128211830083138212961C9212971196EA
:101020007C926E9226E535E0F901822D11928A9527
:10103000E9F759961C921E9258975A961D921D9246
:101040001D921C925D975E961C9282E795E00E942D
:10105000B5021A8259824882E4E3F5E0DF011D926D
:101060002A94E9F7188E1A8E198E1B8E1C8E1D8EEF
:101070001E8E1F8E82E795E099A388A3DF91CF9102
:101080001F910F91FF90EF90DF90CF90BF90AF90A6
:101090009F908F907F906F905F904F903F902F9098
:1010A0000895CF93DF93CDB7DEB765970FB6F89469
:1010B000DEBF0FBECDBF789484B5826084BD84B599
:1010C000816084BD85B5826085BD85B5816085BD43
:1010D00080916E00816080936E00109281008091FB
:1010E0008100826080938100809181008160809383
:1010F0008100809180008160809380008091B100A8
:1011000084608093B1008091B00081608093B000D2
:1011100080917A00846080937A0080917A00826066
:1011200080937A0080917A00816080937A00809128
:101130007A00806880937A001092C10080E090E08D
:101140000E942307CB010E940D0AE1ECF0E02491FC
:10115000EDEAF0E08491882399F090E0880F991FE0
:10116000FC01EA56FF4FA591B491FC01E457FF4FF3
:10117000859194918FB7F894EC91E22BEC938FBF0B
:1011800080E0E82E80E0F82E11E490E4D92E8091E2
:10119000740190917501892BB9F09091760193FBC0
:1011A000992790F980918901D98223E02A839B8332
:1011B00008E021E831E043E0BE016F5F7F4F0E940D
:1011C000C501883029F10EC080918901198203E0A0
:1011D00024E731E041E0BE016F5F7F4F0E94C5010F
:1011E000833039F0109274011092750110927601DB
:1011F000C0C08091890119830AE027E731E041E00E
:10120000BE016F5F7F4F0E94C5018A3031F2B1C0CD
:101210008091810185FDE6CF85E1E4E7F1E0DE0123
:10122000119601900D928A95E1F78F85982F917014
:1012300080FF03C090935F010DC080915F01882300
:1012400049F010925F014CE151E065E671E080E009
:101250000E948F008F8583FB992790F983FF03C03D
:10126000909360010DC080916001882349F0109235
:1012700060014BE151E069E671E081E00E948F007E
:101280008F8581FB992790F981FF03C090936101BD
:101290000DC080916101882349F0109261014AE1FB
:1012A00051E06BE671E082E00E948F008F8582FB47
:1012B000992790F982FF03C0909362010DC080913D
:1012C0006201882349F01092620149E151E06FE622
:1012D00071E083E00E948F00809171019091720112
:1012E000DC01ED91FC910190F081E02DBE016F5F7A
:1012F0007F4F09958F85847F8B7F8F878E8585FDB6
:1013000038C00FB7F8949E01225F3F4FAE014C5F8B
:101310005F4FBE016F5F7F4F809173010E940C028F
:10132000813069F49E01225F3F4FAE014C5F5F4FF9
:10133000BE016F5F7F4F809173010E940C0282306B
:1013400069F49E01225F3F4FAE014C5F5F4FBE01CB
:101350006F5F7F4F809173010E940C020FBF83501B
:10136000833038F4E114F10409F411CF0E94000035
:101370000ECF0E94FC00F6CF8F929F92AF92BF9249
:10138000CF92DF92EF92FF92CF93DF93EC016881CF
:1013900079818A819B81611571058105910521F40F
:1013A00064E279ED8BE597E02DE133EF41E050E029
:1013B0000E94180A49015A019B01AC01A7EAB1E455
:1013C0000E94370A6B017C01ACEEB4EFA5019401D9
:1013D0000E94450ADC01CB018C0D9D1DAE1DBF1D79
:1013E000B7FF03C00197A109B04888839983AA83F6
:1013F000BB839F77DF91CF91FF90EF90DF90CF90ED
:10140000BF90AF909F908F9008950E94BC0908955F
:1014100080E091E00E94BC090895A0E0B0E08093D4
:10142000000190930101A0930201B093030108957C
:10143000052E97FB1EF400940E942F0A57FD07D03B
:101440000E944A0A07FC03D04EF40C942F0A5095D0
:101450004095309521953F4F4F4F5F4F08959095A0
:101460008095709561957F4F8F4F9F4F08950E9493
:101470006C0AA59F900DB49F900DA49F800D911DA7
:1014800011240895B7FF0C94370A0E94370A821B73
:10149000930B0895A1E21A2EAA1BBB1BFD010DC0E0
:1014A000AA1FBB1FEE1FFF1FA217B307E407F50714
:1014B00020F0A21BB30BE40BF50B661F771F881FF0
:1014C000991F1A9469F760957095809590959B0186
:1014D000AC01BD01CF010895A29FB001B39FC0012F
:1014E000A39F700D811D1124911DB29F700D811D50
:1014F0001124911D089597FB072E16F4009407D030
:1015000077FD09D00E94950A07FC05D03EF490951E
:1015100081959F4F0895709561957F4F0895EE0FC7
:10152000FF1F0590F491E02D0994AA1BBB1B51E10C
:1015300007C0AA1FBB1FA617B70710F0A61BB70B43
:10154000881F991F5A95A9F780959095BC01CD01E8
:10155000089581E090E0F8940C94AE0AF894FFCFDF
:1015600001000000000102030804050607090A0B38
:101570000CCF08C808BE08C2080102010200000022
:10158000001205A902000000007A03970200000083
:10159000002C031F030000000033061F030000009F
:1015A000008B061F03000000004D031F0300000016
:0615B0000020031F0300F0
:00000001FF
