:100000000C9485000C94AD000C94AD000C94AD00E4
:100010000C94AD000C94AD000C94AD000C94AD00AC
:100020000C94AD000C94AD000C94AD000C94AD009C
:100030000C94AD000C94AD000C94AD000C94AD008C
:100040000C94C2040C94AD000C9432050C940C0575
:100050000C94AD000C94AD000C94AD000C94AD006C
:100060000C94AD000C94AD000000000023002600AD
:10007000290000000000240027002A004572726F4A
:10008000722072656164696E672047616D65637592
:10009000626520636F6E74726F6C6C65722E0045C2
:1000A00072726F722077726974696E672047616D32
:1000B000656375626520636F6E74726F6C6C6572D8
:1000C0002E0000000000250028002B00040404047A
:1000D00004040404020202020202030303030303F2
:1000E00001020408102040800102040810200102CF
:1000F00004081020000000080002010000030407AB
:100100000000000000000000770511241FBECFEFA3
:10011000D8E0DEBFCDBF11E0A0E0B1E0E2EEF2E159
:1001200002C005900D92A635B107D9F722E0A6E5E9
:10013000B1E001C01D92AF31B207E1F710E0C5E8B0
:10014000D0E004C02197FE010E944308C438D107C3
:10015000C9F70E94AA050C946F090C940000E1E015
:10016000F1E09491EDEEF0E02491E9EDF0E0E4911E
:10017000EE2309F43CC0992339F1933091F038F41F
:100180009130A9F0923001F594B59F7D12C097305F
:1001900091F09830A1F09430B9F4909180009F7D57
:1001A00003C0909180009F77909380000DC094B51C
:1001B0009F7794BD09C09091B0009F7703C0909144
:1001C000B0009F7D9093B000F0E0EE0FFF1FEE5364
:1001D000FF4FA591B4919FB7F894811104C08C9101
:1001E0002095282302C0EC912E2B2C939FBF0895BD
:1001F0003FB7F89480915F0190916001A0916101F7
:10020000B091620126B5A89B05C02F3F19F0019659
:10021000A11DB11D3FBFBA2FA92F982F8827820F8C
:10022000911DA11DB11DBC01CD0142E0660F771FDC
:10023000881F991F4A95D1F708958F929F92AF9288
:10024000BF92CF92DF92EF92FF920E94F8004B0193
:100250005C0188EEC82E83E0D82EE12CF12C0E94A0
:10026000F800DC01CB0188199909AA09BB09883E6D
:100270009340A105B10598F321E0C21AD108E10825
:10028000F10888EE880E83E0981EA11CB11CC114F1
:10029000D104E104F10419F7FF90EF90DF90CF90C3
:1002A000BF90AF909F908F900895CF92DF92EF9282
:1002B000FF920F931F93CF93DF936C017A018B0111
:1002C000C0E0D0E0CE15DF0581F0D8016D918D0141
:1002D000D601ED91FC910190F081E02DC6010995C8
:1002E000892B11F02196EECF7E01C701DF91CF91CE
:1002F0001F910F91FF90EF90DF90CF90089542E013
:1003000050E062E571E083E691E00C9455010895B8
:1003100080E090E00895FC01538D448D252F30E05E
:10032000842F90E0821B930B541710F0CF96089502
:1003300001970895FC01918D828D981761F0828D4F
:10034000DF01A80FB11D5D968C91928D9F5F9F7309
:10035000928F90E008958FEF9FEF0895FC01918DAB
:10036000828D981731F0828DE80FF11D858D90E018
:1003700008958FEF9FEF0895FC01918D228D892FB5
:1003800090E0805C9F4F821B91098F73992708959D
:1003900083E691E00E94BC0121E0892B09F420E072
:1003A000822F0895FC01848DDF01A80FB11DA35A8F
:1003B000BF4F2C91848D90E001968F739927848F85
:1003C000A689B7892C93A089B1898C9183708064A8
:1003D0008C93938D848D981306C00288F389E02D49
:1003E00080818F7D80830895EF92FF920F931F93FA
:1003F000CF93DF93EC0181E0888F9B8D8C8D9813D8
:1004000005C0E889F989808185FD26C0F62E0B8D0F
:1004100010E00F5F1F4F0F731127E02E8C8DE81235
:100420000CC00FB607FCFACFE889F989808185FFF7
:10043000F5CFCE010E94D201F1CF8B8DFE01E80FE6
:10044000F11DE35AFF4FF0829FB7F8940B8FEA89B2
:10045000FB89808180620AC09FB7F894EE89FF898A
:100460006083E889F98980818370806480839FBF7D
:1004700081E090E0DF91CF911F910F91FF90EF907D
:1004800008950F931F93CF93DF938C01C0E0D0E0CA
:10049000F801EC0FFD1F6491662341F083E691E0C3
:1004A0000E94F401892B11F02196F2CFCE01DF9149
:1004B000CF911F910F910895CF93DF93EC01888D19
:1004C0008823C9F0EA89FB89808185FD05C0A88958
:1004D000B9898C9186FD0FC00FB607FCF5CF8081DE
:1004E00085FFF2CFA889B9898C9185FFEDCFCE0128
:1004F0000E94D201E7CFDF91CF91089580E090E094
:10050000892B29F00E94C80181110C9400000895E4
:10051000EF920F931F93F901DA013C912E2D209554
:1005200032233C9330813E293083FC01D80198E08E
:1005300080E030E020E04C914E2189F02A95D9F7F7
:1005400020E04C914E2159F02A95D9F720E84C91A2
:100550004E2129F02A95D9F73A9561F717C047E05F
:100560004A95F1F7000031E0550F4C914E2109F00A
:1005700051609A9529F45193839598E0681731F06A
:1005800020E84C914E2111F72A95D9F71F910F9130
:10059000EF9008950F931F93F9012081202B208362
:1005A000DA012C91202B2C9320814081202B30E0EC
:1005B00010E00095109550E004231523DC015D91B7
:1005C00048E00083550F40F474E07A95F1F72083FA
:1005D0007AE07A95F1F705C07EE07A95F1F70000B0
:1005E00020834A9529F073E07A95F1F70000E9CF6E
:1005F0006A9529F071E07A95F1F70000E0CF72E09A
:100600007A95F1F700000000008374E07A95F1F725
:100610000000000020831F910F9108957F928F9218
:100620009F92AF92BF92CF92DF92EF92FF920F9381
:100630001F93CF93DF93DB01642F5901F02E282FF6
:1006400030E0F901E052FF4FE490F901E453FF4F2D
:10065000249130E0220F331FF901EE58FF4FC5916E
:10066000D491F901EE53FF4FC590D490F901E859A8
:10067000FF4F859094907FB6F8940E2D9601AE01B1
:10068000CD010E94CA0284019601AE016F2DC50101
:100690000E9488027FBEDF91CF911F910F91FF9042
:1006A000EF90DF90CF90BF90AF909F908F907F9012
:1006B00008953F924F925F926F927F928F929F9296
:1006C000AF92BF92CF92DF92EF92FF920F931F9360
:1006D000CF93DF9300D01F92CDB7DEB73B014A0125
:1006E000290190E0FC01E052FF4FF490FC01E4533B
:1006F000FF4F849190E0880F991FFC01EE58FF4F47
:10070000C590D490FC01EE53FF4FA590B490FC012E
:10071000E859FF4F059114913FB6F89419821A8257
:100720001B82EF2C9501A60163E0CE0101960E9489
:1007300088028130B9F48981811109C00F2D95019A
:10074000A60163E0C3010E94CA0281E02BC081348C
:1007500011F50F2D9501A6016AE0C4010E94CA029D
:1007600082E020C08330B9F489818034A1F48A8189
:10077000833089F40F2D9501A60168E0C2010E9423
:10078000CA028B818370813041F0823041F0833026
:1007900041F486E007C080E005C084E003C085E046
:1007A00001C083E03FBE0F900F900F90DF91CF917B
:1007B0001F910F91FF90EF90DF90CF90BF90AF907F
:1007C0009F908F907F906F905F904F903F90089593
:1007D000FC01A481B581109729F4A281B3818D9188
:1007E0009C9104C014968D919C911597009721F0CF
:1007F0009583848381E0089580E00895FC0115824B
:1008000014820895FC0184819581009719F0FC0100
:1008100080819181089508950895FC01DB01828112
:100820001D969C911D97882311F09B7F01C09460B9
:100830001D969C93928181E0892782830895089573
:10084000FC0182819381009749F48AEEDB011F96B7
:100850008C9382E090E0938382830895029731F431
:1008600080E2DB011F968C931382128208950F930E
:100870001F93CF93DF93EC018B0186E090E00E9401
:100880004908FC01138212821582148211830083AD
:1008900088819981892B29F4FB83EA83F983E88392
:1008A0000AC0AA81BB81B383A2831596FC93EE9301
:1008B0001497FB83EA83DF91CF911F910F910895E5
:1008C0000E946A090C94E108EF92FF920F931F9324
:1008D000CF93DF938C01EB01FC018281882341F0EF
:1008E0008E858F7B8E8780E28B8B8FE78F871CC0F6
:1008F00080E090E00E946405CB010E94AD078E85E8
:1009000080648E878AEE8B8B0E94A8072AECE22EE9
:10091000F12CB7010E941B088F5D8F870E94A807EA
:10092000B7010E941B088F5D888BF801928181E0DE
:1009300089278283DF91CF911F910F91FF90EF90D4
:1009400008950F931F93CF93DF93EB0180E090E026
:100950000E946405CB010E94AD070E94A8070AEC23
:1009600010E0B8010E941B088F5D8F870E94A807C6
:10097000B8010E941B088F5D888BDF91CF911F917A
:100980000F9108951F920F920FB60F9211242F937B
:100990003F938F939F93AF93BF9380915B0190910F
:1009A0005C01A0915D01B0915E0130915A0123E09C
:1009B000230F2D3720F40196A11DB11D05C026E897
:1009C000230F0296A11DB11D20935A0180935B0154
:1009D00090935C01A0935D01B0935E0180915F01F3
:1009E00090916001A0916101B09162010196A11DF9
:1009F000B11D80935F0190936001A0936101B0935A
:100A00006201BF91AF919F918F913F912F910F9074
:100A10000FBE0F901F9018951F920F920FB60F9256
:100A200011242F933F934F935F936F937F938F93F3
:100A30009F93AF93BF93EF93FF9383E691E00E9460
:100A4000D201FF91EF91BF91AF919F918F917F91D3
:100A50006F915F914F913F912F910F900FBE0F902B
:100A60001F9018951F920F920FB60F9211242F937B
:100A70008F939F93EF93FF93E0917301F091740133
:100A80008081E0917901F0917A0182FD12C090811C
:100A900080917C018F5F8F7320917D01821751F0CF
:100AA000E0917C01F0E0ED59FE4F958F80937C0141
:100AB00001C08081FF91EF919F918F912F910F90B5
:100AC0000FBE0F901F901895FC010FB6F89460911F
:100AD0001702709118028091190290911A020FBEAC
:100AE000309721F060837183828393830895E3E6D6
:100AF000F1E01382128288EE93E0A0E0B0E08483FC
:100B00009583A683B78384E491E09183808385EC09
:100B100090E09587848784EC90E09787868780ECC7
:100B200090E0918B808B81EC90E0938B828B82ECB8
:100B300090E0958B848B86EC90E0978B868B118E62
:100B4000128E138E148E83E08093160285E08093BC
:100B500000020895CF93DF9300D01F92CDB7DEB788
:100B6000789484B5826084BD84B5816084BD85B588
:100B7000826085BD85B5816085BD80916E00816094
:100B800080936E001092810080918100826080933A
:100B9000810080918100816080938100809180003C
:100BA0008160809380008091B10084608093B10067
:100BB0008091B00081608093B00080917A00846061
:100BC00080937A0080917A00826080937A0080918D
:100BD0007A00816080937A0080917A0080688093A7
:100BE0007A001092C10084E090E00E9449088C01D4
:100BF000FC0111821082138212829093590180931A
:100C0000580182E090E00E9449082CE331E0FC01A9
:100C100031832083BC01C8010E94370484E090E046
:100C20000E9449082EE031E0FC01318320831382C9
:100C30001282BC01C8010E94370482E090E00E9449
:100C4000490824E331E0FC0131832083BC01C80161
:100C50000E94370486E090E00E944908FC0146E2C9
:100C6000E42E41E0F42EF182E08215821482138397
:100C7000028384E090E00E9449088C01FC0111820B
:100C8000108213821282909357018093560182E062
:100C900090E00E9449082CE331E0FC01318320837D
:100CA000BC01C8010E94370483E090E00E9449081B
:100CB00026E131E0FC01318320831282BC01C801AE
:100CC0000E94370483E090E00E9449082EE131E061
:100CD000FC01318320831282BC01C8010E943704C9
:100CE00086E090E00E944908FC01F182E0821582D2
:100CF000148213830283EDEEF0E02491E9EDF0E03D
:100D00008491882399F090E0880F991FFC01EE5898
:100D1000FF4FA591B491FC01EE53FF4F8591949143
:100D20008FB7F894EC91E22BEC938FBFE0917301B5
:100D3000F091740182E08083E0916F01F091700185
:100D40001082E0917101F091720180E18083109234
:100D50007B01E0917701F091780186E08083E0915A
:100D60007501F0917601808180618083E091750149
:100D7000F0917601808188608083E0917501F09127
:100D80007601808180688083E0917501F091760121
:100D900080818F7D808311E480E4F82E80910102B0
:100DA00090910202892BB9F09091030293FB99274D
:100DB00090F980911602F98223E02A839B8308E050
:100DC0002EE032E043E0BE016F5F7F4F0E940E03D2
:100DD000883029F10EC080911602198203E021E0CB
:100DE00032E041E0BE016F5F7F4F0E940E0383300F
:100DF00039F01092010210920202109203024BC0CD
:100E00008091160219830AE024E032E041E0BE013D
:100E10006F5F7F4F0E940E038A3031F23CC0809199
:100E20000E0285FDE6CF0FB7F8942EE032E044E0E5
:100E300052E061E072E0809100020E94590381302B
:100E400051F42EE032E044E052E061E072E0809143
:100E500000020E945903823051F42EE032E044E057
:100E600052E061E072E0809100020E9459030FBFDE
:100E7000833021F480910302877F05C0843031F4F0
:100E80008091030288608093030210C0853091F343
:100E90008FE990E002C08CE790E00E9441020E943E
:100EA0007F0181E00E94AF000E941D0180E00E944E
:100EB000AF000E947E0272CF8F929F92AF92BF923C
:100EC000CF92DF92EF92FF92CF93DF93EC01688194
:100ED00079818A819B81611571058105910521F4D4
:100EE00064E279ED8BE597E02DE133EF41E050E0EE
:100EF0000E94B80749015A019B01AC01A7EAB1E47D
:100F00000E94D7076B017C01ACEEB4EFA501940100
:100F10000E94E507DC01CB018C0D9D1DAE1DBF1DA0
:100F2000B7FF03C00197A109B04888839983AA83BA
:100F3000BB839F77DF91CF91FF90EF90DF90CF90B1
:100F4000BF90AF909F908F9008950E945C07089586
:100F500080E091E00E945C070895A0E0B0E08093FB
:100F6000000190930101A0930201B0930301089541
:100F7000052E97FB1EF400940E94CF0757FD07D063
:100F80000E94EA0707FC03D04EF40C94CF0750955B
:100F90004095309521953F4F4F4F5F4F0895909565
:100FA0008095709561957F4F8F4F9F4F08950E9458
:100FB0000C08A59F900DB49F900DA49F800D911DCE
:100FC00011240895B7FF0C94D7070E94D707821BFE
:100FD000930B0895A1E21A2EAA1BBB1BFD010DC0A5
:100FE000AA1FBB1FEE1FFF1FA217B307E407F507D9
:100FF00020F0A21BB30BE40BF50B661F771F881FB5
:10100000991F1A9469F760957095809590959B014A
:10101000AC01BD01CF010895A29FB001B39FC001F3
:10102000A39F700D811D1124911DB29F700D811D14
:101030001124911D089597FB072E16F4009407D0F4
:1010400077FD09D00E942F0807FC05D03EF490954B
:1010500081959F4F0895709561957F4F0895AA1BC4
:10106000BB1B51E107C0AA1FBB1FA617B70710F093
:10107000A61BB70B881F991F5A95A9F780959095C5
:10108000BC01CD010895EE0FFF1F0590F491E02DF6
:1010900009940F931F93CF93DF938230910510F43F
:1010A00082E090E0E0911D02F0911E0220E030E02D
:1010B000A0E0B0E0309719F14081518102811381A5
:1010C00048175907C8F08417950769F4109731F04D
:1010D00012960C93129713961C9327C000931D022F
:1010E00010931E0222C02115310519F04217530733
:1010F00018F49A01BD01EF01DF01F801DBCF2115E2
:101100003105F9F0281B390B2430310580F48A8130
:101110009B816115710521F0FB019383828304C0DB
:1011200090931E0280931D02FE01329644C0FE0180
:10113000E20FF31F81939193225031093983288361
:101140003AC020911B0230911C02232B41F42091C4
:1011500006013091070130931C0220931B0220915D
:101160000401309105012115310541F42DB73EB739
:101170004091080150910901241B350BE0911B029D
:10118000F0911C02E217F307A0F42E1B3F0B281767
:10119000390778F0AC014E5F5F4F2417350748F0F0
:1011A0004E0F5F1F50931C0240931B02819391933B
:1011B00002C0E0E0F0E0CF01DF91CF911F910F91ED
:1011C0000895CF93DF93009709F481C0FC01329713
:1011D00013821282A0911D02B0911E02109781F419
:1011E00020813181820F931F20911B0230911C02BC
:1011F0002817390751F5F0931C02E0931B0267C0D2
:10120000ED0120E030E0CE17DF0740F44A815B813A
:101210009E0141155105F1F0EA01F5CFD383C28358
:1012200040815181840F951FC817D90759F48881CF
:101230009981840F951F0296918380838A819B8177
:10124000938382832115310529F4F0931E02E093E4
:101250001D023DC0E901FB83EA8349915991C40F06
:10126000D51FEC17FD0761F480819181840F951FD4
:101270000296E90199838883828193819B838A8383
:10128000E0E0F0E012968D919C911397009719F091
:10129000FD01DC01F7CF8D919C9111979D012E5F8F
:1012A0003F4F820F931F20911B0230911C02281781
:1012B000390769F4309729F410921E0210921D022A
:1012C00002C013821282B0931C02A0931B02DF9112
:1012D000CF91089581E090E0F8940C946F09F89410
:0212E000FFCF3E
:1012E2000100000000001F02800000000000200436
:1012F2000C04000000000D040C0400000000640453
:101302000C04000000000B0462040204FE03E80364
:1013120000000000A1040C04000000001F040C04E3
:1013220000000000F40155018B015C02BC019A012E
:06133200AE010D0A0000EF
:00000001FF
