:100000000C9486000C94AE000C94AE000C94AE00E0
:100010000C94AE000C94AE000C94AE000C94AE00A8
:100020000C94AE000C94AE000C94AE000C94AE0098
:100030000C94AE000C94AE000C94AE000C94AE0088
:100040000C947F050C94AE000C94EF050C94C9053C
:100050000C94AE000C94AE000C94AE000C94AE0068
:100060000C94AE000C94AE000000000023002600AB
:10007000290000000000240027002A004572726F4A
:10008000722072656164696E672047616D65637592
:10009000626520636F6E74726F6C6C65722E0045C2
:1000A00072726F722077726974696E672047616D32
:1000B000656375626520636F6E74726F6C6C6572D8
:1000C0002E0000000000250028002B00040404047A
:1000D00004040404020202020202030303030303F2
:1000E00001020408102040800102040810200102CF
:1000F00004081020000000080002010000030407AB
:1001000000000000000000003406D70811241FBEC4
:10011000CFEFD8E0DEBFCDBF11E0A0E0B1E0EEE070
:10012000F6E102C005900D92AA39B107D9F722E095
:10013000AAE9B1E001C01D92AD37B207E1F710E0C6
:10014000C5E8D0E004C02197FE010E94CE09C43862
:10015000D107C9F70E9467060C94FA0A0C940000B4
:10016000EF92FF920F931F93CF93DF93813019F497
:10017000DB018C9341C0FB0180818823E9F1E90117
:100180008A017B018091BF019091C001DC01ED915A
:10019000FC910680F781E02D09958091BF01909137
:1001A000C001D801ED91FC91309791F0208131810F
:1001B0008217930721F00480F581E02DF5CFE881C7
:1001C000F9810084F185E02DCE010995811107C0E8
:1001D000E881F9810680F781E02DCE010995E8815B
:1001E000F9810480F581E02DCE0109959093C0013D
:1001F0008093BF01F7011082DF91CF911F910F9182
:10020000FF90EF900895E1E0F1E09491EDEEF0E0E1
:100210002491E9EDF0E0E491EE2309F43CC0992348
:1002200039F1933091F038F49130A9F0923001F522
:1002300094B59F7D12C0973091F09830A1F0943022
:10024000B9F4909180009F7D03C0909180009F77CA
:10025000909380000DC094B59F7794BD09C0909194
:10026000B0009F7703C09091B0009F7D9093B00045
:10027000F0E0EE0FFF1FEE53FF4FA591B4919FB733
:10028000F894811104C08C912095282302C0EC9130
:100290002E2B2C939FBF08953FB7F8948091BB01FC
:1002A0009091BC01A091BD01B091BE0126B5A89B63
:1002B00005C02F3F19F00196A11DB11D3FBFBA2FF8
:1002C000A92F982F8827820F911DA11DB11DBC0158
:1002D000CD0142E0660F771F881F991F4A95D1F71D
:1002E00008958F929F92AF92BF92CF92DF92EF923A
:1002F000FF920E944C014B015C0188EEC82E83E006
:10030000D82EE12CF12C0E944C01DC01CB01881984
:100310009909AA09BB09883E9340A105B10598F344
:1003200021E0C21AD108E108F10888EE880E83E0C6
:10033000981EA11CB11CC114D104E104F10419F7E9
:10034000FF90EF90DF90CF90BF90AF909F908F90F5
:100350000895CF92DF92EF92FF920F931F93CF9366
:10036000DF936C017A018B01C0E0D0E0CE15DF0590
:1003700081F0D8016D918D01D601ED91FC91019034
:10038000F081E02DC6010995892B11F02196EECF61
:100390007E01C701DF91CF911F910F91FF90EF90E8
:1003A000DF90CF90089542E050E066E971E081EC83
:1003B00091E00C94A901089580E090E00895FC017B
:1003C000538D448D252F30E0842F90E0821B930BBA
:1003D000541710F0CF96089501970895FC01918D60
:1003E000828D981761F0828DDF01A80FB11D5D9697
:1003F0008C91928D9F5F9F73928F90E008958FEF05
:100400009FEF0895FC01918D828D981731F0828DB8
:10041000E80FF11D858D90E008958FEF9FEF08950F
:10042000FC01918D228D892F90E0805C9F4F821B73
:1004300091098F739927089581EC91E00E94100231
:1004400021E0892B09F420E0822F0895FC01848D9E
:10045000DF01A80FB11DA35ABF4F2C91848D90E0EE
:1004600001968F739927848FA689B7892C93A089C9
:10047000B1898C91837080648C93938D848D981353
:1004800006C00288F389E02D80818F7D80830895E6
:10049000EF92FF920F931F93CF93DF93EC0181E0D4
:1004A000888F9B8D8C8D981305C0E889F989808190
:1004B00085FD26C0F62E0B8D10E00F5F1F4F0F73CA
:1004C0001127E02E8C8DE8120CC00FB607FCFACF76
:1004D000E889F989808185FFF5CFCE010E94260247
:1004E000F1CF8B8DFE01E80FF11DE35AFF4FF08233
:1004F0009FB7F8940B8FEA89FB89808180620AC0DC
:100500009FB7F894EE89FF896083E889F989808133
:100510008370806480839FBF81E090E0DF91CF9102
:100520001F910F91FF90EF9008950F931F93CF931A
:10053000DF938C01C0E0D0E0F801EC0FFD1F649167
:10054000662341F081EC91E00E944802892B11F072
:100550002196F2CFCE01DF91CF911F910F91089597
:10056000CF93DF93EC01888D8823C9F0EA89FB895A
:10057000808185FD05C0A889B9898C9186FD0FC051
:100580000FB607FCF5CF808185FFF2CFA889B98926
:100590008C9185FFEDCFCE010E942602E7CFDF913F
:1005A000CF91089580E090E0892B29F00E941C02F1
:1005B00081110C9400000895EF920F931F93F9019D
:1005C000DA013C912E2D209532233C9330813E2937
:1005D0003083FC01D80198E080E030E020E04C91CD
:1005E0004E2189F02A95D9F720E04C914E2159F0FF
:1005F0002A95D9F720E84C914E2129F02A95D9F770
:100600003A9561F717C047E04A95F1F7000031E0ED
:10061000550F4C914E2109F051609A9529F4519350
:10062000839598E0681731F020E84C914E2111F73E
:100630002A95D9F71F910F91EF9008950F931F936B
:10064000F9012081202B2083DA012C91202B2C937F
:1006500020814081202B30E010E00095109550E083
:1006600004231523DC015D9148E00083550F40F41D
:1006700074E07A95F1F720837AE07A95F1F705C076
:100680007EE07A95F1F7000020834A9529F073E027
:100690007A95F1F70000E9CF6A9529F071E07A9533
:1006A000F1F70000E0CF72E07A95F1F7000000006A
:1006B000008374E07A95F1F70000000020831F9119
:1006C0000F9108957F928F929F92AF92BF92CF9297
:1006D000DF92EF92FF920F931F93CF93DF93DB0193
:1006E000642F5901F02E282F30E0F901E052FF4F1E
:1006F000E490F901E453FF4F249130E0220F331FBF
:10070000F901EE58FF4FC591D491F901EE53FF4F17
:10071000C590D490F901E859FF4F859094907FB629
:10072000F8940E2D9601AE01CD010E941E038401A6
:100730009601AE016F2DC5010E94DC027FBEDF91E4
:10074000CF911F910F91FF90EF90DF90CF90BF90CE
:10075000AF909F908F907F9008953F924F925F92BD
:100760006F927F928F929F92AF92BF92CF92DF92C1
:10077000EF92FF920F931F93CF93DF9300D01F92BE
:10078000CDB7DEB73B014A01290190E0FC01E05200
:10079000FF4FF490FC01E453FF4F849190E0880FE9
:1007A000991FFC01EE58FF4FC590D490FC01EE5309
:1007B000FF4FA590B490FC01E859FF4F05911491AB
:1007C0003FB6F89419821A821B82EF2C9501A6017C
:1007D00063E0CE0101960E94DC028130B9F4898188
:1007E000811109C00F2D9501A60163E0C3010E948C
:1007F0001E0381E02BC0813411F50F2D9501A60158
:100800006AE0C4010E941E0382E020C08330B9F474
:1008100089818034A1F48A81833089F40F2D950178
:10082000A60168E0C2010E941E038B8183708130A3
:1008300041F0823041F0833041F486E007C080E02F
:1008400005C084E003C085E001C083E03FBE0F9097
:100850000F900F90DF91CF911F910F91FF90EF902C
:10086000DF90CF90BF90AF909F908F907F906F90D0
:100870005F904F903F9008950895089508950895CA
:100880000895FC01A481B581109729F4A281B38158
:100890008D919C9104C014968D919C911597009711
:1008A00021F09583848381E0089580E00895FC0120
:1008B000158214820895FC0184819581009719F0B6
:1008C000FC018081918108950895FC01DB01828102
:1008D0001D969C911D97882311F09B7F01C0946009
:1008E0001D969C93928181E08927828308950895C3
:1008F0000895089508950895FC01828193810097D9
:1009000049F48AEEDB011F968C9382E090E093839A
:1009100082830895029731F480E2DB011F968C9365
:10092000138212820895CF93DF93EC0186E090E06A
:100930000E94D4092EE031E0FC013183208315822E
:100940001482D383C283DF91CF9108950F931F93B5
:10095000CF93DF93EC018B0186E090E00E94D409F5
:10096000FC01138212821582148211830083888114
:100970009981892B29F4FB83EA83F983E8830AC0F0
:10098000AA81BB81B383A2831596FC93EE9314973F
:10099000FB83EA83DF91CF911F910F9108950E940D
:1009A000F50A0C946C0A0C946C0A0F931F93CF9366
:1009B000DF93EC0188819981009739F0FC01048173
:1009C00015810E946C0AC801F7CF1B821A82198216
:1009D0001882DF91CF911F910F910895CF93DF93EC
:1009E000EC0180E491E0998388838A819B810E9455
:1009F0006C0A0E80DF81C02D209741F0CE010E944D
:100A0000D504CE01DF91CF910C946C0ADF91CF9188
:100A10000895CF93DF93EC010E94EE04CE01DF91A5
:100A2000CF910C946C0A0C946C0A0C946C0A0C9484
:100A30006C0A0C946C0A0C946C0A0C946C0A0C945E
:100A40006C0AEF92FF920F931F93CF93DF938C0169
:100A5000EB01FC018281882341F08E858F7B8E879C
:100A600080E28B8B8FE78F871CC080E090E00E9434
:100A70002106CB010E9438098E8580648E878AEE1C
:100A80008B8B0E9433092AECE22EF12CB7010E94D5
:100A9000A6098F5D8F870E943309B7010E94A609BE
:100AA0008F5D888BF801928181E089278283DF91B5
:100AB000CF911F910F91FF90EF9008950F931F9387
:100AC000CF93DF93EB0180E090E00E942106CB0101
:100AD0000E9438090E9433090AEC10E0B8010E9414
:100AE000A6098F5D8F870E943309B8010E94A6096D
:100AF0008F5D888BDF91CF911F910F9108951F9289
:100B00000F920FB60F9211242F933F938F939F93C1
:100B1000AF93BF938091B7019091B801A091B901B3
:100B2000B091BA013091B60123E0230F2D3720F4A4
:100B30000196A11DB11D05C026E8230F0296A11D37
:100B4000B11D2093B6018093B7019093B801A09393
:100B5000B901B093BA018091BB019091BC01A09101
:100B6000BD01B091BE010196A11DB11D8093BB01D5
:100B70009093BC01A093BD01B093BE01BF91AF9112
:100B80009F918F913F912F910F900FBE0F901F90CB
:100B900018951F920F920FB60F9211242F933F9327
:100BA0004F935F936F937F938F939F93AF93BF9375
:100BB000EF93FF9381EC91E00E942602FF91EF9169
:100BC000BF91AF919F918F917F916F915F914F9165
:100BD0003F912F910F900FBE0F901F9018951F926D
:100BE0000F920FB60F9211242F938F939F93EF9331
:100BF000FF93E091D101F091D2018081E091D70182
:100C0000F091D80182FD12C090818091DA018F5F4E
:100C10008F732091DB01821751F0E091DA01F0E04F
:100C2000EF53FE4F958F8093DA0101C08081FF91D1
:100C3000EF919F918F912F910F900FBE0F901F906A
:100C40001895FC010FB6F8946091750270917602C8
:100C500080917702909178020FBE309721F06083E7
:100C60007183828393830895E1ECF1E01382128211
:100C700088EE93E0A0E0B0E084839583A683B783F9
:100C800088E891E09183808385EC90E09587848764
:100C900084EC90E09787868780EC90E0918B808B46
:100CA00081EC90E0938B828B82EC90E0958B848B2F
:100CB00086EC90E0978B868B118E128E138E148E9D
:100CC00083E08093740285E080935E020895CF9361
:100CD000DF9300D000D0CDB7DEB7789484B58260C2
:100CE00084BD84B5816084BD85B5826085BD85B5D0
:100CF000816085BD80916E00816080936E0010924E
:100D000081008091810082608093810080918100C8
:100D10008160809381008091800081608093800059
:100D20008091B10084608093B1008091B0008160B7
:100D30008093B00080917A00846080937A008091E3
:100D40007A00826080937A0080917A00816080933B
:100D50007A0080917A00806880937A001092C100B6
:100D60001A8219821C821B8284E0FE013196AAE954
:100D7000B1E001900D928A95E1F7CE0101960E94B3
:100D8000D50482E090E00E94D4092CE731E0DC0138
:100D90002D933C93BC018AE991E00E94A60484E073
:100DA00090E00E94D4092CE131E0FC0131832083E2
:100DB00013821282BC018AE991E00E94A60482E0BB
:100DC00090E00E94D40920E731E0DC012D933C93B0
:100DD000BC018AE991E00E94A6048AE991E00E94A0
:100DE00093047C019093A00180939F011A82198241
:100DF0001C821B8284E0FE013196A8EAB1E00190DA
:100E00000D928A95E1F7CE0101960E94D50483E008
:100E100090E00E94D40928E231E0FC013183208374
:100E20001282BC0188EA91E00E94A60483E090E06F
:100E30000E94D40924E331E0DC0111963C932E9307
:100E400012961C92BC0188EA91E00E94A60488EAEE
:100E500091E00E9493049093AE018093AD011A82B9
:100E600019821C821B8284E0FE013196A1EAB1E066
:100E700001900D928A95E1F7CE0101960E94D5046A
:100E800082E090E00E94D40924E631E0FC01318345
:100E90002083BC0181EA91E00E94A60488E090E0F2
:100EA0000E94D4098C0180E491E0D80111969C93B2
:100EB0008E9313961C921E92129784E090E00E94EB
:100EC000D409FC011182108213821282D801179674
:100ED0009C938E931697B80181EA91E00E94A60434
:100EE00081EA91E00E9493049093A7018093A60168
:100EF0001A8219821C821B8284E0FE013196AFEABD
:100F0000B1E001900D928A95E1F7CE0101960E9421
:100F1000D50482E090E00E94D40928E531E0FC018C
:100F200031832083BC018FEA91E00E94A60484E013
:100F300090E00E94D4092CE431E0DC012D933C9335
:100F4000BC018FEA91E00E94A6048FEA91E00E9422
:100F500093049093B5018093B401D701ED91FC9176
:100F60000480F581E02DC70109959093C00180931D
:100F7000BF01EDEEF0E02491E9EDF0E084918823EB
:100F800099F090E0880F991FFC01EE58FF4FA59152
:100F9000B491FC01EE53FF4F859194918FB7F89473
:100FA000EC91E22BEC938FBFE091D101F091D20153
:100FB00082E08083E091CD01F091CE011082E0913A
:100FC000CF01F091D00180E180831092D901E091AE
:100FD000D501F091D60186E08083E091D301F091B4
:100FE000D401808180618083E091D301F091D401AC
:100FF000808188608083E091D301F091D401808169
:1010000080688083E091D301F091D40180818F7D4D
:10101000808311E480E4F82E80915F029091600259
:10102000892BB9F09091610293FB992790F98091F7
:101030007402F98223E02A839B8308E02CE632E0E5
:1010400043E0BE016F5F7F4F0E946203883029F149
:101050000EC080917402198203E02FE532E041E076
:10106000BE016F5F7F4F0E946203833039F01092A0
:101070005F02109260021092610285C0809174023A
:1010800019830AE022E632E041E0BE016F5F7F4F44
:101090000E9462038A3031F276C080916C0285FD35
:1010A000E6CF80916D02082F017081FBDD24D0F81E
:1010B00082FBEE24E0F82091B4013091B5014FEAB3
:1010C00051E063EB71E083FB882780F90E94B00058
:1010D0002091AD013091AE0148EA51E06CEA71E037
:1010E0008D2D0E94B0002091A6013091A70141EA08
:1010F00051E065EA71E08E2D0E94B00020919F01C1
:101100003091A0014AE951E06EE971E0802F0E9420
:10111000B00080916C0285FD47C00FB7F8942CE6B3
:1011200032E042E652E06FE572E080915E020E949A
:10113000AD03813051F42CE632E042E652E06FE537
:1011400072E080915E020E94AD03823051F42CE681
:1011500032E042E652E06FE572E080915E020E946A
:10116000AD030FBF833021F480916102877F05C0FA
:10117000843031F4809161028860809361020EC0F6
:10118000853091F4F1CF8CE790E00E9495020E94A7
:10119000D30181E00E9403010E94710180E00E945E
:1011A00003010E94D20238CF8FE990E0EECF81EAAE
:1011B00091E00E94D5048FEA91E00E94D50488EA6C
:1011C00091E00E94D5048AE991E00C94D5048F92B5
:1011D0009F92AF92BF92CF92DF92EF92FF92CF9306
:1011E000DF93EC01688179818A819B8161157105AA
:1011F0008105910521F464E279ED8BE597E02DE11D
:1012000033EF41E050E00E94430949015A019B013C
:10121000AC01A7EAB1E40E9462096B017C01ACEE6B
:10122000B4EFA50194010E947009DC01CB018C0D83
:101230009D1DAE1DBF1DB7FF03C00197A109B0489A
:1012400088839983AA83BB839F77DF91CF91FF9097
:10125000EF90DF90CF90BF90AF909F908F900895C8
:101260000E94E708089580E091E00E94E708089551
:10127000A0E0B0E08093000190930101A0930201EF
:10128000B09303010895052E97FB1EF400940E946D
:101290005A0957FD07D00E94750907FC03D04EF488
:1012A0000C945A0950954095309521953F4F4F4FDA
:1012B0005F4F089590958095709561957F4F8F4F02
:1012C0009F4F08950E949709A59F900DB49F900D80
:1012D000A49F800D911D11240895B7FF0C946209FD
:1012E0000E946209821B930B0895A1E21A2EAA1B89
:1012F000BB1BFD010DC0AA1FBB1FEE1FFF1FA217C6
:10130000B307E407F50720F0A21BB30BE40BF50BC2
:10131000661F771F881F991F1A9469F7609570954B
:10132000809590959B01AC01BD01CF010895A29FCE
:10133000B001B39FC001A39F700D811D1124911DA9
:10134000B29F700D811D1124911D089597FB072EEA
:1013500016F4009407D077FD09D00E94BA0907FC63
:1013600005D03EF4909581959F4F089570956195B5
:101370007F4F0895AA1BBB1B51E107C0AA1FBB1FCB
:10138000A617B70710F0A61BB70B881F991F5A9511
:10139000A9F780959095BC01CD010895EE0FFF1F30
:1013A0000590F491E02D09940F931F93CF93DF9351
:1013B0008230910510F482E090E0E0917B02F091A0
:1013C0007C0220E030E0A0E0B0E0309719F14081ED
:1013D00051810281138148175907C8F08417950776
:1013E00069F4109731F012960C93129713961C9390
:1013F00027C000937B0210937C0222C02115310587
:1014000019F04217530718F49A01BD01EF01DF01EB
:10141000F801DBCF21153105F9F0281B390B2430F9
:10142000310580F48A819B816115710521F0FB01F2
:101430009383828304C090937C0280937B02FE019D
:10144000329644C0FE01E20FF31F81939193225024
:101450003109398328833AC02091790230917A0288
:10146000232B41F4209106013091070130937A0239
:101470002093790220910401309105012115310555
:1014800041F42DB73EB74091080150910901241B4A
:10149000350BE0917902F0917A02E217F307A0F49C
:1014A0002E1B3F0B2817390778F0AC014E5F5F4FBA
:1014B0002417350748F04E0F5F1F50937A02409370
:1014C00079028193919302C0E0E0F0E0CF01DF91D7
:1014D000CF911F910F910895CF93DF93009709F457
:1014E00081C0FC01329713821282A0917B02B091DD
:1014F0007C02109781F420813181820F931F20910B
:10150000790230917A022817390751F5F0937A025F
:10151000E093790267C0ED0120E030E0CE17DF07ED
:1015200040F44A815B819E0141155105F1F0EA01C9
:10153000F5CFD383C28340815181840F951FC81793
:10154000D90759F488819981840F951F0296918358
:1015500080838A819B81938382832115310529F4BD
:10156000F0937C02E0937B023DC0E901FB83EA83B8
:1015700049915991C40FD51FEC17FD0761F4808183
:101580009181840F951F0296E90199838883828156
:1015900093819B838A83E0E0F0E012968D919C9189
:1015A0001397009719F0FD01DC01F7CF8D919C9105
:1015B00011979D012E5F3F4F820F931F209179025B
:1015C00030917A022817390769F4309729F410927C
:1015D0007C0210927B0202C013821282B0937A02C4
:1015E000A0937902DF91CF91089581E090E0F89483
:1015F0000C94FA0A10E0C5E8D0E004C0FE010E9495
:0E160000CE092196C638D107C9F7F894FFCF5E
:10160E000100000000007D02800000000000640464
:10161E0015055B0457044104000000007B041F0500
:10162E007C043C04000000007704170565043C04AC
:10163E00000000007804190521053C04000000009C
:10164E00EE0409053D043C040000000040041305AF
:10165E003D043C04000000003F04D3043D043C0460
:10166E00000000003E04D1043D043C0400000000D4
:10167E0079041B055E053C04000000007A041D057C
:10168E003D043C04000000004802A901DF01B00245
:0A169E001002EE0102020D0A000026
:00000001FF
