:100000000C9493000C94BB000C94BB000C94BB00AC
:100010000C94BB000C94BB000C94BB000C94BB0074
:100020000C94BB000C94BB000C94BB000C94BB0064
:100030000C94BB000C94BB000C94BB000C94BB0054
:100040000C9488080C94BB000C944A070C94240769
:100050000C94BB000C94BB000C94BB000C94BB0034
:100060000C94BB000C94BB0076027D0286028E02CB
:100070009E02A602AA02B3029602B702BB02BF0208
:10008000C302000000002300260029000000000039
:10009000240027002A004572726F72207265616425
:1000A000696E672047616D656375626520636F6E79
:1000B00074726F6C6C65722E004572726F7220776D
:1000C000726974696E672047616D6563756265204A
:1000D000636F6E74726F6C6C65722E0000000000AE
:1000E000250028002B000404040404040404020274
:1000F00002020202030303030303010204081020A7
:1001000040800102040810200102040810200000B1
:1001100000080002010000030407000000000000C6
:100120000000D80A210911241FBECFEFD8E0DEBF9E
:10013000CDBF11E0A0E0B1E0E2EBFCE102C0059030
:100140000D92A63FB107D9F722E0A6EFB1E001C0BA
:100150001D92A93DB207E1F710E0C2E9D0E004C06A
:100160002197FE010E940C0DC139D107C9F70E94E9
:1001700031090C944C0E0C94000080E090E0892B27
:1001800029F00E94A90681110C9400000895EF92B5
:100190000F931F93F901DA013C912E2D2095322304
:1001A0003C9330813E293083FC01D80198E080E007
:1001B00030E020E04C914E2189F02A95D9F720E0DB
:1001C0004C914E2159F02A95D9F720E84C914E21B7
:1001D00029F02A95D9F73A9561F717C047E04A9573
:1001E000F1F7000031E0550F4C914E2109F05160BC
:1001F0009A9529F45193839598E0681731F020E897
:100200004C914E2111F72A95D9F71F910F91EF903C
:1002100008950F931F93F9012081202B2083DA0189
:100220002C91202B2C9320814081202B30E010E05A
:100230000095109550E004231523DC015D9148E002
:100240000083550F40F474E07A95F1F720837AE04B
:100250007A95F1F705C07EE07A95F1F700002083EA
:100260004A9529F073E07A95F1F70000E9CF6A9595
:1002700029F071E07A95F1F70000E0CF72E07A950D
:10028000F1F700000000008374E07A95F1F70000B8
:10029000000020831F910F910895089508958B5BAE
:1002A0009F4FFC0110820895FC01A481B581109735
:1002B00029F4A281B3818D919C9104C014968D91F3
:1002C0009C911597009721F09583848381E0089590
:1002D00080E00895FC01158214820895FC01848158
:1002E0009581009719F0FC01808191810895FC01AE
:1002F000178A08950895FC01DB0182811D969C9167
:100300001D97882311F09B7F01C094601D969C93DC
:10031000928181E0892782830895FC018281938103
:10032000009749F48AEEDB011F968C9382E090E0FF
:10033000938382830895029731F480E2DB011F9654
:100340008C9313821282089508950C94BE0D0C9420
:10035000BE0D0F931F93CF93DF93EC01888199819A
:10036000009739F0FC01048115810E94BE0DC8017F
:10037000F7CF1B821A8219821882DF91CF911F91C9
:100380000F9108950C94BE0D0C94BE0D0C94BE0DEF
:100390000C94BE0D0C94BE0D0C94BE0D0C94BE0DB1
:1003A0000C94BE0D0C94BE0D0C94BE0DCF92DF923A
:1003B000EF92FF920F931F93CF93DF93DC01579639
:1003C0002C91579721111DC025E1FB011296019038
:1003D0000D922A95E1F7FC01108E118E128E138E6C
:1003E000868D978DDC01ED91FC910680F781E02DE3
:1003F000DF91CF911F910F91FF90EF90DF90CF9001
:100400000994EB018C01FC01868D978DDC01ED9147
:10041000FC910480F581E02D0995892B19F4F801F0
:10042000178ACEC0D8015E968D919C915F97DC01B2
:10043000ED91FC910480F581E02D0995F801408D46
:10044000518D628D738DFC0180819181A281B38178
:1004500084179507A607B70708F0B2C0F801868D84
:10046000978DDC01ED91FC910480F581E02D0995DB
:10047000F801408D518D628D738DDC01CD90DD9042
:10048000ED90FC9013974C195D096E097F09408F20
:10049000518F628F738F1496ED90FC90159786E0C4
:1004A00090E00E94260D8C018CE191E0D80111961C
:1004B0009C938E9315961C921E9214971396FC9201
:1004C000EE921297C8010E946E01009709F478C05D
:1004D000DC01ED91FC911197ED30F10508F057C06A
:1004E000EC5CFF4F12968C910C940C0D9D85292F7E
:1004F0002170820F80FB90F907C09D8591FB222718
:1005000020F9820F80FB91F99D8749C09D8592FB60
:10051000222720F9820F80FB92F9F6CF9D8593FB6D
:10052000222720F9820F80FB93F9EECF9E8594FB62
:10053000222720F9820F80FB94F913C09E8596FB39
:10054000222720F9820F80FB96F90BC09B89890F27
:100550008B8B25C09E8595FB222720F9820F80FB7F
:1005600095F99E871CC09C89890F8C8B18C09F852C
:10057000890F8F8714C09889890F888B10C099893B
:10058000890F898B0CC09A89890F8A8B08C049E131
:1005900050E068ED71E08AEF91E00E943E06D801DC
:1005A000ED91FC910084F185E02DC8010995D801F9
:1005B000ED91FC910480F581E02DC801099585CF6E
:1005C000DF91CF911F910F91FF90EF90DF90CF902F
:1005D0000895EF92FF920F931F93CF93DF938C01B7
:1005E000EB01FC0192818E85992339F08F7B8E87F8
:1005F00080E28B8B8FE78F8721C080648E878AEEA5
:100600008B8B0E94850C7C01F1E0EF22FF2480FFA0
:1006100008C00E94850C6AEC70E00E94F80C805EB5
:1006200001C08AEE8F87EF2841F40E94850C6AECA6
:1006300070E00E94F80C8F5D01C08AEE888BF80193
:10064000928181E089278283DF91CF911F910F9161
:10065000FF90EF9008950F931F93CF93DF93EB01DB
:100660000E94850C8C010170112780FF08C00E9438
:10067000850C6AEC70E00E94F80C805E01C08AEE86
:100680008F87012B41F40E94850C6AEC70E00E9478
:10069000F80C8F5D01C08AEE888BDF91CF911F919E
:1006A0000F910895FC01848DDF01A80FB11DA35A9D
:1006B000BF4F2C91848D90E001968F739927848F82
:1006C000A689B7892C93A089B1898C9183708064A5
:1006D0008C93938D848D981306C00288F389E02D46
:1006E00080818F7D808308957F928F929F92AF92B9
:1006F000BF92CF92DF92EF92FF920F931F93CF930F
:10070000DF93DB01642F5901F02E282F30E0F9012F
:10071000E650FF4FE490F901EA51FF4F249130E099
:10072000220F331FF901E457FF4FC591D491F9010E
:10073000E452FF4FC590D490F901EE57FF4F8590DA
:1007400094907FB6F8940E2D9601AE01CD010E94D3
:10075000090184019601AE016F2DC5010E94C700F9
:100760007FBEDF91CF911F910F91FF90EF90DF90AF
:10077000CF90BF90AF909F908F907F9008953F92C1
:100780004F925F926F927F928F929F92AF92BF92A1
:10079000CF92DF92EF92FF920F931F93CF93DF934D
:1007A00000D01F92CDB7DEB73B014A01290190E08E
:1007B000FC01E650FF4FF490FC01EA51FF4F849199
:1007C00090E0880F991FFC01E457FF4FC590D4902B
:1007D000FC01E452FF4FA590B490FC01EE57FF4F8F
:1007E000059114913FB6F89419821A821B82EF2C5E
:1007F0009501A60163E0CE0101960E94C7008130F9
:10080000B9F48981811109C00F2D9501A60163E01A
:10081000C3010E94090181E02BC0813411F50F2D25
:100820009501A6016AE0C4010E94090182E020C08E
:100830008330B9F489818034A1F48A81833089F4CA
:100840000F2D9501A60168E0C2010E9409018B816C
:100850008370813041F0823041F0833041F486E092
:1008600007C080E005C084E003C085E001C083E0EC
:100870003FBE0F900F900F90DF91CF911F910F917E
:10088000FF90EF90DF90CF90BF90AF909F908F90B0
:100890007F906F905F904F903F90089508950895D6
:1008A000EF92FF920F931F93CF93DF936417E9F0BA
:1008B0007901D42FC62F8C0184E090E00E94260D90
:1008C000FC01F182E0822C2F30E02D1B31093383B3
:1008D0002283BC01F80184819581DF91CF911F9122
:1008E0000F91FF90EF900C94E508DF91CF911F914D
:1008F0000F91FF90EF9008952F923F924F925F9249
:100900006F927F928F929F92AF92BF92CF92DF921F
:10091000EF92FF920F931F93CF93DF93CDB7DEB784
:100920006D970FB6F894DEBF0FBECDBFFB019C01E3
:100930002B5B3F4FD9014C9141111BC045E1DE01BA
:10094000119601900D924A95E1F745E1FE0131962D
:10095000DC01129601900D924A95E1F7FC01EF5BE4
:10096000FF4F108211821282138281E0F90180838D
:1009700042C125E1DC019C9601900D922A95E1F798
:1009800028E0FC01B496DE01569601900D922A955E
:10099000E1F7DC0196960C91969797961C919797A4
:1009A00098966C91989799964C9199979A96EC9005
:1009B0009A979B96FC9028E0FC01F996DE0111962F
:1009C00001900D922A95E1F73E89298123272F7006
:1009D000FC01E05CFF4F6F012F3029F5DC01DB9655
:1009E000BC90DB97DC967C91DC97DD965C91DD9783
:1009F000DE963C91DE97DF96AC91A080BF892A817C
:100A00002B27B22FB075B03571F4EA1661F025FFCF
:100A10000AC0FA1441F00B1531F0171721F06517D1
:100A200011F04313E8C08C018FB7F8944090F601A1
:100A30005090F7016090F8017090F9018FBF180194
:100A4000B1E42B0E311CF10180819181A281B3812F
:100A500053014201881A990AAA0ABB0A86E090E06B
:100A60000E94260D7C01DC018D929D92AD92BC927C
:100A7000139784E090E00E94260DFC011182108201
:100A800013821282D70115969C938E931497F801C6
:100A900041AD417064A1617020E030E0C7010E9467
:100AA0005004D801D9964C91D997469541709496A7
:100AB0006C916695617021E030E0C7010E9450049E
:100AC000F80141AD42FB442740F964A162FB66276F
:100AD00060F922E030E0C7010E945004D801D996A5
:100AE0004C91D99743FB442740F994966C9163FB52
:100AF000662760F923E030E0C7010E945004F80146
:100B000042AD4295417065A16295617028E030E088
:100B1000C7010E945004D801DA964C91DA9746FB3F
:100B2000442740F995966C9166FB662760F924E0AE
:100B300030E0C7010E94500425E030E0F80147ADE5
:100B400062A5C7010E945004D801DA964C91DA9749
:100B500045FB442740F995966C9165FB662760F943
:100B600026E030E0C7010E94500427E030E0F601A3
:100B70004081D8019B966C91C7010E94500429E0E6
:100B800030E0F80143AD66A1C7010E9450042AE09D
:100B900030E0D801DC964C91DC9797966C91C701B8
:100BA0000E9450042BE030E0F80145AD60A5C7017C
:100BB0000E9450042CE030E0D801DE964C91DE9784
:100BC00099966C91C7010E945004F801EA5BFF4FAF
:100BD000B701808191810E94E50885E1F801BC960A
:100BE000D801579601900D928A95E1F7F101408264
:100BF0005182628273826D960FB6F894DEBF0FBE8B
:100C0000CDBFDF91CF911F910F91FF90EF90DF90BB
:100C1000CF90BF90AF909F908F907F906F905F909C
:100C20004F903F902F900895CF93DF9324E631E0CB
:100C3000FC0131832083EA5BFF4FC081D181209783
:100C400041F0CE010E94A901CE01DF91CF910C9419
:100C5000BE0DDF91CF910895CF93DF93EC010E94F9
:100C60001406CE01DF91CF910C94BE0D0895089526
:100C7000089508950895089508950895CF92DF92F4
:100C8000EF92FF920F931F93CF93DF936C017A0142
:100C90008B01C0E0D0E0CE15DF0581F0D8016D9169
:100CA0008D01D601ED91FC910190F081E02DC601FE
:100CB0000995892B11F02196EECF7E01C701DF91B6
:100CC000CF911F910F91FF90EF90DF90CF900895FB
:100CD000089580E090E00895FC01538D448D252F08
:100CE00030E0842F90E0821B930B541710F0CF96C6
:100CF000089501970895FC01918D828D981761F0F8
:100D0000828DDF01A80FB11D5D968C91928D9F5F42
:100D10009F73928F90E008958FEF9FEF0895FC01ED
:100D2000918D828D981731F0828DE80FF11D858DA0
:100D300090E008958FEF9FEF0895FC01918D228D33
:100D4000892F90E0805C9F4F821B91098F739927B8
:100D500008958AEF91E00E949D0621E0892B09F415
:100D600020E0822F08950E94470EEF92FF920F938A
:100D70001F93CF93DF93EC0181E0888F9B8D8C8D47
:100D8000981305C0E889F989808185FD26C0F62E73
:100D90000B8D10E00F5F1F4F0F731127E02E8C8D0E
:100DA000E8120CC00FB607FCFACFE889F9898081F8
:100DB00085FFF5CFCE010E945203F1CF8B8DFE014E
:100DC000E80FF11DE35AFF4FF0829FB7F8940B8FA5
:100DD000EA89FB89808180620AC09FB7F894EE8916
:100DE000FF896083E889F9898081837080648083CA
:100DF0009FBF81E090E0DF91CF911F910F91FF9015
:100E0000EF900895CF93DF93EC01888D8823C9F08C
:100E1000EA89FB89808185FD05C0A889B9898C9103
:100E200086FD0FC00FB607FCF5CF808185FFF2CF9E
:100E3000A889B9898C9185FFEDCFCE010E9452031C
:100E4000E7CFDF91CF9108951F920F920FB60F92C7
:100E500011242F933F934F935F936F937F938F93BF
:100E60009F93AF93BF93EF93FF938AEF91E00E941C
:100E70005203FF91EF91BF91AF919F918F917F911D
:100E80006F915F914F913F912F910F900FBE0F90F7
:100E90001F9018951F920F920FB60F9211242F9347
:100EA0008F939F93EF93FF93E0910A02F0910B02CF
:100EB0008081E0911002F091110282FD12C09081B8
:100EC000809113028F5F8F7320911402821751F06B
:100ED000E0911302F0E0E650FE4F958F80931302ED
:100EE00001C08081FF91EF919F918F912F910F9081
:100EF0000FBE0F901F9018953FB7F8948091CD02C8
:100F00009091CE02A091CF02B091D00226B5A89BBD
:100F100005C02F3F19F00196A11DB11D3FBFBA2F8B
:100F2000A92F982F8827820F911DA11DB11DBC01EB
:100F3000CD0142E0660F771F881F991F4A95D1F7B0
:100F40000895EBE1F1E09491E7E0F1E02491E3EF23
:100F5000F0E0E491EE2309F43CC0992339F1933099
:100F600091F038F49130A9F0923001F594B59F7D5D
:100F700012C0973091F09830A1F09430B9F490916C
:100F800080009F7D03C0909180009F7790938000A8
:100F90000DC094B59F7794BD09C09091B0009F7724
:100FA00003C09091B0009F7D9093B000F0E0EE0FF1
:100FB000FF1FE452FF4FA591B4919FB7F8948111A0
:100FC00004C08C912095282302C0EC912E2B2C93E9
:100FD0009FBF08958F929F92AF92BF92CF92DF9260
:100FE000EF92FF920E947C074B015C0188EEC82EB5
:100FF00083E0D82EE12CF12C0E947C07DC01CB0190
:1010000088199909AA09BB09883E9340A105B10531
:1010100098F321E0C21AD108E108F10888EE880EA1
:1010200083E0981EA11CB11CC114D104E104F10499
:1010300019F7FF90EF90DF90CF90BF90AF909F9007
:101040008F90089542E050E062EF71E08AEF91E006
:101050000C943E060F931F93CF93DF938C01C0E057
:10106000D0E0F801EC0FFD1F6491662341F08AEF98
:1010700091E00E94B506892B11F02196F2CFCE01A6
:10108000DF91CF911F910F9108950F931F93CF93ED
:10109000DF938C01EB018091B3029091B402DC01EB
:1010A000ED91FC910680F781E02D09958091B302C6
:1010B0009091B402D801ED91FC91309791F020818C
:1010C00031818217930721F00480F581E02DF5CF5F
:1010D000E881F9810084F185E02DCE010995811127
:1010E00007C0E881F9810680F781E02DCE010995DE
:1010F000E881F9810480F581E02DCE010995909376
:10110000B4028093B302DF91CF911F910F910895A4
:101110001F920F920FB60F9211242F933F938F932C
:101120009F93AF93BF938091F6019091F701A091A7
:10113000F801B091F9013091CC0223E0230F2D3753
:1011400020F40196A11DB11D05C026E8230F0296CB
:10115000A11DB11D2093CC028093F6019093F7015D
:10116000A093F801B093F9018091CD029091CE0245
:10117000A091CF02B091D0020196A11DB11D809324
:10118000CD029093CE02A093CF02B093D002BF9134
:10119000AF919F918F913F912F910F900FBE0F9024
:1011A0001F901895FC010FB6F8946091D1027091D0
:1011B000D2028091D3029091D4020FBE309721F0D9
:1011C000608371838283938308950F931F93CF93DA
:1011D000DF93EC018B0186E090E00E94260DFC017C
:1011E000138212821582148211830083888199816F
:1011F000892B29F4FB83EA83F983E8830AC0AA8157
:10120000BB81B383A2831596FC93EE931497FB8363
:10121000EA83DF91CF911F910F910895CF93DF93D0
:10122000EC0186E090E00E94260D2EE031E0FC010A
:101230003183208315821482D383C283DF91CF91BF
:1012400008958DEA92E00E94A90187EA92E00E9447
:10125000A90181EA92E00E94A9018BE992E00C9435
:10126000A901CF93DF93CDB7DEB765970FB6F8949A
:10127000DEBF0FBECDBF789484B5826084BD84B5D7
:10128000816084BD85B5826085BD85B5816085BD81
:1012900080916E00816080936E0010928100809139
:1012A00081008260809381008091810081608093C1
:1012B0008100809180008160809380008091B100E6
:1012C00084608093B1008091B00081608093B00011
:1012D00080917A00846080937A0080917A008260A5
:1012E00080937A0080917A00816080937A00809167
:1012F0007A00806880937A001092C10080E090E0CC
:101300000E94D208CB010E948A0CE7E0F1E0249110
:10131000E3EFF0E08491882399F090E0880F991F23
:10132000FC01E457FF4FA591B491FC01E452FF4F3B
:10133000859194918FB7F894EC91E22BEC938FBF49
:10134000E0910A02F0910B0282E08083E0910602B4
:10135000F09107021082E0910802F091090280E109
:10136000808310921202E0910E02F0910F0286E04B
:101370008083E0910C02F0910D0280818061808376
:10138000E0910C02F0910D02808188608083E091F1
:101390000C02F0910D02808180688083E0910C0244
:1013A000F0910D0280818F7D808311E480E4F82E1E
:1013B0008091B6029091B702892BB9F09091B80252
:1013C00093FB992790F98091CB02F98223E02A833D
:1013D0009B8308E023EC32E043E0BE016F5F7F4F68
:1013E0000E947403883029F10EC08091CB021982CB
:1013F00003E026EB32E041E0BE016F5F7F4F0E94C9
:101400007403833039F01092B6021092B702109232
:10141000B802BFC08091CB0219830AE029EB32E009
:1014200041E0BE016F5F7F4F0E9474038A3031F24A
:10143000B0C08091C30285FDE6CF85E1E6EBF2E026
:10144000DE01119601900D928A95E1F78F85982F14
:10145000917080FF03C090939A020EC080919A020F
:10146000882351F010929A0260919F027091A0021D
:101470008BE992E00E9445088F8583FB992790F9BC
:1014800083FF03C0909397020EC080919702882338
:1014900051F0109297026091A5027091A60281EA24
:1014A00092E00E9445088F8581FB992790F981FF82
:1014B00003C0909398020EC080919802882351F047
:1014C000109298026091AB027091AC0287EA92E0B0
:1014D0000E9445088F8582FB992790F982FF03C0FF
:1014E000909399020EC080919902882351F0109236
:1014F00099026091B1027091B2028DEA92E00E946D
:1015000045088091B3029091B402DC01ED91FC9109
:101510000480F581E02DBE016F5F7F4F09958E85B8
:1015200085FD3AC00FB7F8949E01225F3F4FAE0190
:101530004C5F5F4FBE016F5F7F4F8091B5020E948D
:10154000BF03813069F49E01225F3F4FAE014C5FC3
:101550005F4FBE016F5F7F4F8091B5020E94BF0356
:10156000823069F49E01225F3F4FAE014C5F5F4FB6
:10157000BE016F5F7F4F8091B5020E94BF030FBF16
:101580008350833048F480E00E94A1070E94BD0090
:101590000FCF86E990E002C089EB90E00E942A0814
:1015A0000E94220881E00E94A1070E94EA07EBCF77
:1015B000AF92BF92DF92EF92FF920F931F93CF9360
:1015C000DF93EAEFF1E01382128288EE93E0A0E06D
:1015D000B0E084839583A683B78388E391E0918309
:1015E000808385EC90E09587848784EC90E09787F2
:1015F000868780EC90E0918B808B81EC90E0938BE0
:10160000828B82EC90E0958B848B86EC90E0978BBC
:10161000868B118E128E138E148E83E08093CB02F4
:1016200085E08093B502C7E9D2E0188219821A8258
:101630001B821D821C821F821E828BE992E00E9407
:101640000E09998788871B861A861D861C8681EA63
:1016500092E00E940E099F878E87198A188A1B8A3A
:101660001A8A87EA92E00E940E099D8B8C8B1F8A52
:101670001E8A198E188E8DEA92E00E940E099B8FA9
:101680008A8F82E090E00E94260D24EC31E0DC019C
:101690002D933C93BC018BE992E00E94E50884E025
:1016A00090E00E94260D28E831E0FC013183208380
:1016B00013821282BC018BE992E00E94E50882E06D
:1016C00090E00E94260D28EB31E0DC012D933C9345
:1016D000BC018BE992E00E94E50882E090E00E9464
:1016E000260D2CEA31E0FC0131832083BC0187EA1E
:1016F00092E00E94E50883E090E00E94260D2CE72E
:1017000031E0DC0111963C932E9312961C92BC01A1
:1017100087EA92E00E94E50883E090E00E94260DAF
:1017200020E731E0FC01318320831282BC0187EA8B
:1017300092E00E94E50882E090E00E94260D20EAF7
:1017400031E0DC012D933C93BC018DEA92E00E94D4
:10175000E50888E490E00E94260D8C01FC0184E6F7
:1017600091E08193919385E1D82EDF012D2D1D927B
:101770002A95E9F7F8017796DF012D2D1D922A951C
:10178000E9F77596DF012D2D1D922A95E9F77596DB
:1017900010821182128213823496108284E090E0CB
:1017A0000E94260DDC0111961C921E9213961C922B
:1017B0001E9212975801B6E4AB0EB11CF50191834D
:1017C0008083B8018DEA92E00E94E50882E090E013
:1017D0000E94260D24E931E0DC012D933C93BC01ED
:1017E00081EA92E00E94E50880E290E00E94260DE6
:1017F0007C01FC0188E591E081939193DF011D92CA
:10180000DA94E9F7F701178A108E118E128E138E73
:10181000158F048FF5010081118186E090E00E9410
:10182000260DFC018AE491E0918380831582148265
:1018300013830283D7015F96FC93EE935E97B70103
:1018400081EA92E00E94E50888859985DC01ED91A6
:10185000FC910480F581E02D09959D8F8C8FDF919F
:10186000CF911F910F91FF90EF90DF90BF90AF90BD
:1018700008958F929F92AF92BF92CF92DF92EF9294
:10188000FF92CF93DF93EC01688179818A819B81FC
:10189000611571058105910521F464E279ED8BE50F
:1018A00097E02DE133EF41E050E00E94950C4901B3
:1018B0005A019B01AC01A7EAB1E40E94B40C6B0190
:1018C0007C01ACEEB4EFA50194010E94C20CDC01D6
:1018D000CB018C0D9D1DAE1DBF1DB7FF03C0019731
:1018E000A109B04888839983AA83BB839F77DF913E
:1018F000CF91FF90EF90DF90CF90BF90AF909F90EF
:101900008F9008950E94390C089580E091E00E9424
:10191000390C0895A0E0B0E080930001909301019C
:10192000A0930201B09303010895052E97FB1EF4C6
:1019300000940E94AC0C57FD07D00E94C70C07FC16
:1019400003D04EF40C94AC0C5095409530952195F5
:101950003F4F4F4F5F4F08959095809570956195DB
:101960007F4F8F4F9F4F08950E94E90CA59F900DC8
:10197000B49F900DA49F800D911D11240895B7FF71
:101980000C94B40C0E94B40C821B930B0895A1E23A
:101990001A2EAA1BBB1BFD010DC0AA1FBB1FEE1FE9
:1019A000FF1FA217B307E407F50720F0A21BB30B34
:1019B000E40BF50B661F771F881F991F1A9469F7B0
:1019C00060957095809590959B01AC01BD01CF010C
:1019D0000895A29FB001B39FC001A39F700D811D08
:1019E0001124911DB29F700D811D1124911D089528
:1019F00097FB072E16F4009407D077FD09D00E94BC
:101A0000120D07FC05D03EF4909581959F4F0895E7
:101A1000709561957F4F0895EE0FFF1F0590F4912B
:101A2000E02D0994AA1BBB1B51E107C0AA1FBB1FD5
:101A3000A617B70710F0A61BB70B881F991F5A955A
:101A4000A9F780959095BC01CD0108950F931F9340
:101A5000CF93DF938230910510F482E090E0E09123
:101A6000D702F091D80220E030E0A0E0B0E030975B
:101A700019F1408151810281138148175907C8F03B
:101A80008417950769F4109731F012960C9312970A
:101A900013961C9327C00093D7021093D80222C03C
:101AA0002115310519F04217530718F49A01BD01A9
:101AB000EF01DF01F801DBCF21153105F9F0281B1B
:101AC000390B2430310580F48A819B8161157105C1
:101AD00021F0FB019383828304C09093D80280930A
:101AE000D702FE01329644C0FE01E20FF31F81933C
:101AF000919322503109398328833AC02091D5022D
:101B00003091D602232B41F4209106013091070138
:101B10003093D6022093D502209104013091050123
:101B20002115310541F42DB73EB740910801509180
:101B30000901241B350BE091D502F091D602E21782
:101B4000F307A0F42E1B3F0B2817390778F0AC01E0
:101B50004E5F5F4F2417350748F04E0F5F1F5093BD
:101B6000D6024093D5028193919302C0E0E0F0E069
:101B7000CF01DF91CF911F910F910895CF93DF9304
:101B8000009709F481C0FC01329713821282A09160
:101B9000D702B091D802109781F420813181820F51
:101BA000931F2091D5023091D6022817390751F59D
:101BB000F093D602E093D50267C0ED0120E030E05B
:101BC000CE17DF0740F44A815B819E014115510524
:101BD000F1F0EA01F5CFD383C28340815181840FB4
:101BE000951FC817D90759F488819981840F951FCB
:101BF0000296918380838A819B81938382832115BE
:101C0000310529F4F093D802E093D7023DC0E901F1
:101C1000FB83EA8349915991C40FD51FEC17FD0747
:101C200061F480819181840F951F0296E901998367
:101C30008883828193819B838A83E0E0F0E012961F
:101C40008D919C911397009719F0FD01DC01F7CF5E
:101C50008D919C9111979D012E5F3F4F820F931F95
:101C60002091D5023091D6022817390769F43097B0
:101C700029F41092D8021092D70202C01382128265
:101C8000B093D602A093D502DF91CF91089581E061
:101C900090E0F8940C944C0E10E0C2E9D0E004C03F
:101CA000FE010E940C0D2196C339D107C9F7F894A3
:021CB000FFCF64
:101CB200010000000000D902800000000000A40121
:101CC200D4016E016A015401000000007A01C601CC
:101CD2006E016A0154010000000000000000B3061A
:101CE200B306B30600000000B5063E066C06020706
:101CF2009D067B068F06000000003606C2016E01BB
:101D02006A015401000000003706C401D6017701C0
:101D12000000000014062C067C044F0100000000A5
:101D22003A06CC01E9024D01000000003906CA0161
:101D32007B014D01000000003D06D2018D014D01E5
:101D4200000000004F04A5014E014D0100000000FB
:101D52004E04A7014E014D01000000003806C801E3
:101D62004E014D01000000003B06CE012B034D0148
:101D7200000000003C06D0014E014D0100000000B1
:101D8200B306B306B306B306496E76616C69642086
:101D9200636F6E74726F6C6C657220696E707574AD
:061DA20021000D0A000003
:00000001FF
