:100000000C9485000C94AD000C94AD000C94AD00E4
:100010000C94AD000C94AD000C94AD000C94AD00AC
:100020000C94AD000C94AD000C94AD000C94AD009C
:100030000C94AD000C94AD000C94AD000C94AD008C
:100040000C94EA030C94AD000C945A040C94340400
:100050000C94AD000C94AD000C94AD000C94AD006C
:100060000C94AD000C94AD000000000023002600AD
:10007000290000000000240027002A004572726F4A
:10008000722072656164696E672047616D65637592
:10009000626520636F6E74726F6C6C65722E0045C2
:1000A00072726F722077726974696E672047616D32
:1000B000656375626520636F6E74726F6C6C6572D8
:1000C0002E0000000000250028002B00040404047A
:1000D00004040404020202020202030303030303F2
:1000E00001020408102040800102040810200102CF
:1000F00004081020000000080002010000030407AB
:1001000000000000000000009F0411241FBECFEF7C
:10011000D8E0DEBFCDBF11E0A0E0B1E0EEE9FDE048
:1001200002C005900D92AA31B107D9F721E0AAE1EA
:10013000B1E001C01D92AB3DB207E1F710E0C5E8A8
:10014000D0E004C02197FE010E94C206C438D10746
:10015000C9F70E94D2040C94CD060C940000E1E093
:10016000F1E09491EDEEF0E02491E9EDF0E0E4911E
:10017000EE2309F43CC0992339F1933091F038F41F
:100180009130A9F0923001F594B59F7D12C097305F
:1001900091F09830A1F09430B9F4909180009F7D57
:1001A00003C0909180009F77909380000DC094B51C
:1001B0009F7794BD09C09091B0009F7703C0909144
:1001C000B0009F7D9093B000F0E0EE0FFF1FEE5364
:1001D000FF4FA591B4919FB7F894811104C08C9101
:1001E0002095282302C0EC912E2B2C939FBF0895BD
:1001F0003FB7F89480911F0190912001A0912101B7
:10020000B091220126B5A89B05C02F3F19F0019699
:10021000A11DB11D3FBFBA2FA92F982F8827820F8C
:10022000911DA11DB11DBC01CD0142E0660F771FDC
:10023000881F991F4A95D1F708958F929F92AF9288
:10024000BF92CF92DF92EF92FF920E94F8004B0193
:100250005C0188EEC82E83E0D82EE12CF12C0E94A0
:10026000F800DC01CB0188199909AA09BB09883E6D
:100270009340A105B10598F321E0C21AD108E10825
:10028000F10888EE880E83E0981EA11CB11CC114F1
:10029000D104E104F10419F7FF90EF90DF90CF90C3
:1002A000BF90AF909F908F900895CF92DF92EF9282
:1002B000FF920F931F93CF93DF936C017A018B0111
:1002C000C0E0D0E0CE15DF0581F0D8016D918D0141
:1002D000D601ED91FC910190F081E02DC6010995C8
:1002E000892B11F02196EECF7E01C701DF91CF91CE
:1002F0001F910F91FF90EF90DF90CF90089542E013
:1003000050E066E171E083E291E00C9455010895BC
:1003100080E090E00895FC01538D448D252F30E05E
:10032000842F90E0821B930B541710F0CF96089502
:1003300001970895FC01918D828D981761F0828D4F
:10034000DF01A80FB11D5D968C91928D9F5F9F7309
:10035000928F90E008958FEF9FEF0895FC01918DAB
:10036000828D981731F0828DE80FF11D858D90E018
:1003700008958FEF9FEF0895FC01918D228D892FB5
:1003800090E0805C9F4F821B91098F73992708959D
:1003900083E291E00E94BC0121E0892B09F420E076
:1003A000822F0895FC01848DDF01A80FB11DA35A8F
:1003B000BF4F2C91848D90E001968F739927848F85
:1003C000A689B7892C93A089B1898C9183708064A8
:1003D0008C93938D848D981306C00288F389E02D49
:1003E00080818F7D80830895EF92FF920F931F93FA
:1003F000CF93DF93EC0181E0888F9B8D8C8D9813D8
:1004000005C0E889F989808185FD26C0F62E0B8D0F
:1004100010E00F5F1F4F0F731127E02E8C8DE81235
:100420000CC00FB607FCFACFE889F989808185FFF7
:10043000F5CFCE010E94D201F1CF8B8DFE01E80FE6
:10044000F11DE35AFF4FF0829FB7F8940B8FEA89B2
:10045000FB89808180620AC09FB7F894EE89FF898A
:100460006083E889F98980818370806480839FBF7D
:1004700081E090E0DF91CF911F910F91FF90EF907D
:1004800008950F931F93CF93DF938C01C0E0D0E0CA
:10049000F801EC0FFD1F6491662341F083E291E0C7
:1004A0000E94F401892B11F02196F2CFCE01DF9149
:1004B000CF911F910F910895CF93DF93EC01888D19
:1004C0008823C9F0EA89FB89808185FD05C0A88958
:1004D000B9898C9186FD0FC00FB607FCF5CF8081DE
:1004E00085FFF2CFA889B9898C9185FFEDCFCE0128
:1004F0000E94D201E7CFDF91CF91089580E090E094
:10050000892B29F00E94C80181110C9400000895E4
:10051000EF920F931F93F901DA013C912E2D209554
:1005200032233C9330813E293083FC01D80198E08E
:1005300080E030E020E04C914E2189F02A95D9F7F7
:1005400020E04C914E2159F02A95D9F720E84C91A2
:100550004E2129F02A95D9F73A9561F717C047E05F
:100560004A95F1F7000031E0550F4C914E2109F00A
:1005700051609A9529F45193839598E0681731F06A
:1005800020E84C914E2111F72A95D9F71F910F9130
:10059000EF9008950F931F93F9012081202B208362
:1005A000DA012C91202B2C9320814081202B30E0EC
:1005B00010E00095109550E004231523DC015D91B7
:1005C00048E00083550F40F474E07A95F1F72083FA
:1005D0007AE07A95F1F705C07EE07A95F1F70000B0
:1005E00020834A9529F073E07A95F1F70000E9CF6E
:1005F0006A9529F071E07A95F1F70000E0CF72E09A
:100600007A95F1F700000000008374E07A95F1F725
:100610000000000020831F910F9108957F928F9218
:100620009F92AF92BF92CF92DF92EF92FF920F9381
:100630001F93CF93DF93DB01642F5901F02E282FF6
:1006400030E0F901E052FF4FE490F901E453FF4F2D
:10065000249130E0220F331FF901EE58FF4FC5916E
:10066000D491F901EE53FF4FC590D490F901E859A8
:10067000FF4F859094907FB6F8940E2D9601AE01B1
:10068000CD010E94CA0284019601AE016F2DC50101
:100690000E9488027FBEDF91CF911F910F91FF9042
:1006A000EF90DF90CF90BF90AF909F908F907F9012
:1006B00008953F924F925F926F927F928F929F9296
:1006C000AF92BF92CF92DF92EF92FF920F931F9360
:1006D000CF93DF9300D01F92CDB7DEB73B014A0125
:1006E000290190E0FC01E052FF4FF490FC01E4533B
:1006F000FF4F849190E0880F991FFC01EE58FF4F47
:10070000C590D490FC01EE53FF4FA590B490FC012E
:10071000E859FF4F059114913FB6F89419821A8257
:100720001B82EF2C9501A60163E0CE0101960E9489
:1007300088028130B9F48981811109C00F2D95019A
:10074000A60163E0C3010E94CA0281E02BC081348C
:1007500011F50F2D9501A6016AE0C4010E94CA029D
:1007600082E020C08330B9F489818034A1F48A8189
:10077000833089F40F2D9501A60168E0C2010E9423
:10078000CA028B818370813041F0823041F0833026
:1007900041F486E007C080E005C084E003C085E046
:1007A00001C083E03FBE0F900F900F90DF91CF917B
:1007B0001F910F91FF90EF90DF90CF90BF90AF907F
:1007C0009F908F907F906F905F904F903F90089593
:1007D0000E94C8061F920F920FB60F9211242F93FA
:1007E0003F938F939F93AF93BF9380911B01909101
:1007F0001C01A0911D01B0911E0130911A0123E04E
:10080000230F2D3720F40196A11DB11D05C026E848
:10081000230F0296A11DB11D20931A0180931B0185
:1008200090931C01A0931D01B0931E0180911F01A4
:1008300090912001A0912101B09122010196A11D6A
:10084000B11D80931F0190932001A0932101B093CB
:100850002201BF91AF919F918F913F912F910F9066
:100860000FBE0F901F9018951F920F920FB60F9208
:1008700011242F933F934F935F936F937F938F93A5
:100880009F93AF93BF93EF93FF9383E291E00E9416
:10089000D201FF91EF91BF91AF919F918F917F9185
:1008A0006F915F914F913F912F910F900FBE0F90DD
:1008B0001F9018951F920F920FB60F9211242F932D
:1008C0008F939F93EF93FF93E0913301F091340165
:1008D0008081E0913901F0913A0182FD12C090814E
:1008E00080913C018F5F8F7320913D01821751F001
:1008F000E0913C01F0E0ED5DFE4F958F80933C016F
:1009000001C08081FF91EF919F918F912F910F9066
:100910000FBE0F901F901895FC010FB6F8946091D0
:10092000D7017091D8018091D9019091DA010FBE61
:10093000309721F060837183828393830895E3E28B
:10094000F1E01382128288EE93E0A0E0B0E08483AD
:100950009583A683B78388E091E09183808385ECBB
:1009600090E09587848784EC90E09787868780EC79
:1009700090E0918B808B81EC90E0938B828B82EC6A
:1009800090E0958B848B86EC90E0978B868B118E14
:10099000128E138E148E83E08093D60185E08093AF
:1009A000C0010895CF93DF9300D01F92CDB7DEB77B
:1009B000789484B5826084BD84B5816084BD85B53A
:1009C000826085BD85B5816085BD80916E00816046
:1009D00080936E00109281008091810082608093EC
:1009E00081008091810081608093810080918000EE
:1009F0008160809380008091B10084608093B10019
:100A00008091B00081608093B00080917A00846012
:100A100080937A0080917A00826080937A0080913E
:100A20007A00816080937A0080917A008068809358
:100A30007A001092C10080E090E00E948C04CB010B
:100A40000E945406EDEEF0E02491E9EDF0E084918F
:100A5000882399F090E0880F991FFC01EE58FF4F12
:100A6000A591B491FC01EE53FF4F859194918FB7FE
:100A7000F894EC91E22BEC938FBFE0913301F0916D
:100A8000340182E08083E0912F01F09130011082E7
:100A9000E0913101F091320180E1808310923B01BD
:100AA000E0913701F091380186E08083E0913501D3
:100AB000F0913601808180618083E0913501F09171
:100AC0003601808188608083E0913501F0913601A4
:100AD000808180688083E0913501F09136018081CA
:100AE0008F7D808311E480E4F82E8091C101909184
:100AF000C201892BB9F09091C30193FB992790F91A
:100B00008091D601F98223E02A839B8308E02EECB2
:100B100031E043E0BE016F5F7F4F0E940E038830DB
:100B200029F10EC08091D601198203E021EC31E059
:100B300041E0BE016F5F7F4F0E940E03833039F0AA
:100B40001092C1011092C2011092C3014BC080915A
:100B5000D60119830AE024EC31E041E0BE016F5F69
:100B60007F4F0E940E038A3031F23CC08091CE014B
:100B700085FDE6CF0FB7F8942EEC31E044EC51E060
:100B800061EC71E08091C0010E945903813051F401
:100B90002EEC31E044EC51E061EC71E08091C00159
:100BA0000E945903823051F42EEC31E044EC51E0C4
:100BB00061EC71E08091C0010E9459030FBF833046
:100BC00021F48091C301877F05C0843031F4809186
:100BD000C30188608093C30110C0853091F38FE911
:100BE00090E002C08CE790E00E9441020E947F01E9
:100BF00081E00E94AF000E941D0180E00E94AF00D2
:100C00000E947E0272CF8F929F92AF92BF92CF923C
:100C1000DF92EF92FF92CF93DF93EC0168817981AD
:100C20008A819B81611571058105910521F464E23A
:100C300079ED8BE597E02DE133EF41E050E00E9444
:100C40005F0649015A019B01AC01A7EAB1E40E9489
:100C50007E066B017C01ACEEB4EFA50194010E940D
:100C60008C06DC01CB018C0D9D1DAE1DBF1DB7FF99
:100C700003C00197A109B04888839983AA83BB83E5
:100C80009F77DF91CF91FF90EF90DF90CF90BF9053
:100C9000AF909F908F9008950E940306089580E082
:100CA00091E00E9403060895A0E0B0E08093000167
:100CB00090930101A0930201B09303010895052EC2
:100CC00097FB1EF400940E94760657FD07D00E9401
:100CD000910607FC03D04EF40C947606509540958F
:100CE000309521953F4F4F4F5F4F089590958095D8
:100CF000709561957F4F8F4F9F4F08950E94B30667
:100D0000A59F900DB49F900DA49F800D911D11245F
:100D10000895B7FF0C947E060E947E06821B930BFB
:100D20000895A1E21A2EAA1BBB1BFD010DC0AA1F2C
:100D3000BB1FEE1FFF1FA217B307E407F50720F044
:100D4000A21BB30BE40BF50B661F771F881F991FBF
:100D50001A9469F760957095809590959B01AC0108
:100D6000BD01CF010895A29FB001B39FC001A39F11
:100D7000700D811D1124911DB29F700D811D1124D4
:100D8000911D0895EE0FFF1F0590F491E02D099439
:0E0D900081E090E0F8940C94CD06F894FFCF2B
:100D9E000100000000000000F40155018B015C020F
:0A0DAE00BC019A01AE010D0A00001D
:00000001FF
