:100000000C9465000C948D000C948D000C948D0064
:100010000C948D000C948D000C948D000C948D002C
:100020000C948D000C948D000C948D000C948D001C
:100030000C948D000C948D000C948D000C948D000C
:100040000C94D2060C948D000C948D000C948D00B1
:100050000C948D000C948D000C948D000C948D00EC
:100060000C948D000C948D0085058D0596059F05DB
:10007000B205BB05C005CA05A905CF05D405D9053C
:10008000DE0500000000230026002900000000001B
:10009000250028002B0000000000240027002A0073
:1000A000040404040404040402020202020203031E
:1000B0000303030301020408102040800102040826
:1000C00010200102040810202F0711241FBECFEFBB
:1000D000D8E0DEBFCDBF11E0A0E0B1E0E8E5F5E19A
:1000E00002C005900D92A635B107D9F727E0A6E525
:1000F000B1E001C01D92A63EB207E1F710E0C5E6EF
:10010000D0E004C02197FE010E948B0AC436D107BB
:10011000C9F70E944D080C94AA0A0C940000EF92B3
:10012000FF921F93CF93DF93182FEB017A018091F9
:100130009D0490919E04DC01ED91FC910280F3817D
:10014000E02D099590919004191317C080918F04A8
:10015000482F50E04F5F5F4FF701208130E042179A
:1001600053075CF48F5F80938F04FE01E80FF11D4D
:10017000E80FF11D8081918110C0943039F4109303
:10018000900410928F048881998107C084E0809345
:10019000900410928F0486E791E090939E048093E0
:1001A0009D04DF91CF911F91FF90EF9008953FB78D
:1001B000F89480915B0190915C01A0915D01B091F8
:1001C0005E0126B5A89B05C02F3F19F00196A11D21
:1001D000B11D3FBFBA2FA92F982F8827820F911DDD
:1001E000A11DB11DBC01CD0142E0660F771F881F24
:1001F000991F4A95D1F708958F929F92AF92BF921F
:10020000CF92DF92EF92FF920E94D7004B015C01E8
:1002100084E6C82ED12CE12CF12C0E94D700DC0101
:10022000CB0188199909AA09BB09883E9340A10509
:10023000B10598F321E0C21AD108E108F10888EE6F
:10024000880E83E0981EA11CB11CC114D104E104E6
:10025000F10419F7FF90EF90DF90CF90BF90AF902F
:100260009F908F9008952FB7F894609157017091E7
:1002700058018091590190915A012FBF0895EF9232
:100280000F931F93F901DA013C912E2D2095322313
:100290003C9330813E293083FC01D80198E080E016
:1002A00030E020E04C914E2189F02A95D9F720E0EA
:1002B0004C914E2159F02A95D9F720E84C914E21C6
:1002C00029F02A95D9F73A9561F717C047E04A9582
:1002D000F1F7000031E0550F4C914E2109F05160CB
:1002E0009A9529F45193839598E0681731F020E8A6
:1002F0004C914E2111F72A95D9F71F910F91EF904C
:1003000008950F931F93F9012081202B2083DA0198
:100310002C91202B2C9320814081202B30E010E069
:100320000095109550E004231523DC015D9148E011
:100330000083550F40F474E07A95F1F720837AE05A
:100340007A95F1F705C07EE07A95F1F700002083F9
:100350004A9529F073E07A95F1F70000E9CF6A95A4
:1003600029F071E07A95F1F70000E0CF72E07A951C
:10037000F1F700000000008374E07A95F1F70000C7
:10038000000020831F910F9108957F928F929F927A
:10039000AF92BF92CF92DF92EF92FF920F931F9393
:1003A000CF93DF93DB01642F5901F02E282F30E02B
:1003B000F901EC54FF4FE490F901E056FF4F24910E
:1003C00030E0220F331FF901EA56FF4FC591D49157
:1003D000F901E457FF4FC590D490F901EE57FF4F54
:1003E000859094907FB6F8940E2D9601AE01CD01C4
:1003F0000E94810184019601AE016F2DC5010E940A
:100400003F017FBEDF91CF911F910F91FF90EF9041
:10041000DF90CF90BF90AF909F908F907F90089586
:100420003F924F925F926F927F928F929F92AF9284
:10043000BF92CF92DF92EF92FF920F931F93CF93D1
:10044000DF9300D01F92CDB7DEB73B014A012901EF
:1004500090E0FC01EC54FF4FF490FC01E056FF4F9C
:10046000849190E0880F991FFC01EA56FF4FC590D8
:10047000D490FC01E457FF4FA590B490FC01EE57D7
:10048000FF4F059114913FB6F89419821A821B828E
:10049000EF2C9501A60163E0CE0101960E943F0179
:1004A0008130B9F48981811109C00F2D9501A60110
:1004B00063E0C3010E94810181E02BC0813411F50A
:1004C0000F2D9501A6016AE0C4010E94810182E01E
:1004D00020C08330B9F489818034A1F48A818330CB
:1004E00089F40F2D9501A60168E0C2010E948101E7
:1004F0008B818370813041F0823041F0833041F450
:1005000086E007C080E005C084E003C085E001C04C
:1005100083E03FBE0F900F900F90DF91CF911F911E
:100520000F91FF90EF90DF90CF90BF90AF909F9092
:100530008F907F906F905F904F903F900895CF93F2
:10054000DF93EC011E8E0E943301FE01E251FD4F4C
:100550002A8D3B8D621B730B71836083DF91CF917A
:100560000895FC01108E0895FC011192119287E20A
:10057000DF011D928A95E9F70895CF93DF93EC018F
:1005800045960E94B402CE01CE960E94B402CE01DE
:1005900089599F4F0E94B402CE0180579F4F0E94FD
:1005A000B402CE0187549F4F0E94B402CE018E51F7
:1005B0009F4F0E94B402CE01855F9E4F0E94B402FD
:1005C000CE018C5C9E4F0E94B402CE01835A9E4F96
:1005D0000E94B402CE018A579E4F0E94B402CE01FF
:1005E00081559E4F0E94B402CE0188529E4F0E94B8
:1005F000B402CE018F5F9D4F0E94B402CE01865D92
:100600009D4F0E94B402CE018D5A9D4F0E94B402AC
:10061000CE0184589D4F0E94B402CE018B559D4F50
:100620000E94B402C253DD4F1882DF91CF9108952A
:1006300008950895FC0192819D3220F49F5F92837A
:1006400081E00895128280E00895CF93DF93EC015A
:10065000FB018B81882319F0813061F014C08585FE
:100660008B7F8587CE010E941A0381110CC081E027
:100670008B8309C0858584608587CE010E941A031B
:10068000811101C01B82DF91CF910895CF93DF9339
:10069000EC01FB018C818230C1F0843021F08111AA
:1006A0001DC080E213C08FE78787CE010E941A0326
:1006B000811114C09B81992319F082E08C8301C0C1
:1006C0001C8281E089278B8309C08AEE8787CE014F
:1006D0000E941A03811102C084E08C83DF91CF91C4
:1006E00008950E94A50A4F925F926F927F928F9217
:1006F0009F92AF92BF92CF92DF92EF92FF920F93B1
:100700001F93CF93DF93CDB7DEB7A7970FB6F894BB
:10071000DEBF0FBECDBF8C017B01FC01868D811138
:1007200020C0E351FD4F1082D8015F9685E1FB01A7
:1007300001900D928A95E1F7D801139685E1FB01AE
:1007400001900D928A95E1F7F801118E108E0E94AA
:100750003301F801628F738F848F958F81E0868FCC
:1007600043C188E0F8017096DE011E9601900D925B
:100770008A95E1F7F801C28833899489D588B688CB
:10078000778988E0F7013D96DE01119601900D9280
:100790008A95E1F72E85898182278F7009F051C0F3
:1007A000F7016785408921898289A389A488FF850B
:1007B0005A815F27F52FF07509F043C0B0E0AB19FF
:1007C000B109B7FF03C0B195A195B1091A97CCF54E
:1007D00055FD37C0EA2DF0E0E71BF109F7FF03C034
:1007E000F195E195F1093A9764F570E06C1971099A
:1007F00077FF03C07195619571096A3071050CF539
:1008000050E0431B510957FF03C0519541955109D1
:100810004A305105B4F430E0291B310937FF03C0D9
:100820003195219531092A3031055CF490E08D191C
:10083000910997FF03C09195819591090A970CF44E
:10084000D3C00E943301F801228D338D621B730BDC
:10085000718F608F5801F3E1AF1AFDEFBF0AF50108
:100860009080F0E1F91508F4BFC0292D30E0F801BF
:1008700089E2989EE00DF11D112480E090E016AA17
:1008800010AE17AA019633968D309105C1F789E213
:10089000829FA001839F500D1124F801E40FF51FE2
:1008A00075AB64ABF8018089982F91709B8F81FBA9
:1008B000992790F99C8F82FB992790F99D8F83FB54
:1008C000882780F98E8F818984FB992790F99F8FE3
:1008D00086FB992790F998A3968999A385FB882789
:1008E00080F98AA387898BA382898CA383898DA3AE
:1008F00084898EA385898FA3F7018585982F9170B0
:100900009E8781FB992790F99F8782FB992790F911
:10091000988B83FB882780F9898B868584FB9927B0
:1009200090F99A8B86FB992790F99B8B93899C8BE6
:1009300085FB882780F98D8B84898E8B87858F8BAB
:100940008089888F8189898F82898A8F8DE0E4E010
:10095000F1E0DE01119601900D928A95E1F7DE013A
:100960001E96BE01655E7F4FCE0101962C013B01B4
:100970002D91FB018191BF0130E0281B3109E1F08D
:10098000F2018080882D90E06C01CC0CDD1CC80E3B
:10099000D91EC40ED51EC00ED11EF60186AA019620
:1009A0006C01CC0CDD1C8C0D9D1D840F951F800FE0
:1009B000911FFC0135AB24ABFFEF4F1A5F0AA61560
:1009C000B705B1F69394F5019082D801139685E1AD
:1009D000F70101900D928A95E1F70E943301F80129
:1009E000628F738F848F958FA7960FB6F894DEBFB2
:1009F0000FBECDBFDF91CF911F910F91FF90EF9070
:100A0000DF90CF90BF90AF909F908F907F906F902E
:100A10005F904F900895EF92FF920F931F93CF93A3
:100A2000DF93CDB7DEB765970FB6F894DEBF0FBE84
:100A3000CDBF8C017B010E943301D8015B962D91C3
:100A40003C915C97621B730B5A967C936E935997FB
:100A500058968C9158979096ED91FC9191978111B1
:100A600023C085E1DE01119601900D928A95E1F790
:100A700085E1FE013196D801139601900D928A9579
:100A8000E1F7F801128E118E0E943301D8015B96B6
:100A90006D937D938D939C935E975F961C925F9769
:100AA00081E058968C93CBC0D8015F969C91DF0172
:100AB000A253BD4F8C91981708F097C0DF0189E2CF
:100AC000989FA00DB11D112455962D913C915697DC
:100AD0002617370708F090C0DF0189E2989FA00D24
:100AE000B11D112420E030E05796EC9157974E2F1E
:100AF00050E04D30510508F065C0FA01EC5CFF4F45
:100B000058968C9158970C948B0AF8014089542F71
:100B10005170850F80FB40F91AC0F801408941FBF4
:100B2000552750F9850F80FB41F911C0F801408924
:100B300042FB552750F9850F80FB42F908C0F801A8
:100B4000408943FB552750F9850F80FB43F9408BC3
:100B500039C0F801418944FB552750F9850F80FBC6
:100B600044F916C0F801418946FB552750F9850F15
:100B700080FB46F90DC0F8014689840F868B22C0A0
:100B8000F801418945FB552750F9850F80FB45F950
:100B9000418B18C0F8014789840F878B13C0F80177
:100BA0004289840F828B0EC0F8014389840F838BA6
:100BB00009C0F8014489840F848B04C0F801458979
:100BC000840F858B2F5F3F4F13962D30310509F031
:100BD0008BCF9F5FD8015F969C930E943301F801F1
:100BE000638F748F858F968F07C0E153FD4F80818F
:100BF00091816817790700F5D7011E969C911E9781
:100C000093FB442740F991FB332730F992FB2227CD
:100C100020F9F801339685E101900D928A95E1F76C
:100C2000F701868590FB80F940FB83F930FB81F961
:100C300020FB82F9868703C0D80158961C926596DE
:100C40000FB6F894DEBF0FBECDBFDF91CF911F91DD
:100C50000F91FF90EF900895FF920F931F93CF9302
:100C6000DF93EC01FB018B81882319F0813089F03F
:100C700045C086858F7B868780E2838B8FE7878759
:100C8000808BCE010E941A03811138C081E08B83D2
:100C900035C08685806486878AEE838B8C818787C2
:100CA0008D81808BCE010E941A03811127C00E9482
:100CB000040AF82E0E94040A8C0101701127F0FC2E
:100CC0000EC0012B11F080E201C08AEE8C830E94DD
:100CD000040A6AEC70E00E94770A8F5D0DC00E94E2
:100CE000040A6AEC70E00E94770A8F5D8C83012B06
:100CF00011F080E201C08AEE8D831B82DF91CF91DB
:100D00001F910F91FF900895FF920F931F93CF9320
:100D1000DF93EC01FB018B81882319F0813061F0B6
:100D20003BC08FE78787808BCE010E941A03811119
:100D300033C081E08B8330C08D8187878E81808B2B
:100D4000CE010E941A03811127C00E94040AF82EC6
:100D50000E94040A8C0101701127F0FC0EC0012BC7
:100D600011F080E201C08AEE8D830E94040A6AECD1
:100D700070E00E94770A8F5D0DC00E94040A6AEC41
:100D800070E00E94770A8F5D8D83012B11F080E265
:100D900001C08AEE8E831B82DF91CF911F910F914C
:100DA000FF9008951F920F920FB60F9211242F9368
:100DB0003F938F939F93AF93BF93809157019091EF
:100DC0005801A0915901B0915A013091560123E088
:100DD000230F2D3720F40196A11DB11D05C026E873
:100DE000230F0296A11DB11D209356018093570138
:100DF00090935801A0935901B0935A0180915B01DF
:100E000090915C01A0915D01B0915E010196A11DE0
:100E1000B11D80935B0190935C01A0935D01B09341
:100E20005E01BF91AF919F918F913F912F910F9054
:100E30000FBE0F901F901895FC010FB6F8946091AB
:100E4000E2077091E3078091E4079091E5070FBEF8
:100E5000309721F0608371838283938308952F926A
:100E60003F924F925F926F927F928F929F92AF923A
:100E7000BF92CF92DF92EF92FF920F931F93CF9387
:100E8000DF9386E7E82E81E0F82ED70112961C92B8
:100E9000129791E5892E91E0992E8D929C92E0E730
:100EA000F1E0128229E4A22E21E0B22EB182A082CA
:100EB000B1E0B3831482E9E6F1E0128231E4C32E9B
:100EC00031E0D32ED182C08213824AEE342E358295
:100ED0003682E3E6F1E0128259E3652E51E0752E89
:100EE00071826082138234823582EFE5F1E01282F2
:100EF00061E3462E61E0562E51824082138209E75B
:100F000011E0F801128289E291E09183808375E11A
:100F1000272EECE7F1E0DF01822D1D928A95E9F79B
:100F2000D80159961C921E925897F801128E138E72
:100F3000148E158E168E88E991E00E94BD02C9E6D6
:100F4000D4E01A8281E291E099838883ECE6F4E0B0
:100F5000DF01822D1D928A95E9F7188E1A8E198E5F
:100F60001B8E1C8E1D8E1E8E1F8E88E991E099A30C
:100F700088A3EFEDF7E0128291828082E9EDF7E03D
:100F80001282B182A08291E093831482E2EDF7E0B5
:100F90001282D182C082138235823682ECECF7E075
:100FA000128271826082138234823582E8ECF7E02B
:100FB0001282518240821382E8EDF4E01282A9E2AB
:100FC000B1E0B183A0832BED34E0D901822D1D92D5
:100FD0008A95E9F7118E108E128E138E148E158E4F
:100FE000168E87EF94E00E94BD02E6EBF4E01282D9
:100FF000A1E2B1E0B183A08389EB94E0DC011D9212
:101000002A94E9F7108E128E118E138E148E158E7F
:10101000168E178E87EF94E091A380A383E08093D0
:10102000B50484E080939F04EBE8F4E01082118221
:101030001282138214828583809111019091120192
:10104000A0911301B091140186839783A087B18783
:10105000D387C2878091150190911601A091170145
:10106000B091180184879587A687B787118B008B6D
:10107000F38AE28ADF91CF911F910F91FF90EF9059
:10108000DF90CF90BF90AF909F908F907F906F90A8
:101090005F904F903F902F900895CF93DF93CDB7FF
:1010A000DEB765970FB6F894DEBF0FBECDBF78945C
:1010B00084B5826084BD84B5816084BD85B582605D
:1010C00085BD85B5816085BD80916E00816080930E
:1010D0006E00109281008091810082608093810077
:1010E0008091810081608093810080918000816087
:1010F000809380008091B10084608093B1008091E2
:10110000B00081608093B00080917A008460809309
:101110007A0080917A00826080937A0080917A00D0
:10112000816080937A0080917A00806880937A0051
:101130001092C10080E090E00E941C07CB010E9449
:10114000090AE1ECF0E02491EDEAF0E084918823D3
:1011500099F090E0880F991FFC01EA56FF4FA59186
:10116000B491FC01E457FF4F859194918FB7F894A7
:10117000EC91E22BEC938FBF80E0E82E80E0F82E1C
:1011800011E490E4D92E8091A0049091A104892BC0
:10119000B9F09091A20493FB992790F98091B5043E
:1011A000D98223E02A839B8308E02DEA34E043E0E0
:1011B000BE016F5F7F4F0E94C501883029F10EC0CC
:1011C0008091B504198203E020EA34E041E0BE01D9
:1011D0006F5F7F4F0E94C501833039F01092A004E9
:1011E0001092A1041092A204C0C08091B50419838A
:1011F0000AE023EA34E041E0BE016F5F7F4F0E94C6
:10120000C5018A3031F2B1C08091AD0485FDE6CFD1
:1012100085E1E0EAF4E0DE01119601900D928A95F5
:10122000E1F78F85982F917080FF03C090938B0416
:101230000DC080918B04882349F010928B044CE1FF
:1012400051E061E974E080E00E948F008F8583FBAC
:10125000992790F983FF03C090938C040DC080916F
:101260008C04882349F010928C044BE151E065E92D
:1012700074E081E00E948F008F8581FB992790F9AF
:1012800081FF03C090938D040DC080918D0488234D
:1012900049F010928D044AE151E067E974E082E080
:1012A0000E948F008F8582FB992790F982FF03C0EF
:1012B00090938E040DC080918E04882349F0109283
:1012C0008E0449E151E06BE974E083E00E948F00F5
:1012D00080919D0490919E04DC01ED91FC91019020
:1012E000F081E02DBE016F5F7F4F09958F85847F70
:1012F0008B7F8F878E8585FD38C00FB7F8949E0150
:10130000225F3F4FAE014C5F5F4FBE016F5F7F4F6B
:1013100080919F040E941002813069F49E01225F37
:101320003F4FAE014C5F5F4FBE016F5F7F4F8091BB
:101330009F040E941002823069F49E01225F3F4F99
:10134000AE014C5F5F4FBE016F5F7F4F80919F0486
:101350000E9410020FBF8350833038F4E114F1046F
:1013600009F411CF0E9400000ECF0E94FC00F6CFBE
:101370008F929F92AF92BF92CF92DF92EF92FF92A5
:10138000CF93DF93EC01688179818A819B8161151C
:1013900071058105910521F464E279ED8BE597E013
:1013A0002DE133EF41E050E00E94140A49015A0157
:1013B0009B01AC01A7EAB1E40E94330A6B017C01F6
:1013C000ACEEB4EFA50194010E94410ADC01CB010F
:1013D0008C0D9D1DAE1DBF1DB7FF03C00197A10958
:1013E000B04888839983AA83BB839F77DF91CF918D
:1013F000FF90EF90DF90CF90BF90AF909F908F9035
:1014000008950E94B809089580E091E00E94B8090B
:101410000895A0E0B0E08093000190930101A093B3
:101420000201B09303010895052E97FB1EF400946A
:101430000E942B0A57FD07D00E94460A07FC03D0E2
:101440004EF40C942B0A50954095309521953F4FC2
:101450004F4F5F4F089590958095709561957F4FA0
:101460008F4F9F4F08950E94680AA59F900DB49FCB
:10147000900DA49F800D911D11240895B7FF0C9429
:10148000330A0E94330A821B930B0895A1E21A2E9D
:10149000AA1BBB1BFD010DC0AA1FBB1FEE1FFF1F18
:1014A000A217B307E407F50720F0A21BB30BE40B68
:1014B000F50B661F771F881F991F1A9469F76095AF
:1014C0007095809590959B01AC01BD01CF01089569
:1014D000A29FB001B39FC001A39F700D811D112475
:1014E000911DB29F700D811D1124911D089597FBD0
:1014F000072E16F4009407D077FD09D00E94910AB8
:1015000007FC05D03EF4909581959F4F0895709506
:1015100061957F4F0895EE0FFF1F0590F491E02D28
:101520000994AA1BBB1B51E107C0AA1FBB1FA6172A
:10153000B70710F0A61BB70B881F991F5A95A9F77C
:1015400080959095BC01CD01089581E090E0F894DC
:081550000C94AA0AF894FFCFE5
:1015580001000000000102030804050607090A0B40
:101568000C700169015F01630101020102000000C2
:10157800000B05B1020000000073039F0200000089
:101588000025031803000000002C061803000000C3
:10159800008406180300000000460318030000003A
:0615A80000190318030006
:00000001FF
