:100000000C94BA000C94E2000C94E2000C94E20010
:100010000C94E2000C94E2000C94E2000C94E200D8
:100020000C94E2000C94E2000C94E2000C94E200C8
:100030000C94E2000C94E2000C94E2000C94E200B8
:100040000C941C080C94E2000C948C080C94660828
:100050000C94E2000C94E2000C94E2000C94E20098
:100060000C94E2000C94E2001D0624062D063506D1
:1000700045064D0651065A063D065E0662066606B0
:100080006A066C7264695F6D69007264695F6D69AC
:10009000006D615F6D69006D6A5F6D69004E4F4D67
:1000A0004F4400496E76616C696420636F6E7472B0
:1000B0006F6C6C657220696E707574210069705F79
:1000C0006D690052656163686564206D61782073B5
:1000D000746F726167652076616C75652120537459
:1000E0006F7070696E67207265636F7264696E67A6
:1000F000210069725F6D6900000000002300260086
:10010000290000000000240027002A00646F5F72AD
:10011000650072695F72650075705F7265006C657D
:100120005F726500455252454144000000000025C1
:100130000028002B00040404040404040402020246
:100140000202020303030303030102040810204018
:1001500080010204081020010204081020000000A1
:100160000800020100000304070000000000000076
:100170000000D10811241FBECFEFD8E0DEBFCDBFF5
:1001800011E0A0E0B1E0E0E4F8E102C005900D92DA
:10019000AC36B107D9F728E0ACE6B1E001C01D925A
:1001A000AA3CB207E1F710E0CAEBD0E004C0219707
:1001B000FE010E94FF0BC93BD107C9F70E94B2099B
:1001C0000C941E0C0C940000EAE6F1E09491E6E534
:1001D000F1E02491E2E4F1E0E491EE2309F43CC083
:1001E000992339F1933091F038F49130A9F092309D
:1001F00001F594B59F7D12C0973091F09830A1F031
:100200009430B9F4909180009F7D03C0909180005C
:100210009F77909380000DC094B59F7794BD09C0DF
:100220009091B0009F7703C09091B0009F7D909314
:10023000B000F0E0EE0FFF1FE55DFE4FA591B49119
:100240009FB7F894811104C08C912095282302C097
:10025000EC912E2B2C939FBF0895EF92FF921F934A
:10026000CF93DF93182FEB017A018091690590916C
:100270006A05DC01ED91FC910280F381E02D099586
:1002800080915C0518131FC080915B05482F50E0DA
:100290004F5F5F4FF701208130E0421753075CF456
:1002A0008F5F80935B05FE01E80FF11DE80FF11DE4
:1002B000808191810EC084E080935C0510925B0583
:1002C0008BE192E006C010935C0510925B0588817B
:1002D000998190936A0580936905DF91CF911F9171
:1002E000FF90EF9008953FB7F8948091710190913D
:1002F0007201A0917301B091740126B5A89B05C04D
:100300002F3F19F00196A11DB11D3FBFBA2FA92F94
:10031000982F8827820F911DA11DB11DBC01CD0111
:1003200042E0660F771F881F991F4A95D1F70895FD
:100330008F929F92AF92BF92CF92DF92EF92FF92F5
:100340000E9473014B015C018AE0C82ED12CE12C84
:10035000F12C0E947301DC01CB0188199909AA09CB
:10036000BB09883E9340A105B10598F321E0C21A6C
:10037000D108E108F10888EE880E83E0981EA11CE0
:10038000B11CC114D104E104F10419F7FF90EF90FE
:10039000DF90CF90BF90AF909F908F900895CF92B5
:1003A000DF92EF92FF920F931F93CF93DF936C0135
:1003B0007A018B01C0E0D0E0CE15DF0581F0D801D5
:1003C0006D918D01D601ED91FC910190F081E02DB0
:1003D000C6010995892B11F02196EECF7E01C70148
:1003E000DF91CF911F910F91FF90EF90DF90CF9011
:1003F0000895089580E090E00895FC01538D448DA8
:10040000252F30E0842F90E0821B930B541710F0BF
:10041000CF96089501970895FC01918D828D9817CC
:1004200061F0828DDF01A80FB11D5D968C91928DD8
:100430009F5F9F73928F90E008958FEF9FEF0895D5
:10044000FC01918D828D981731F0828DE80FF11D9E
:10045000858D90E008958FEF9FEF0895FC01918DB9
:10046000228D892F90E0805C9F4F821B91098F73B2
:100470009927089585E791E00E942E0221E0892BBB
:1004800009F420E0822F0895FC01848DDF01A80F7C
:10049000B11DA35ABF4F2C91848D90E001968F73AC
:1004A0009927848FA689B7892C93A089B1898C91CB
:1004B000837080648C93938D848D981306C002881A
:1004C000F389E02D80818F7D80830895EF92FF92E4
:1004D0000F931F93CF93DF93EC0181E0888F9B8D67
:1004E0008C8D981305C0E889F989808185FD26C027
:1004F000F62E0B8D10E00F5F1F4F0F731127E02EAC
:100500008C8DE8120CC00FB607FCFACFE889F98988
:10051000808185FFF5CFCE010E944402F1CF8B8D03
:10052000FE01E80FF11DE35AFF4FF0829FB7F894E8
:100530000B8FEA89FB89808180620AC09FB7F8949B
:10054000EE89FF896083E889F989808183708064FE
:1005500080839FBF81E090E0DF91CF911F910F9149
:10056000FF90EF9008950F931F93CF93DF938C012B
:10057000C0E0D0E0F801EC0FFD1F6491662341F06C
:1005800085E791E00E946602892B11F02196F2CF57
:10059000CE01DF91CF911F910F910895CF93DF93FB
:1005A0000E94B302EC0142E050E069E671E085E7A9
:1005B00091E00E94CF018C0F9D1FDF91CF91089594
:1005C000CF93DF93EC01888D8823C9F0EA89FB89FA
:1005D000808185FD05C0A889B9898C9186FD0FC0F1
:1005E0000FB607FCF5CF808185FFF2CFA889B989C6
:1005F0008C9185FFEDCFCE010E944402E7CFDF91C1
:10060000CF91089580E090E0892B29F00E943A0272
:1006100081110C9400000895EF920F931F93F9013C
:10062000DA013C912E2D209532233C9330813E29D6
:100630003083FC01D80198E080E030E020E04C916C
:100640004E2189F02A95D9F720E04C914E2159F09E
:100650002A95D9F720E84C914E2129F02A95D9F70F
:100660003A9561F717C047E04A95F1F7000031E08D
:10067000550F4C914E2109F051609A9529F45193F0
:10068000839598E0681731F020E84C914E2111F7DE
:100690002A95D9F71F910F91EF9008950F931F930B
:1006A000F9012081202B2083DA012C91202B2C931F
:1006B00020814081202B30E010E00095109550E023
:1006C00004231523DC015D9148E00083550F40F4BD
:1006D00074E07A95F1F720837AE07A95F1F705C016
:1006E0007EE07A95F1F7000020834A9529F073E0C7
:1006F0007A95F1F70000E9CF6A9529F071E07A95D3
:10070000F1F70000E0CF72E07A95F1F70000000009
:10071000008374E07A95F1F70000000020831F91B8
:100720000F9108957F928F929F92AF92BF92CF9236
:10073000DF92EF92FF920F931F93CF93DF93DB0132
:10074000642F5901F02E282F30E0F901E75BFE4FAE
:10075000E490F901EB5CFE4F249130E0220F331F4F
:10076000F901EE5FFE4FC591D491F901E55DFE4FB1
:10077000C590D490F901E850FF4F859094907FB6D2
:10078000F8940E2D9601AE01CD010E944E03840116
:100790009601AE016F2DC5010E940C037FBEDF9153
:1007A000CF911F910F91FF90EF90DF90CF90BF906E
:1007B000AF909F908F907F9008958D5B9F4FFC012D
:1007C000108208952F923F924F925F926F927F9284
:1007D0008F929F92AF92BF92CF92DF92EF92FF9251
:1007E0000F931F93CF93DF93CDB7DEB7AF970FB6BD
:1007F000F894DEBF0FBECDBF8C017B0182EF90E08D
:100800000E94CE02C8018D5B9F4FDC012C9121110B
:1008100027C025E1F701DE01119601900D922A957E
:10082000E1F7F801E45EFC4F108225E1FE0131960C
:10083000D801129601900D922A95E1F725E1FE016B
:100840003196D801579601900D922A95E1F7F8015B
:10085000EF5BFF4F1182108221E0FC01208385C1F4
:1008600085E1F701D8019C9601900D928A95E1F7F8
:1008700088E0F801B496DE01569601900D928A95B3
:10088000E1F7D80196965C91969797963C91979749
:1008900098969C9198979996FC9099979A96DC9047
:1008A0009A979B96EC9088E0F801F996DE011196F4
:1008B00001900D928A95E1F72E89898182278F70A8
:1008C00009F052C0F80163AD44AD25AD86ADA7ADCA
:1008D000E05CFF4FE081FF897A817F27F72FF07579
:1008E00009F042C0B0E0AD19B109B7FF03C0B1953E
:1008F000A195B1091A97C4F575FD36C0F0E0EE195F
:10090000F109F7FF03C0F195E195F1093A9764F514
:1009100070E0651B710977FF03C0719561957109DE
:100920006A3071050CF550E0431B510957FF03C0B5
:100930005195419551094A305105B4F430E0291BD5
:10094000310937FF03C03195219531092A3031052E
:100950005CF490E08F19910997FF03C09195819500
:1009600091090A970CF401C17801F4E4EF0EF11C2F
:100970009801245E3C4FD9018C918B31E0F083ECDF
:1009800090E0AF960FB6F894DEBF0FBECDBFDF91FB
:10099000CF911F910F91FF90EF90DF90CF90BF907C
:1009A000AF909F908F907F906F905F904F903F900F
:1009B0002F900C94CE028FB7F89480906D01909098
:1009C0006E01A0906F01B09070018FBFF90140805F
:1009D000FAE14F9EC0011124F701E80FF91FD80179
:1009E000AF5BBF4F4D915C91B401641B750B71837C
:1009F0006083D80194964C919497542F51705BA3C7
:100A000041FB552750F95CA342FB552750F95DA3E4
:100A100043FB442740F94EA395964C91959744FB90
:100A2000552750F95FA346FB552750F958A79A96CA
:100A30005C919A9759A745FB442740F94AA79B9692
:100A40004C919B974BA796964C9196974CA797964F
:100A50004C9197974DA798964C9198974EA7999639
:100A60004C9199974FA7D9964C91D997542F517083
:100A70005E8B41FB552750F95F8B42FB552750F9A0
:100A8000588F43FB442740F9498FDA964C91DA9707
:100A900044FB552750F95A8F46FB552750F95B8F79
:100AA000DF965C915C8F45FB442740F94D8FF80140
:100AB000E05CFF4F40814E8FF80143AD4F8F44AD56
:100AC00048A345AD49A346AD4AA34DE0E6E0F1E0B9
:100AD000DE01119601900D924A95E1F7FE013196E3
:100AE000BE016A5E7F4FAE014D5D5F4F3E01A9E0E2
:100AF0006A0E711C67017C015190DB012D90BD01D4
:100B0000DA013D90AD01852D90E0DC01AA0FBB1FFD
:100B1000A80FB91FAE0DBF1DAC0DBD1D12965C9286
:100B20000196DC01AA0FBB1F8A0F9B1F8E0D9F1D14
:100B3000D601A80FB91F832D90E0821991098D93DA
:100B40009C93E615F705C1F64394F901408285E1CF
:100B5000F801BC96D801579601900D928A95E1F75D
:100B6000F801EF5BFF4F91828082AF960FB6F89449
:100B7000DEBF0FBECDBFDF91CF911F910F91FF90D0
:100B8000EF90DF90CF90BF90AF909F908F907F902D
:100B90006F905F904F903F902F900895FC01178ABF
:100BA0000895CF92DF92EF92FF920F931F93CF930E
:100BB000DF938C01EB018DEB90E00E94CE02D80117
:100BC00057968C91579781110CC085E1FE011296C2
:100BD00001900D928A95E1F7F801118E108E128E18
:100BE000B2C0D8015A962C915A975B96ED90FC9022
:100BF0005C97422F50E0F701E852FD4F808190E072
:100C00000197481759070CF09CC0BAE12B9FE00CE4
:100C1000F11C1124C12CD12CD7011296EC918E2FEE
:100C200090E08D30910508F059C0FC01EC5CFF4F5D
:100C3000D70113968C910C94FF0B9D85292F217061
:100C4000820F80FB90F907C09D8591FB222720F938
:100C5000820F80FB91F99D8745C09D8592FB2227DD
:100C600020F9820F80FB92F9F6CF9D8593FB222716
:100C700020F9820F80FB93F9EECF9E8594FB22270B
:100C800020F9820F80FB94F913C09E8596FB2227E2
:100C900020F9820F80FB96F90BC09B89890F8B8B03
:100CA00021C09E8595FB222720F9820F80FB95F9B4
:100CB0009E8718C09C89890F8C8B14C09F85890FD3
:100CC0008F8710C09889890F888B0CC09989890FEC
:100CD000898B08C09A89890F8A8B04C083EA90E0C7
:100CE0000E94B302BFEFCB1ADB0AE3E0EE0EF11C69
:100CF000F8E0CF16D10409F08FCFD8015A968C9125
:100D00005A97482F50E04F5F5F4F9AE1949F9001B0
:100D1000959F300D11245B96ED91FC915C97E20F4D
:100D2000F31F58962D913C91599740815181241B76
:100D3000350B59963C932E9358978F5F5A968C9308
:100D400002C0F801178ADF91CF911F910F91FF9098
:100D5000EF90DF90CF900895FC011192119288E1FD
:100D6000DF011D928A95E9F708950F931F93CF93A2
:100D7000DF93EC01FC018BE291E08193919385E19B
:100D8000DF01982F1D929A95E9F7FE017796DF0112
:100D9000982F1D929A95E9F77596DF011D928A9515
:100DA000E9F7759611821082329610828E010C5BE3
:100DB0001F4FC8010E94AC06C8014A960E94AC06AB
:100DC000C801C4960E94AC06CE018E569F4F0E9469
:100DD000AC06CE0184559F4F0E94AC06CE018A53CB
:100DE0009F4F0E94AC06CE0180529F4F0E94AC06DE
:100DF000CE0186509F4F0E94AC06CE018C5E9E4F66
:100E00000E94AC06CE01825D9E4F0E94AC06CE01D0
:100E1000885B9E4F0E94AC06CE018E599E4F0E9469
:100E2000AC06CE0184589E4F0E94AC06CE018A5675
:100E30009E4F0E94AC06CE0180559E4F0E94AC068C
:100E4000CE0186539E4F0E94AC06CE018C519E4F20
:100E50000E94AC06CE0182509E4F0E94AC06CE018D
:100E6000885E9D4F0E94AC06CE018E5C9D4F0E9415
:100E7000AC06CE01845B9D4F0E94AC06CE018A5920
:100E80009D4F0E94AC06CE0180589D4F0E94AC063B
:100E9000CE0186569D4F0E94AC06CE018C549D4FCC
:100EA0000E94AC06CE0182539D4F0E94AC06CE013B
:100EB00088519D4F0E94AC06CE018E5F9C4F0E94D0
:100EC000AC06C45EDC4F1882DF91CF911F910F9169
:100ED000089508958DE990E00C94CE020F931F932E
:100EE000CF93DF93EC018B0187E990E00E94CE0263
:100EF0009A81F8018585992311F08B7F02C0846067
:100F0000F80185879A8181E089278A83DF91CF91D3
:100F10001F910F9108950F931F93CF93DF93EC01CF
:100F20008B0182E890E00E94CE028A81811106C086
:100F30008AEEF801878782E08A8306C0823021F436
:100F400080E2F80187871A82DF91CF911F910F917C
:100F500008950E94190CEF92FF920F931F93CF9365
:100F6000DF938C01EB0181E990E00E94CE02F80151
:100F700092818E85992339F08F7B8E8780E28B8BCF
:100F80008FE78F8721C080648E878AEE8B8B0E94CB
:100F9000780B7C01F1E0EF22FF2480FF08C00E9463
:100FA000780B6AEC70E00E94EB0B805E01C08AEE69
:100FB0008F87EF2841F40E94780B6AEC70E00E9462
:100FC000EB0B8F5D01C08AEE888BF801928181E086
:100FD00089278283DF91CF911F910F91FF90EF902E
:100FE00008950F931F93CF93DF93EB018AE890E06E
:100FF0000E94CE020E94780B8C010170112780FFA5
:1010000008C00E94780B6AEC70E00E94EB0B805ED7
:1010100001C08AEE8F87012B41F40E94780B6AECA5
:1010200070E00E94EB0B8F5D01C08AEE888BDF9130
:10103000CF911F910F9108951F920F920FB60F92AB
:1010400011242F933F938F939F93AF93BF938091DE
:101050006D0190916E01A0916F01B091700130917E
:101060006C0123E0230F2D3720F40196A11DB11D43
:1010700005C026E8230F0296A11DB11D20936C0127
:1010800080936D0190936E01A0936F01B0937001F6
:101090008091710190917201A0917301B0917401DE
:1010A0000196A11DB11D8093710190937201A093CF
:1010B0007301B0937401BF91AF919F918F913F9154
:1010C0002F910F900FBE0F901F9018951F920F92A7
:1010D0000FB60F9211242F933F934F935F936F930B
:1010E0007F938F939F93AF93BF93EF93FF9385E786
:1010F00091E00E944402FF91EF91BF91AF919F91C7
:101100008F917F916F915F914F913F912F910F90B0
:101110000FBE0F901F9018951F920F920FB60F924F
:1011200011242F938F939F93EF93FF93E091850169
:10113000F09186018081E0918B01F0918C0182FD1C
:1011400012C0908180918E018F5F8F7320918F01EB
:10115000821751F0E0918E01F0E0EB58FE4F958F31
:1011600080938E0101C08081FF91EF919F918F91BB
:101170002F910F900FBE0F901F901895FC010FB686
:10118000F8946091C6087091C7088091C808909142
:10119000C9080FBE309721F06083718382839383E7
:1011A00008955F926F927F928F929F92AF92BF92BB
:1011B000CF92DF92EF92FF920F931F93CF93DF9323
:1011C000E5E7F1E01382128288EE93E0A0E0B0E060
:1011D00084839583A683B78383E391E0918380839F
:1011E00085EC90E09587848784EC90E097878687EC
:1011F00080EC90E0918B808B81EC90E0938B828BE4
:1012000082EC90E0958B848B86EC90E0978B868BBC
:10121000118E128E138E148E8BE1682E82E0782E42
:1012200095E6892E91E0992ED3018D929C92E8E16A
:10123000F2E02DE5A22E21E0B22EB182A082128230
:10124000E5E1F2E035E5C32E31E0D32ED182C08254
:101250001282E2E1F2E04DE4E42E41E0F42EF1826C
:10126000E08212828DE192E00E94B506CAE3D5E0E9
:1012700005E411E01983088355E1552EECE3F5E010
:10128000DF01852D1D928A95E9F71F8A198E188E28
:101290001A8E81E692E09C8F8B8F9092C508809287
:1012A000C408E1ECF8E0B182A0821282EEEBF8E033
:1012B000D182C0821282EBEBF8E0F182E0821282EE
:1012C0008EE995E00E94B506E1E8F5E01183008320
:1012D00083E895E0DC011D925A94E9F7178A118E94
:1012E000108E128E82EE95E0948F838F83E0809330
:1012F0008005E7E5F5E010821182128213821482E4
:1013000084E085838091130190911401A0911501CF
:10131000B091160186839783A087B187D387C28750
:101320008091170190911801A0911901B0911A01B3
:1013300084879587A687B7878DE192E0918B808B14
:10134000738A628ADF91CF911F910F91FF90EF9086
:10135000DF90CF90BF90AF909F908F907F906F90D5
:101360005F900895CF93DF93CDB7DEB765970FB643
:10137000F894DEBF0FBECDBF789484B5826084BD83
:1013800084B5816084BD85B5826085BD85B5816089
:1013900085BD80916E00816080936E001092810007
:1013A00080918100826080938100809181008160C2
:1013B0008093810080918000816080938000809183
:1013C000B10084608093B1008091B000816080930F
:1013D000B00080917A00846080937A0080917A00D6
:1013E000826080937A0080917A00816080937A0095
:1013F00080917A00806880937A001092C10080E02A
:1014000090E00E94BE08CB010E947D0BE6E5F1E072
:101410002491E2E4F1E08491882399F090E0880F30
:10142000991FFC01EE5FFE4FA591B491FC01E55DB3
:10143000FE4F859194918FB7F894EC91E22BEC9349
:101440008FBFE0918501F091860182E08083E09179
:101450008101F09182011082E0918301F091840179
:1014600080E1808310928D01E0918901F0918A01E1
:1014700086E08083E0918701F0918801808180611E
:101480008083E0918701F09188018081886080836A
:10149000E0918701F0918801808180688083E091EC
:1014A0008701F091880180818F7D808311E480E441
:1014B000F82E80916B0590916C05892BB9F0909175
:1014C0006D0593FB992790F980918005F98223E0BF
:1014D0002A839B8308E028E735E043E0BE016F5F85
:1014E0007F4F0E949203883029F10EC080918005C1
:1014F000198203E02BE635E041E0BE016F5F7F4FCC
:101500000E949203833039F010926B0510926C05A3
:1015100010926D0599C08091800519830AE02EE62E
:1015200035E041E0BE016F5F7F4F0E9492038A3039
:1015300031F28AC08091780585FDE6CF85E1EBE642
:10154000F5E0DE01119601900D928A95E1F78F8505
:10155000982F917080FF03C09093570511C0809120
:101560005705882369F0109257058EE191E00E949B
:10157000CE0246E251E06DE575E080E00E942D016B
:101580008F8583FB992790F983FF03C090935805BB
:1015900011C080915805882369F01092580588E1A0
:1015A00091E00E94CE0245E251E061E675E081E003
:1015B0000E942D018F8581FB992790F981FF03C03F
:1015C0009093590511C080915905882369F01092B4
:1015D000590582E191E00E94CE0244E251E063E6C7
:1015E00075E082E00E942D018F8582FB992790F99A
:1015F00082FF03C090935A0511C080915A05882339
:1016000069F010925A058CE091E00E94CE0243E20C
:1016100051E067E675E083E00E942D018091690545
:1016200090916A05DC01ED91FC910190F081E02D33
:10163000BE016F5F7F4F09950E94980180E00E9474
:10164000E4000E94020335CF84E291E00E94CE02C2
:1016500081E00E94E400F0CF8F929F92AF92BF9200
:10166000CF92DF92EF92FF92CF93DF93EC016881EC
:1016700079818A819B81611571058105910521F42C
:1016800064E279ED8BE597E02DE133EF41E050E046
:101690000E94880B49015A019B01AC01A7EAB1E401
:1016A0000E94A70B6B017C01ACEEB4EFA501940185
:1016B0000E94B50BDC01CB018C0D9D1DAE1DBF1D25
:1016C000B7FF03C00197A109B04888839983AA8313
:1016D000BB839F77DF91CF91FF90EF90DF90CF900A
:1016E000BF90AF909F908F9008950E942C0B08950B
:1016F00082E091E00E942C0B0895A0E0B0E080937E
:10170000020190930301A0930401B0930501089591
:10171000052E97FB1EF400940E949F0B57FD07D0E7
:101720000E94BA0B07FC03D04EF40C949F0B50950B
:101730004095309521953F4F4F4F5F4F08959095BD
:101740008095709561957F4F8F4F9F4F08950E94B0
:10175000DC0BA59F900DB49F900DA49F800D911D53
:1017600011240895B7FF0C94A70B0E94A70B821BAE
:10177000930B0895A1E21A2EAA1BBB1BFD010DC0FD
:10178000AA1FBB1FEE1FFF1FA217B307E407F50731
:1017900020F0A21BB30BE40BF50B661F771F881F0D
:1017A000991F1A9469F760957095809590959B01A3
:1017B000AC01BD01CF010895A29FB001B39FC0014C
:1017C000A39F700D811D1124911DB29F700D811D6D
:1017D0001124911D089597FB072E16F4009407D04D
:1017E00077FD09D00E94050C07FC05D03EF49095CA
:1017F00081959F4F0895709561957F4F0895EE0FE5
:10180000FF1F0590F491E02D0994AA1BBB1B51E129
:1018100007C0AA1FBB1FA617B70710F0A61BB70B60
:10182000881F991F5A95A9F780959095BC01CD0105
:10183000089581E090E0F8940C941E0CF894FFCF8A
:101840001F0101000000000102030804050607094A
:101850000A0B0C180200011202150200000000F130
:101860000769070102010200000000E203DD030036
:101870000000006602CF01FD01E0022E020C0220F2
:101880000200000000D105CE05000000006E0769CF
:101890000700000000AB076907000000008B076924
:0C18A00007000000006A0769070D0A003D
:00000001FF
