:100000000C94BA000C94E2000C94E2000C94E20010
:100010000C94E2000C94E2000C94E2000C94E200D8
:100020000C94E2000C94E2000C94E2000C94E200C8
:100030000C94E2000C94E2000C94E2000C94E200B8
:100040000C94D0080C94E2000C94BB060C9495061A
:100050000C94E2000C94E2000C94E2000C94E20098
:100060000C94E2000C94E20095059C05A505AD05F5
:10007000BD05C505C905D205B505D605DA05DE05F8
:10008000E2056C7264695F6D69007264695F6D6935
:10009000006D615F6D69006D6A5F6D69004E4F4D67
:1000A0004F4400496E76616C696420636F6E7472B0
:1000B0006F6C6C657220696E707574210069705F79
:1000C0006D690052656163686564206D61782073B5
:1000D000746F726167652076616C75652120537459
:1000E0006F7070696E67207265636F7264696E67A6
:1000F000210069725F6D6900000000002300260086
:10010000290000000000240027002A00646F5F72AD
:10011000650072695F72650075705F7265006C657D
:100120005F726500455252454144000000000025C1
:100130000028002B00040404040404040402020246
:100140000202020303030303030102040810204018
:1001500080010204081020010204081020000000A1
:100160000800020100000304070000000000000076
:100170000000D10A11241FBECFEFD8E0DEBFCDBFF3
:1001800011E0A0E0B1E0ECE4F9E102C005900D92CD
:10019000A036B107D9F728E0A0E6B1E001C01D9272
:1001A000AE3DB207E1F710E0CAEBD0E004C0219702
:1001B000FE010E94850CC93BD107C9F70E942D0999
:1001C0000C94A40C0C940000CF92DF92EF92FF925B
:1001D0000F931F93CF93DF936C017A018B01C0E0E3
:1001E000D0E0CE15DF0581F0D8016D918D01D601EB
:1001F000ED91FC910190F081E02DC6010995892BCC
:1002000011F02196EECF7E01C701DF91CF911F91B2
:100210000F91FF90EF90DF90CF900895089580E0C8
:1002200090E00895FC01538D448D252F30E0842FFC
:1002300090E0821B930B541710F0CF96089501970E
:100240000895FC01918D828D981761F0828DDF01F8
:10025000A80FB11D5D968C91928D9F5F9F73928FB9
:1002600090E008958FEF9FEF0895FC01918D828DAE
:10027000981731F0828DE80FF11D858D90E008957B
:100280008FEF9FEF0895FC01918D228D892F90E0D3
:10029000805C9F4F821B91098F739927089584E694
:1002A00091E00E94430121E0892B09F420E0822F94
:1002B0000895FC01848DDF01A80FB11DA35ABF4F23
:1002C0002C91848D90E001968F739927848FA68955
:1002D000B7892C93A089B1898C91837080648C93A9
:1002E000938D848D981306C00288F389E02D808158
:1002F0008F7D80830895EF92FF920F931F93CF938A
:10030000DF93EC0181E0888F9B8D8C8D981305C065
:10031000E889F989808185FD26C0F62E0B8D10E0D5
:100320000F5F1F4F0F731127E02E8C8DE8120CC04A
:100330000FB607FCFACFE889F989808185FFF5CFF0
:10034000CE010E945901F1CF8B8DFE01E80FF11D06
:10035000E35AFF4FF0829FB7F8940B8FEA89FB892D
:10036000808180620AC09FB7F894EE89FF8960831C
:10037000E889F98980818370806480839FBF81E0F0
:1003800090E0DF91CF911F910F91FF90EF90089532
:10039000CF93DF93EC01888D8823C9F0EA89FB892C
:1003A000808185FD05C0A889B9898C9186FD0FC023
:1003B0000FB607FCF5CF808185FFF2CFA889B989F8
:1003C0008C9185FFEDCFCE010E945901E7CFDF91DF
:1003D000CF91089580E090E0892B29F00E944F0191
:1003E00081110C9400000895EF920F931F93F9016F
:1003F000DA013C912E2D209532233C9330813E2909
:100400003083FC01D80198E080E030E020E04C919E
:100410004E2189F02A95D9F720E04C914E2159F0D0
:100420002A95D9F720E84C914E2129F02A95D9F741
:100430003A9561F717C047E04A95F1F7000031E0BF
:10044000550F4C914E2109F051609A9529F4519322
:10045000839598E0681731F020E84C914E2111F710
:100460002A95D9F71F910F91EF9008950F931F933D
:10047000F9012081202B2083DA012C91202B2C9351
:1004800020814081202B30E010E00095109550E055
:1004900004231523DC015D9148E00083550F40F4EF
:1004A00074E07A95F1F720837AE07A95F1F705C048
:1004B0007EE07A95F1F7000020834A9529F073E0F9
:1004C0007A95F1F70000E9CF6A9529F071E07A9505
:1004D000F1F70000E0CF72E07A95F1F7000000003C
:1004E000008374E07A95F1F70000000020831F91EB
:1004F0000F9108957F928F929F92AF92BF92CF9269
:10050000DF92EF92FF920F931F93CF93DF93DB0164
:10051000642F5901F02E282F30E0F901E75BFE4FE0
:10052000E490F901EB5CFE4F249130E0220F331F81
:10053000F901EE5FFE4FC591D491F901E55DFE4FE3
:10054000C590D490F901E850FF4F859094907FB604
:10055000F8940E2D9601AE01CD010E943602840161
:100560009601AE016F2DC5010E94F4017FBEDF919F
:10057000CF911F910F91FF90EF90DF90CF90BF90A0
:10058000AF909F908F907F9008958D5B9F4FFC015F
:1005900010820895FC01178A089508952F923F92C2
:1005A0004F925F926F927F928F929F92AF92BF9283
:1005B000CF92DF92EF92FF920F931F93CF93DF932F
:1005C000CDB7DEB7E1970FB6F894DEBF0FBECDBF53
:1005D0008C014B0182EF90E00E942D08C8018D5BD9
:1005E0009F4FDC012C91211127C025E1F401DE0190
:1005F000119601900D922A95E1F7F801E65DFC4F06
:10060000108225E1FE013196D801129601900D92DB
:100610002A95E1F725E1FE013196D8015796019020
:100620000D922A95E1F7F801EF5BFF4F11821082DE
:1006300021E0FC012083D3C185E1F401D8019C961F
:1006400001900D928A95E1F788E0F801B496DE01F9
:10065000569601900D928A95E1F7D80196967C9076
:10066000969797968C90979798969C90989799962E
:100670003C9199979A967C919A979B965C9188E089
:10068000F801F996DE01119601900D928A95E1F735
:100690009E89898189278F7009F056C0F80143AD82
:1006A00024AD95AD86ADE7ADD801A05CBF4F6C9190
:1006B000AF89FA81AF27FA2FF07509F045C0F0E055
:1006C000E71BF109F7FF03C0F195E195F1093A97AE
:1006D000DCF5A5FD39C070E0651B710977FF03C02B
:1006E0007195619571096A30710574F550E047198B
:1006F000510957FF03C05195419551094A305105A1
:100700001CF5422F50E04819510957FF03C051957D
:10071000419551094A305105BCF4492F50E049191F
:10072000510957FF03C05195419551094A30510570
:100730005CF490E0831B910997FF03C0919581952C
:1007400091090A970CF44BC1F801EC5BFF4F48018B
:1007500066ED861A6CEF960AD4018C918D30E0F02C
:1007600083EC90E0E1960FB6F894DEBF0FBECDBFEC
:10077000DF91CF911F910F91FF90EF90DF90CF907D
:10078000BF90AF909F908F907F906F905F904F90B1
:100790003F902F900C942D088FB7F89440906001F3
:1007A0005090610160906201709063018FBFD4012D
:1007B0008C91B5E38B9FE00DF11D112498012F5B07
:1007C0003F4FD9014D915C91B201641B750B718350
:1007D0006083D80194969C91949790FBCC24C0F8A8
:1007E000D12CD9969C91D99790FBAA24A0F8B12C32
:1007F000CA18DB081282D482C38294969C91949783
:1008000091FBEE24E0F8F12CD9969C91D99791FBBD
:10081000222420F8312CE218F30891E09583F78226
:10082000E68294969C91949792FB992790F99E8FDB
:100830001F8ED9969C91D99792FB992790F998A3EE
:1008400019A24E8D5F8D68A179A1461B570B92E0CE
:1008500090875287418794969C91949793FB992710
:1008600090F99AA31BA2D9969C9193FB992790F992
:100870009CA31DA24AA15BA1ACA1BDA14A1B5B0B1D
:1008800093E0938755874487D80195969C919597D7
:10089000929591709EA31FA2DA969C91DA979295F9
:1008A000917098A719A64EA15FA168A579A5461BCE
:1008B000570B98E0928F548F438F95969C91959704
:1008C00096FB992790F99AA71BA6DA969C9196FB1E
:1008D000992790F99CA71DA64AA55BA5ACA5BDA527
:1008E0004A1B5B0B94E09687508B4787D8019A96FA
:1008F0004C919A9750E0DF969C91DF97491B5109E4
:1009000095E0918B538B428B95969C91959795FB97
:10091000992790F99EA71FA6DA969C91DA9795FBE6
:10092000992790F998AB19AA4EA55FA568A979A94E
:10093000461B570B96E0948B568B458B9B964C91A0
:1009400050E0B801605C7F4FDB019C91491B51096D
:1009500097E0978B518F408FD80196964C91969740
:1009600050E0DB969C91DB97491B510999E0958FEC
:10097000578F468F97964C91979750E0DC969C91B5
:10098000DC97491B51099AE090A352A341A3989682
:100990004C91989750E0DD969C91DD97491B510949
:1009A0009BE093A355A344A399964C91999750E04B
:1009B000DE969C91DE97491B51099CE096A350A7B7
:1009C00047A38F5FF401808385E1F801BC965796B9
:1009D00001900D928A95E1F7D9014D925C92E196D2
:1009E0000FB6F894DEBF0FBECDBFDF91CF911F9140
:1009F0000F91FF90EF90DF90CF90BF90AF909F90BE
:100A00008F907F906F905F904F903F902F900895C0
:100A10008DE990E00C942D080F931F93CF93DF93F3
:100A2000EC018B0187E990E00E942D089A81F80182
:100A30008585992311F08B7F02C08460F80185873A
:100A40009A8181E089278A83DF91CF911F910F914D
:100A500008950F931F93CF93DF93EC018B0182E8EE
:100A600090E00E942D088A81811106C08AEEF8016B
:100A7000878782E08A8306C0823021F480E2F80111
:100A800087871A82DF91CF911F910F9108950E945D
:100A90009F0CCF92DF92EF92FF920F931F93CF9311
:100AA000DF938C01EB018DEB90E00E942D08D801C3
:100AB00057968C91579781110CC085E1FE011296D3
:100AC00001900D928A95E1F7F801118E108E128E29
:100AD000B2C0D8015A962C915A975B96ED90FC9033
:100AE0005C97422F50E0F701EA51FD4F808190E082
:100AF0000197481759070CF09CC0B5E32B9FE00CF9
:100B0000F11C1124C12CD12CD7011296EC918E2FFF
:100B100090E08D30910508F059C0FC01EC5CFF4F6E
:100B2000D70113968C910C94850C9D85292F2170EB
:100B3000820F80FB90F907C09D8591FB222720F949
:100B4000820F80FB91F99D8745C09D8592FB2227EE
:100B500020F9820F80FB92F9F6CF9D8593FB222727
:100B600020F9820F80FB93F9EECF9E8594FB22271C
:100B700020F9820F80FB94F913C09E8596FB2227F3
:100B800020F9820F80FB96F90BC09B89890F8B8B14
:100B900021C09E8595FB222720F9820F80FB95F9C5
:100BA0009E8718C09C89890F8C8B14C09F85890FE4
:100BB0008F8710C09889890F888B0CC09989890FFD
:100BC000898B08C09A89890F8A8B04C083EA90E0D8
:100BD0000E941208BFEFCB1ADB0AE3E0EE0EF11C15
:100BE000F1E1CF16D10409F08FCFD8015A968C913C
:100BF0005A97482F50E04F5F5F4F95E3949F9001C5
:100C0000959F300D11245B96ED91FC915C97E20F5E
:100C1000F31F58962D913C91599740815181241B87
:100C2000350B59963C932E9358978F5F5A968C9319
:100C300002C0F801178ADF91CF911F910F91FF90A9
:100C4000EF90DF90CF900895EF92FF920F931F9354
:100C5000CF93DF938C01EB0181E990E00E942D0896
:100C6000F80192818E85992339F08F7B8E8780E2FF
:100C70008B8B8FE78F8721C080648E878AEE8B8B6A
:100C80000E94FE0B7C01F1E0EF22FF2480FF08C0F0
:100C90000E94FE0B6AEC70E00E94710C805E01C045
:100CA0008AEE8F87EF2841F40E94FE0B6AEC70E019
:100CB0000E94710C8F5D01C08AEE888BF8019281D1
:100CC00081E089278283DF91CF911F910F91FF905F
:100CD000EF9008950F931F93CF93DF93EB018AE872
:100CE00090E00E942D080E94FE0B8C0101701127DC
:100CF00080FF08C00E94FE0B6AEC70E00E94710C3D
:100D0000805E01C08AEE8F87012B41F40E94FE0BAA
:100D10006AEC70E00E94710C8F5D01C08AEE888BD6
:100D2000DF91CF911F910F9108951F920F920FB6EF
:100D30000F9211242F933F934F935F936F937F9361
:100D40008F939F93AF93BF93EF93FF9384E691E0CC
:100D50000E945901FF91EF91BF91AF919F918F91A7
:100D60007F916F915F914F913F912F910F900FBEA7
:100D70000F901F9018951F920F920FB60F9211248B
:100D80002F938F939F93EF93FF93E0917401F091D2
:100D900075018081E0917A01F0917B0182FD12C0A2
:100DA000908180917D018F5F8F7320917E018217EA
:100DB00051F0E0917D01F0E0EC59FE4F958F80936A
:100DC0007D0101C08081FF91EF919F918F912F91C3
:100DD0000F900FBE0F901F901895FC011192119269
:100DE00083E3DF011D928A95E9F708953FB7F894F0
:100DF00080912C0290912D02A0912E02B0912F0291
:100E000026B5A89B05C02F3F19F00196A11DB11D65
:100E10003FBFBA2FA92F982F8827820F911DA11DA0
:100E2000B11DBC01CD0142E0660F771F881F991FDD
:100E30004A95D1F708950F931F93CF93DF93EC0159
:100E4000FC018EE191E08193919385E1DF01982F80
:100E50001D929A95E9F7FE017796DF01982F1D9272
:100E60009A95E9F77596DF011D928A95E9F77596CF
:100E700011821082329610828E010C5B1F4FC801C6
:100E80000E94ED06C801C5960E94ED06CE0182556E
:100E90009F4F0E94ED06CE018D519F4F0E94ED069F
:100EA000CE01885E9E4F0E94ED06CE01835B9E4F71
:100EB0000E94ED06CE018E579E4F0E94ED06CE0198
:100EC00089549E4F0E94ED06CE0184519E4F0E9490
:100ED000ED06CE018F5D9D4F0E94ED06CE018A5A30
:100EE0009D4F0E94ED06CE0185579D4F0E94ED0655
:100EF000CE0180549D4F0E94ED06CE018B509D4F38
:100F00000E94ED06C65DDC4F1882DF91CF911F91E4
:100F10000F910895EAE6F1E09491E6E5F1E024917D
:100F2000E2E4F1E0E491EE2309F43CC0992339F1C5
:100F3000933091F038F49130A9F0923001F594B5E6
:100F40009F7D12C0973091F09830A1F09430B9F4A1
:100F5000909180009F7D03C0909180009F77909337
:100F600080000DC094B59F7794BD09C09091B000EA
:100F70009F7703C09091B0009F7D9093B000F0E008
:100F8000EE0FFF1FE55DFE4FA591B4919FB7F8945A
:100F9000811104C08C912095282302C0EC912E2B46
:100FA0002C939FBF08958F929F92AF92BF92CF9242
:100FB000DF92EF92FF920E94F6064B015C018AE0FD
:100FC000C82ED12CE12CF12C0E94F606DC01CB01BD
:100FD00088199909AA09BB09883E9340A105B10562
:100FE00098F321E0C21AD108E108F10888EE880ED2
:100FF00083E0981EA11CB11CC114D104E104F104CA
:1010000019F7FF90EF90DF90CF90BF90AF909F9037
:101010008F90089542E050E06CE571E084E691E045
:101020000C94E4000F931F93CF93DF938C01C0E0E7
:10103000D0E0F801EC0FFD1F6491662341F084E6D7
:1010400091E00E947B01892B11F02196F2CFCE0115
:10105000DF91CF911F910F910895CF93DF930E945D
:101060001208EC010E940A088C0F9D1FDF91CF919E
:1010700008958F929F92AF92BF920F931F93CF9339
:10108000DF93CDB7DEB7A1970FB6F894DEBF0FBEE2
:10109000CDBF19A2423008F44AE08E010F5D1F4F08
:1010A000842E912CA12CB12CA50194010E94400CFE
:1010B000E62FB901CA0101501109EA3014F4E05DCC
:1010C00001C0E95CD801EC93232B242B252B61F77D
:1010D0000115110571F0F80101900020E9F7319731
:1010E000AF01401B510BB80184E691E00E94E4007F
:1010F00002C080E090E0A1960FB6F894DEBF0FBE6C
:10110000CDBFDF91CF911F910F91BF90AF909F9076
:101110008F900895EF92FF921F93CF93DF93182F34
:10112000EB017A018091130290911402DC01ED91A0
:10113000FC910280F381E02D09958091060218133D
:101140001FC080910502482F50E04F5F5F4FF701AD
:10115000208130E0421753075CF48F5F80930502D3
:10116000FE01E80FF11DE80FF11D808191810EC095
:1011700084E0809306021092050289E392E006C0A3
:1011800010930602109205028881998190931402AF
:1011900080931302DF91CF911F91FF90EF900895FC
:1011A0001F920F920FB60F9211242F933F938F939C
:1011B0009F93AF93BF938091600190916101A09143
:1011C0006201B091630130912B0223E0230F2D3790
:1011D00020F40196A11DB11D05C026E8230F02963B
:1011E000A11DB11D20932B0280936001909361019A
:1011F000A0936201B093630180912C0290912D0223
:10120000A0912E02B0912F020196A11DB11D8093D5
:101210002C0290932D02A0932E02B0932F02BF9127
:10122000AF919F918F913F912F910F900FBE0F9093
:101230001F901895FC010FB6F8946091DA08709130
:10124000DB088091DC089091DD080FBE309721F01B
:1012500060837183828393830895CF93DF93CDB7A7
:10126000DEB767970FB6F894DEBF0FBECDBF789498
:1012700084B5826084BD84B5816084BD85B582609B
:1012800085BD85B5816085BD80916E00816080934C
:101290006E001092810080918100826080938100B5
:1012A00080918100816080938100809180008160C5
:1012B000809380008091B10084608093B100809120
:1012C000B00081608093B00080917A008460809348
:1012D0007A0080917A00826080937A0080917A000F
:1012E000816080937A0080917A00806880937A0090
:1012F0001092C10080E090E00E941A09CB010E9488
:10130000030CE6E5F1E02491E2E4F1E08491882326
:1013100099F090E0880F991FFC01EE5FFE4FA591B8
:10132000B491FC01E55DFE4F859194918FB7F894DF
:10133000EC91E22BEC938FBFE0917401F091750179
:1013400082E08083E0917001F09171011082E09160
:101350007201F091730180E1808310927C01E09131
:101360007801F091790186E08083E0917601F09137
:101370007701808180618083E0917601F09177012F
:10138000808188608083E0917601F091770180818F
:1013900080688083E0917601F091770180818F7D74
:1013A000808311E480E4982E5E0186E1A80EB11CD2
:1013B0008091150290911602892BB9F09091170235
:1013C00093FB992790F980912A02998223E02A833E
:1013D0009B8308E022E232E043E0BE016F5F7F4F73
:1013E0000E947A02883029F10EC080912A02198267
:1013F00003E025E132E041E0BE016F5F7F4F0E94D4
:101400007A02833039F0109215021092160210926F
:101410001702BFC080912A0219830AE028E132E056
:1014200041E0BE016F5F7F4F0E947A028A3031F245
:10143000B0C08091220285FDE6CF85E1E5E1F2E0D2
:10144000DE01119601900D928A95E1F78F85982F14
:10145000917080FF03C09093010211C0809101023E
:10146000882369F0109201028EE191E00E942D081C
:1014700049E051E067E072E080E00E948A088F85D1
:1014800083FB992790F983FF03C09093020211C058
:1014900080910202882369F01092020288E191E0B3
:1014A0000E942D0848E051E06BE072E081E00E946C
:1014B0008A088F8581FB992790F981FF03C090935B
:1014C000030211C080910302882369F01092030285
:1014D00082E191E00E942D0847E051E06DE072E06A
:1014E00082E00E948A088F8582FB992790F982FF0B
:1014F00003C09093040211C080910402882369F014
:10150000109204028CE091E00E942D0846E051E028
:1015100061E172E083E00E948A0880911302909159
:101520001402DC01ED91FC910190F081E02DBE01EF
:101530006F5F7F4F09958091D6089091D7080097EB
:1015400011F48EED98E06501C81AD90A0D2C000C33
:10155000EE08FF08F7FE0EC06DE284E691E00E94FF
:101560007B0166277727CB016C197D098E099F09BE
:101570004AE003C04AE0C701B6010E9439080E9450
:101580000A080E94D30780E00E948A070E94EA01AD
:101590000FCF84E291E00E942D0881E00E948A072B
:1015A000F0CF5F926F927F928F929F92AF92BF9295
:1015B000CF92DF92EF92FF920F931F93CF93DF931F
:1015C000E4E6F1E01382128288EE93E0A0E0B0E05E
:1015D00084839583A683B78386E291E09183808399
:1015E00085EC90E09587848784EC90E097878687E8
:1015F00080EC90E0918B808B81EC90E0938B828BE0
:1016000082EC90E0958B848B86EC90E0978B868BB8
:10161000118E128E138E148E89E3682E82E0782E3E
:1016200098E5892E91E0992ED3018D929C92E6E364
:10163000F2E020E5A22E21E0B22EB182A082128239
:10164000E3E3F2E038E4C32E31E0D32ED182C0824E
:101650001282E0E3F2E040E4E42E41E0F42EF18275
:10166000E08212828BE392E00E941B07C6E6D5E07F
:1016700008E311E01983088355E1552EE8E6F5E00B
:10168000DF01852D1D928A95E9F71F8A198E188E24
:101690001A8E8FE792E09C8F8B8F9092D508809264
:1016A000D408E1EDF8E0B182A0821282EEECF8E01D
:1016B000D182C0821282EBECF8E0F182E0821282E9
:1016C00080EA95E00E941B07E3E8F5E011830083C0
:1016D00085E895E0DC011D925A94E9F7178A118E8E
:1016E000108E128E84EE95E0948F838F83E080932A
:1016F0002A02E1E0F2E01082118212821382148247
:1017000084E0858380910A0190910B01A0910C01E6
:10171000B0910D0186839783A087B187D387C28755
:1017200080910E0190910F01A0911001B0911101D3
:1017300084879587A687B7878BE392E0918B808B10
:10174000738A628ADF91CF911F910F91FF90EF9082
:10175000DF90CF90BF90AF909F908F907F906F90D1
:101760005F9008958F929F92AF92BF92CF92DF9237
:10177000EF92FF92CF93DF93EC01688179818A81A8
:101780009B81611571058105910521F464E279ED74
:101790008BE597E02DE133EF41E050E00E940E0C25
:1017A00049015A019B01AC01A7EAB1E40E942D0C4A
:1017B0006B017C01ACEEB4EFA50194010E943B0CDF
:1017C000DC01CB018C0D9D1DAE1DBF1DB7FF03C0FD
:1017D0000197A109B04888839983AA83BB839F7727
:1017E000DF91CF91FF90EF90DF90CF90BF90AF90BF
:1017F0009F908F9008950E94B20B089582E091E02F
:101800000E94B20B0895A0E0B0E080930201909393
:101810000301A0930401B09305010895052E97FBE1
:101820001EF400940E94250C57FD07D00E94400C26
:1018300007FC03D04EF40C94250C50954095309540
:1018400021953F4F4F4F5F4F08959095809570952C
:1018500061957F4F8F4F9F4F08950E94620CA59F07
:10186000900DB49F900DA49F800D911D112408959B
:10187000B7FF0C942D0C0E942D0C821B930B089526
:10188000A1E21A2EAA1BBB1BFD010DC0AA1FBB1F84
:10189000EE1FFF1FA217B307E407F50720F0A21BF6
:1018A000B30BE40BF50B661F771F881F991F1A9463
:1018B00069F760957095809590959B01AC01BD018D
:1018C000CF010895A29FB001B39FC001A39F700DE7
:1018D000811D1124911DB29F700D811D1124911D38
:1018E000089597FB072E16F4009407D077FD09D0D2
:1018F0000E948B0C07FC05D03EF4909581959F4F7C
:101900000895709561957F4F0895EE0FFF1F059024
:10191000F491E02D0994AA1BBB1B51E107C0AA1F3B
:10192000BB1FA617B70710F0A61BB70B881F991F80
:101930005A95A9F780959095BC01CD01089581E055
:0C19400090E0F8940C94A40CF894FFCFF5
:10194C001601010000000102010236020001300202
:10195C003302000000006A06CD0200000000CE0237
:10196C00C502000000007B01E4001201C801430124
:10197C0021013501000000004905CA0200000000E9
:10198C000C05CD02000000002406CD020000000072
:10199C002905CD02000000000805CD020D0A00004B
:00000001FF
