:100000000C9465000C948D000C948D000C948D0064
:100010000C948D000C948D000C948D000C948D002C
:100020000C948D000C948D000C948D000C948D001C
:100030000C948D000C948D000C948D000C948D000C
:100040000C9482060C948D000C948D000C948D0001
:100050000C948D000C948D000C948D000C948D00EC
:100060000C948D000C948D00E904F204FC04060548
:100070001D0527052F053C05130544054C055405B2
:100080005C0500000000230026002900000000009D
:10009000250028002B0000000000240027002A0073
:1000A000040404040404040402020202020203031E
:1000B0000303030301020408102040800102040826
:1000C0001020010204081020DF0611241FBECFEF0C
:1000D000D8E0DEBFCDBF11E0A0E0B1E0E2EEF3E199
:1000E00002C005900D92A835B107D9F724E0A8E524
:1000F000B1E001C01D92A638B207E1F710E0C5E6F5
:10010000D0E004C02197FE010E94D009C436D10777
:10011000C9F70E9496070C94EF090C940000EF9227
:10012000FF921F93CF93DF93182FEB017A018091F9
:10013000EE029091EF02DC01ED91FC910280F381DF
:10014000E02D09959091E102191317C08091E0020A
:10015000482F50E04F5F5F4FF701208130E042179A
:1001600053075CF48F5F8093E002FE01E80FF11DFE
:10017000E80FF11D8081918110C0943039F4109303
:10018000E1021092E0028881998107C084E08093A7
:10019000E1021092E0028AE691E09093EF028093F0
:1001A000EE02DF91CF911F91FF90EF9008953FB73E
:1001B000F89480915D0190915E01A0915F01B091F2
:1001C000600126B5A89B05C02F3F19F00196A11D1F
:1001D000B11D3FBFBA2FA92F982F8827820F911DDD
:1001E000A11DB11DBC01CD0142E0660F771F881F24
:1001F000991F4A95D1F708958F929F92AF92BF921F
:10020000CF92DF92EF92FF920E94D7004B015C01E8
:1002100084E6C82ED12CE12CF12C0E94D700DC0101
:10022000CB0188199909AA09BB09883E9340A10509
:10023000B10598F321E0C21AD108E108F10888EE6F
:10024000880E83E0981EA11CB11CC114D104E104E6
:10025000F10419F7FF90EF90DF90CF90BF90AF902F
:100260009F908F9008952FB7F894609159017091E5
:100270005A0180915B0190915C012FBF0895EF922C
:100280000F931F93F901DA013C912E2D2095322313
:100290003C9330813E293083FC01D80198E080E016
:1002A00030E020E04C914E2189F02A95D9F720E0EA
:1002B0004C914E2159F02A95D9F720E84C914E21C6
:1002C00029F02A95D9F73A9561F717C047E04A9582
:1002D000F1F7000031E0550F4C914E2109F05160CB
:1002E0009A9529F45193839598E0681731F020E8A6
:1002F0004C914E2111F72A95D9F71F910F91EF904C
:1003000008950F931F93F9012081202B2083DA0198
:100310002C91202B2C9320814081202B30E010E069
:100320000095109550E004231523DC015D9148E011
:100330000083550F40F474E07A95F1F720837AE05A
:100340007A95F1F705C07EE07A95F1F700002083F9
:100350004A9529F073E07A95F1F70000E9CF6A95A4
:1003600029F071E07A95F1F70000E0CF72E07A951C
:10037000F1F700000000008374E07A95F1F70000C7
:10038000000020831F910F9108957F928F929F927A
:10039000AF92BF92CF92DF92EF92FF920F931F9393
:1003A000CF93DF93DB01642F5901F02E282F30E02B
:1003B000F901EC54FF4FE490F901E056FF4F24910E
:1003C00030E0220F331FF901EA56FF4FC591D49157
:1003D000F901E457FF4FC590D490F901EE57FF4F54
:1003E000859094907FB6F8940E2D9601AE01CD01C4
:1003F0000E94810184019601AE016F2DC5010E940A
:100400003F017FBEDF91CF911F910F91FF90EF9041
:10041000DF90CF90BF90AF909F908F907F90089586
:100420003F924F925F926F927F928F929F92AF9284
:10043000BF92CF92DF92EF92FF920F931F93CF93D1
:10044000DF9300D01F92CDB7DEB73B014A012901EF
:1004500090E0FC01EC54FF4FF490FC01E056FF4F9C
:10046000849190E0880F991FFC01EA56FF4FC590D8
:10047000D490FC01E457FF4FA590B490FC01EE57D7
:10048000FF4F059114913FB6F89419821A821B828E
:10049000EF2C9501A60163E0CE0101960E943F0179
:1004A0008130B9F48981811109C00F2D9501A60110
:1004B00063E0C3010E94810181E02BC0813411F50A
:1004C0000F2D9501A6016AE0C4010E94810182E01E
:1004D00020C08330B9F489818034A1F48A818330CB
:1004E00089F40F2D9501A60168E0C2010E948101E7
:1004F0008B818370813041F0823041F0833041F450
:1005000086E007C080E005C084E003C085E001C04C
:1005100083E03FBE0F900F900F90DF91CF911F911E
:100520000F91FF90EF90DF90CF90BF90AF909F9092
:100530008F907F906F905F904F903F900895FC0157
:10054000E95BFF4F1082EA5FFE4FDC01AF5BBF4FFC
:100550008D919C919183808308952F923F924F9229
:100560005F926F927F928F929F92AF92BF92CF9243
:10057000DF92EF92FF920F931F93CF93DF93CDB74C
:10058000DEB7E1970FB6F894DEBF0FBECDBF8C018A
:10059000FB017C0127E4E20EF11CD7018C9198014C
:1005A0002F5B3F4F390181112DC085E1DE0111968E
:1005B00001900D928A95E1F7F801E45BFE4F1082FD
:1005C00085E1FE013196D801129601900D928A952F
:1005D000E1F785E1FE013196D801579601900D9221
:1005E0008A95E1F7D9011D921C920E943301F8010E
:1005F000ED5BFF4F608371838283938381E0F7011A
:10060000808386C185E1D8019C9601900D928A95E0
:10061000E1F788E0F801B496DE01569601900D925C
:100620008A95E1F7D8019696EC9096979796FC906C
:10063000979798962C9098979996BC9099979A9698
:10064000CC909A979B96DC9088E0F801F996DE01B1
:10065000119601900D928A95E1F7F801A3AC54AC84
:1006600045AC36ACA7ADE05CFF4FB0819E89898177
:1006700089278F7009F04CC02F898A812827822F03
:10068000807509F045C08A2F90E08C19910997FF79
:1006900003C09195819591090A97D4F525FD38C03D
:1006A0008B2F90E08D19910997FF03C0919581954B
:1006B00091090A976CF58A2D90E08E19910997FFA0
:1006C00003C09195819591090A9714F5852D90E0C5
:1006D0008F19910997FF03C09195819591090A9708
:1006E000BCF4842D90E08219910997FF03C0919585
:1006F000819591090A9764F4832D90E08B199109F3
:1007000097FF03C09195819591090A970CF4F4C065
:10071000B801685B7F4F4801F4EB8F1AFEEF9F0A28
:10072000F4012081293008F0E7C0822F90E0F30126
:1007300040815181FB013AE1239FE00DF11D11241D
:1007400051834083F8014AE1249FE00DF11D1124FB
:10075000E65BFF4F48E050E0108212821182415068
:100760005109339641155105B9F7F80144A1542FA9
:1007700051705BA341FB552750F95CA342FB552701
:1007800050F95DA343FB442740F94EA345A144FB28
:10079000552750F95FA346FB552750F958A7C9A61E
:1007A00045FB442740F94AA7DBA6ECA6FDA62EA6EA
:1007B000BFA631AD432F41704E8B31FB442740F92A
:1007C0004F8B32FB442740F9488F33FB332730F9F6
:1007D000398F32AD34FB442740F94A8F36FB44272A
:1007E00040F94B8FAC8F35FB332730F93D8FBE8FEF
:1007F000AF8E58A249A23AA23DE0E6E0F1E0DE0168
:10080000119601900D923A95E1F7FE013196AE01F5
:100810004A5E5F4F59AB48AB7E0153E2E50EF11CD7
:100820002E01A9E04A0E511C3AE1389F6001399F20
:10083000D00C11243191A8A9B9A94D91B9ABA8AB9D
:10084000D7013D907D01B32FBD7F50E0832D90E017
:10085000A5E0BA1731F0A7EFBA2EB30EB3E0BB157F
:1008600060F0DA01A81BB90BCD01B7FF03C0919569
:10087000819591090B973CF426C0DA01A81BB90BAE
:100880001A161B0604F5832F90E05C01AA0CBB1C12
:10089000A80EB91EAC0CBD1CA60EB71ED501129633
:1008A0003C9301965C01AA0CBB1C8A0D9B1D8C0D10
:1008B0009D1D5B01A80EB91E832D90E0841B950B36
:1008C000D5018D939C934E165F0609F0B3CF2F5F31
:1008D000F401208385E1F801BC96D8015796019078
:1008E0000D928A95E1F70E943301F801ED5BFF4F0D
:1008F00060837183828393830E943301F801ED5BEF
:10090000FF4F20813181621B730BD3016D937C9368
:10091000E1960FB6F894DEBF0FBECDBFDF91CF9149
:100920001F910F91FF90EF90DF90CF90BF90AF900D
:100930009F908F907F906F905F904F903F902F90FF
:100940000895FC01178A08950F931F93CF93DF93A7
:10095000EC01DB018F89811114C085E1FB01DE010F
:10096000129601900D928A95E1F7198E188E0E94C9
:1009700033016A8F7B8F8C8F9D8F1E8E81E08F8BD2
:10098000C5C08E8D2F8D38A1F901EC5FFE4F90818F
:10099000488D598DF901891708F0A7C09AE1899F00
:1009A000E00DF11D1124608171816417750708F055
:1009B000A3C09F0100E010E0F901428150E04D30FA
:1009C000510508F080C04C5C5F4F8381FA010C94A4
:1009D000D0091D969C911D97492F4170840F80FB73
:1009E00090F91DC01D969C911D9791FB442740F9DD
:1009F000840F80FB91F913C01D969C911D9792FB6B
:100A0000442740F9840F80FB92F909C01D969C9100
:100A10001D9793FB442740F9840F80FB93F91D96A3
:100A20009C931D9750C01E969C911E9794FB442743
:100A300040F9840F80FB94F91BC01E969C911E9771
:100A400096FB442740F9840F80FB96F911C053961A
:100A50009C915397890F53968C93539734C01E964D
:100A60009C911E9795FB442740F9840F80FB95F9D4
:100A70001E969C931E9727C054969C915497890F5D
:100A800054968C9354971FC01F969C911F97890F63
:100A90001F968C931F9717C050969C915097890F63
:100AA00050968C9350970FC051969C915197890FF7
:100AB00051968C93519707C052969C915297890FEB
:100AC00052968C9352970F5F1F4F2D5F3F4F083008
:100AD000110509F071CF8E8D8F5F8E8F0E943301CB
:100AE0006A8F7B8F8C8F9D8F07C0EB5FFE4F80815D
:100AF00091814817590748F40E9433012A8D3B8D94
:100B0000621B730B798F688F01C01F8ADF91CF91B1
:100B10001F910F910895FC011192119288E1DF015C
:100B20001D928A95E9F708950F931F93CF93DF9352
:100B3000EC01FC018BE291E08193919385E1DF016F
:100B4000982F1D929A95E9F7FE017796DF01982F6D
:100B50001D929A95E9F77596DF011D928A95E9F73E
:100B600077961082118212821382349610828E013F
:100B7000085B1F4FC8010E948B05C8014A960E945E
:100B80008B05C801C4960E948B05CE018A569F4FE3
:100B90000E948B05CE0180559F4F0E948B05CE0190
:100BA00086539F4F0E948B05CE018C519F4F0E9410
:100BB0008B05CE0182509F4F0E948B05CE01885E2F
:100BC0009E4F0E948B05CE018E5C9E4F0E948B052E
:100BD000C45BDE4F1882DF91CF911F910F91089572
:100BE00008950895FC01DB0182811D969C911D975B
:100BF000882311F09B7F01C094601D969C93928185
:100C000081E0892782830895FC018281811107C0D8
:100C10008AEEDB011F968C9382E0828308958230F6
:100C200029F480E2DB011F968C93128208950E94C2
:100C3000EA09EF92FF920F931F93CF93DF938C01FA
:100C4000EB01FC0192818E85992339F08F7B8E8791
:100C500080E28B8B8FE78F8721C080648E878AEE3E
:100C60008B8B0E9449097C01F1E0EF22FF2480FF79
:100C700008C00E9449096AEC70E00E94BC09805ECD
:100C800001C08AEE8F87EF2841F40E9449096AEC7F
:100C900070E00E94BC098F5D01C08AEE888BF8016C
:100CA000928181E089278283DF91CF911F910F91FB
:100CB000FF90EF9008950F931F93CF93DF93EB0175
:100CC0000E9449098C010170112780FF08C00E9411
:100CD00049096AEC70E00E94BC09805E01C08AEE9E
:100CE0008F87012B41F40E9449096AEC70E00E9451
:100CF000BC098F5D01C08AEE888BDF91CF911F9177
:100D00000F9108951F920F920FB60F9211242F93F7
:100D10003F938F939F93AF93BF938091590190918D
:100D20005A01A0915B01B0915C013091580123E020
:100D3000230F2D3720F40196A11DB11D05C026E813
:100D4000230F0296A11DB11D2093580180935901D4
:100D500090935A01A0935B01B0935C0180915D0177
:100D600090915E01A0915F01B09160010196A11D7B
:100D7000B11D80935D0190935E01A0935F01B093DC
:100D80006001BF91AF919F918F913F912F910F90F3
:100D90000FBE0F901F901895FC010FB6F89460914C
:100DA00082047091830480918404909185040FBE25
:100DB000309721F0608371838283938308955F92DB
:100DC0006F927F928F929F92AF92BF92CF92DF925B
:100DD000EF92FF920F931F93CF93DF938AE6682ED3
:100DE00081E0782E93E5892E91E0992ED3018D92A2
:100DF0009C92E7E6F1E02BE4A22E21E0B22EB18234
:100E0000A0821282E4E6F1E033E4C32E31E0D32E77
:100E1000D182C0821282E1E6F1E04BE3E42E41E0B0
:100E2000F42EF182E08212828CE691E00E94940519
:100E3000CBEBD2E003E311E01983088355E1552E93
:100E4000EDEBF2E0DF01852D1D928A95E9F71F8A0F
:100E5000198E188E1E8E84EB91E098A38F8F90923E
:100E6000810480928004EDE7F4E0B182A0821282D6
:100E7000EAE7F4E0D182C0821282E7E7F4E0F1828F
:100E8000E082128288E293E00E949405E7E0F3E0BA
:100E90001183008389E093E0DC011D925A94E9F705
:100EA000178A118E108E168E80E793E090A3878F9D
:100EB00083E08093060384E08093F002ECEDF2E09F
:100EC0001082118212821382148285838091130111
:100ED00090911401A0911501B0911601868397831A
:100EE000A087B187D387C28780911701909118019D
:100EF000A0911901B0911A0184879587A687B787B9
:100F00008CE691E0918B808B738A628ADF91CF911E
:100F10001F910F91FF90EF90DF90CF90BF90AF9017
:100F20009F908F907F906F905F900895CF93DF9305
:100F3000CDB7DEB765970FB6F894DEBF0FBECDBF55
:100F4000789484B5826084BD84B5816084BD85B5A4
:100F5000826085BD85B5816085BD80916E008160B0
:100F600080936E0010928100809181008260809356
:100F70008100809181008160809381008091800058
:100F80008160809380008091B10084608093B10083
:100F90008091B00081608093B00080917A0084607D
:100FA00080937A0080917A00826080937A008091A9
:100FB0007A00816080937A0080917A0080688093C3
:100FC0007A001092C10080E090E00E94CC06CB0134
:100FD0000E944E09E1ECF0E02491EDEAF0E084910A
:100FE000882399F090E0880F991FFC01EA56FF4F83
:100FF000A591B491FC01E457FF4F859194918FB76F
:10100000F894EC91E22BEC938FBF80E0E82E80E027
:10101000F82E11E490E4D92E8091F1029091F20221
:10102000892BB9F09091F30293FB992790F9809165
:101030000603D98223E02A839B8308E02EEF32E067
:1010400043E0BE016F5F7F4F0E94C501883029F1E8
:101050000EC080910603198203E021EF32E041E0E7
:10106000BE016F5F7F4F0E94C501833039F010923F
:10107000F1021092F2021092F302BCC080910603BA
:1010800019830AE024EF32E041E0BE016F5F7F4F39
:101090000E94C5018A3031F2ADC08091FE0285FD0B
:1010A000E6CF85E1E1EFF2E0DE01119601900D92CD
:1010B0008A95E1F78F85982F917080FF03C09093F8
:1010C000DC020DC08091DC02882349F01092DC0222
:1010D00046E251E062EE72E080E00E948F008F8570
:1010E00083FB992790F983FF03C09093DD020DC025
:1010F0008091DD02882349F01092DD0245E251E043
:1011000066EE72E081E00E948F008F8581FB992757
:1011100090F981FF03C09093DE020DC08091DE0242
:10112000882349F01092DE0244E251E068EE72E05A
:1011300082E00E948F008F8582FB992790F982FFC1
:1011400003C09093DF020DC08091DF02882349F035
:101150001092DF0243E251E06CEE72E083E00E9405
:101160008F008091EE029091EF02DC01ED91FC91F5
:101170000190F081E02DBE016F5F7F4F09958E8554
:1011800085FD38C00FB7F8949E01225F3F4FAE0136
:101190004C5F5F4FBE016F5F7F4F8091F0020E94F6
:1011A0001002813069F49E01225F3F4FAE014C5F17
:1011B0005F4FBE016F5F7F4F8091F0020E9410026F
:1011C000823069F49E01225F3F4FAE014C5F5F4F5A
:1011D000BE016F5F7F4F8091F0020E9410020FBF2F
:1011E0008350833038F4E114F10409F415CF0E94E0
:1011F000000012CF0E94FC00F6CF8F929F92AF9218
:10120000BF92CF92DF92EF92FF92CF93DF93EC01E8
:10121000688179818A819B816115710581059105BC
:1012200021F464E279ED8BE597E02DE133EF41E0C5
:1012300050E00E94590949015A019B01AC01A7EAFB
:10124000B1E40E9478096B017C01ACEEB4EFA5011A
:1012500094010E948609DC01CB018C0D9D1DAE1D01
:10126000BF1DB7FF03C00197A109B04888839983C8
:10127000AA83BB839F77DF91CF91FF90EF90DF90A0
:10128000CF90BF90AF909F908F9008950E94FD08DF
:10129000089582E091E00E94FD080895A0E0B0E08A
:1012A0008093020190930301A0930401B093050180
:1012B0000895052E97FB1EF400940E94700957FDB7
:1012C00007D00E948B0907FC03D04EF40C947009E0
:1012D00050954095309521953F4F4F4F5F4F089562
:1012E00090958095709561957F4F8F4F9F4F089592
:1012F0000E94AD09A59F900DB49F900DA49F800DF5
:10130000911D11240895B7FF0C9478090E94780963
:10131000821B930B0895A1E21A2EAA1BBB1BFD0191
:101320000DC0AA1FBB1FEE1FFF1FA217B307E407C4
:10133000F50720F0A21BB30BE40BF50B661F771F1C
:10134000881F991F1A9469F76095709580959095FC
:101350009B01AC01BD01CF010895A29FB001B39FD5
:10136000C001A39F700D811D1124911DB29F700DAE
:10137000811D1124911D089597FB072E16F40094EA
:1013800007D077FD09D00E94D60907FC05D03EF4AE
:10139000909581959F4F0895709561957F4F089521
:1013A000EE0FFF1F0590F491E02D0994AA1BBB1BC3
:1013B00051E107C0AA1FBB1FA617B70710F0A61B55
:1013C000B70B881F991F5A95A9F780959095BC0176
:1013D000CD01089581E090E0F8940C94EF09F89421
:0213E000FFCF3D
:1013E2001F010100000000010203080405060709AD
:1013F2000A0B0C6701000161016401000000005B3F
:1014020006F0050102010200000000AD029F020089
:10141200000000A404A10400000000F205F0050091
:101422000000001906F005000000000406F00500A7
:08143200000000F105F00500C7
:00000001FF
