:100000000C9458000C9480000C9480000C94800098
:100010000C9480000C9480000C9480000C94800060
:100020000C9480000C9480000C9480000C94800050
:100030000C9480000C9480000C9480000C94800040
:100040000C94C4070C9480000C9480000C948000E5
:100050000C9480000C9480000C9480000C94800020
:100060000C9480000C948000000000002300260007
:10007000290000000000250028002B0000000000DF
:10008000240027002A0004040404040404040202D7
:100090000202020203030303030301020408102007
:1000A0004080010204081020010204081020AC095D
:1000B00011241FBECFEFD8E0DEBFCDBF11E0A0E01E
:1000C000B1E0E8EDFCE102C005900D92A839B1075E
:1000D000D9F728E0A8E9B1E001C01D92A23DB2071E
:1000E000E1F710E0C8E5D0E004C02197FE010E94CE
:1000F0005F0EC735D107C9F70E9421080C946A0E1C
:100100000C940000EF920F931F93F901DA013C91D8
:100110002E2D209532233C9330813E293083FC01E3
:10012000D80198E080E030E020E04C914E2189F049
:100130002A95D9F720E04C914E2159F02A95D9F70C
:1001400020E84C914E2129F02A95D9F73A9561F78C
:1001500017C047E04A95F1F7000031E0550F4C9188
:100160004E2109F051609A9529F45193839598E0B6
:10017000681731F020E84C914E2111F72A95D9F7F4
:100180001F910F91EF9008950F931F93F901208114
:10019000202B2083DA012C91202B2C93208140816D
:1001A000202B30E010E00095109550E0042315233B
:1001B000DC015D9148E00083550F40F474E07A95CE
:1001C000F1F720837AE07A95F1F705C07EE07A9521
:1001D000F1F7000020834A9529F073E07A95F1F752
:1001E0000000E9CF6A9529F071E07A95F1F70000F7
:1001F000E0CF72E07A95F1F700000000008374E030
:100200007A95F1F70000000020831F910F91089567
:100210007F928F929F92AF92BF92CF92DF92EF9296
:10022000FF920F931F93CF93DF93DB01642F59014C
:10023000F02E282F30E0F901E656FF4FE490F90147
:10024000EA57FF4F249130E0220F331FF901E458A1
:10025000FF4FC591D491F901EE58FF4FC590D4904E
:10026000F901E859FF4F859094907FB6F8940E2DD0
:100270009601AE01CD010E94C40084019601AE0139
:100280006F2DC5010E9482007FBEDF91CF911F912B
:100290000F91FF90EF90DF90CF90BF90AF909F9025
:1002A0008F907F9008953F924F925F926F927F92CE
:1002B0008F929F92AF92BF92CF92DF92EF92FF9276
:1002C0000F931F93CF93DF9300D01F92CDB7DEB76C
:1002D0003B014A01290190E0FC01E656FF4FF490F2
:1002E000FC01EA57FF4F849190E0880F991FFC01B1
:1002F000E458FF4FC590D490FC01EE58FF4FA590F5
:10030000B490FC01E859FF4F059114913FB6F89461
:1003100019821A821B82EF2C9501A60163E0CE019F
:1003200001960E9482008130B9F48981811109C04F
:100330000F2D9501A60163E0C3010E94C40081E076
:100340002BC0813411F50F2D9501A6016AE0C4017F
:100350000E94C40082E020C08330B9F489818034D7
:10036000A1F48A81833089F40F2D9501A60168E0FC
:10037000C2010E94C4008B818370813041F08230C1
:1003800041F0833041F486E007C080E005C084E09E
:1003900003C085E001C083E03FBE0F900F900F9037
:1003A000DF91CF911F910F91FF90EF90DF90CF9051
:1003B000BF90AF909F908F907F906F905F904F9085
:1003C0003F900895FB012081DC011E968C91222331
:1003D00021F083FD02C0108205C083FB882780F9CD
:1003E000808320E0822F0895FB012081DC011E968E
:1003F0008C91222321F082FD02C0108205C082FB75
:10040000882780F9808320E0822F0895DC01FB019A
:1004100080811E969C911E97882349F090FD07C00D
:1004200010821E968C9186FB882780F90895917022
:10043000908380E00895FB012081DC011E968C9161
:10044000222321F081FD02C0108204C086958170B4
:10045000808320E0822F0895FB012081DC011E961D
:100460008C91222321F080FD02C0108203C0817094
:10047000808320E0822F0895FC01CB01BF016A5FD9
:100480007F4F0190F081E02D0994FC01108E0895BA
:10049000FC011382089508950895FC0192819A3019
:1004A00020F49F5F928381E00895128280E0089596
:1004B000CF93DF93FB01DC0113962C91139722233A
:1004C00019F0213069F01AC02AEE238B26852064AA
:1004D0002687228123FF12C021E0FC0123830EC066
:1004E000EC018FE787878AEE808B85858160858721
:1004F000CD010E944D02811101C01B82DF91CF917D
:100500000895CF93DF93FB01DC0113962C91139791
:10051000222319F0213069F017C02AEE238B26859B
:1005200020642687228123FF0FC021E0FC01238362
:100530000BC0EC018FE787878AEE808BCD010E948C
:100540004D02811101C01B82DF91CF910895CF939D
:10055000DF93FB01DC0113962C911397222319F0F2
:10056000213069F017C02AEE238B26852064268768
:10057000228123FF0FC021E0FC0123830BC0EC018B
:100580008585846081608587CD010E944D0281113F
:1005900001C01B82DF91CF910895CF93DF93FB01C0
:1005A000DC0113962C911397222319F0213069F066
:1005B00016C02AEE238B268520642687228123FFFE
:1005C0000EC021E0FC0123830AC0EC018685806116
:1005D0008687CD010E944D02811101C01B82DF91EF
:1005E000CF910895CF93DF93EC01FB018B8188239A
:1005F00019F0813061F014C085858B7F8587CE012D
:100600000E944D0281110CC081E08B8309C0858559
:1006100084608587CE010E944D02811101C01B823A
:10062000DF91CF910895CF93DF93EC01FB018B8194
:10063000882319F0813071F018C086858F7B8687FA
:1006400080E2838BCE010E944D0281110EC081E0B9
:100650008B830BC08685806486878AEE838BCE0170
:100660000E944D02811101C01B82DF91CF9108953C
:10067000FC0113820895CF93DF93EC01FB018B8182
:10068000813049F0823089F081111AC087858C83CE
:1006900080898D8313C08FE78787808BCE010E946E
:1006A0004D0281110DC082E00AC08C8187878D8147
:1006B000808BCE010E944D02811102C081E08B83AC
:1006C000DF91CF910895FC01DB018381882319F02C
:1006D000813059F008951F968C911F97848350960E
:1006E0008C91858381E08383089584811F968C9308
:1006F0001F97858150968C930895CF93DF93EC01DB
:10070000FB018C819D818130910599F082309105AA
:1007100021F0892B11F580E201C08AEE8787CE0196
:100720000E944D02811119C081E090E09D838C836D
:1007300014C08FE78787CE010E944D0281110DC042
:100740009B81992329F022E030E03D832C8302C075
:100750001D821C8281E089278B83DF91CF910895D0
:10076000CF93DF93EC018B819C81009769F0019717
:10077000B9F48AEEFB018787CE010E944D028111F8
:100780000FC01C821B820CC080E2FB018787CE0158
:100790000E944D02811104C081E090E09C838B8314
:1007A000DF91CF9108950E94650ECF93DF93EC0106
:1007B0001E8E0E94B807EF8DF8A1E659F94F2A8DD9
:1007C0003B8D621B730B71836083DF91CF91089522
:1007D000AF92BF92CF92DF92EF92FF920F931F934F
:1007E000CF93DF93CDB7DEB760970FB6F894DEBF37
:1007F0000FBECDBF8C017B01DC015E968C915E97B4
:10080000811129C05F96ED91FC919097E759F94FBE
:1008100010825F960D90BC91A02D85E1FB010190A7
:100820000D928A95E1F785E1FB01D80113960190BD
:100830000D928A95E1F7F801118E108E0E94B8078B
:10084000D8015A966D937D938D939C935D9781E02B
:100850005E968C931DC188E0F8017096DE011996B2
:1008600001900D928A95E1F7F801C2883389948945
:10087000D588B688778988E0F7013D96DE01119624
:1008800001900D928A95E1F72985898182278F70E1
:1008900009F05BC0D7011F966C911F9750964C9141
:1008A000509751962C91519752968C9152975396FE
:1008B000AC91F701A488FA855A815F27F52FF0756E
:1008C00009F043C0B0E0AB19B109B7FF03C0B1955F
:1008D000A195B1091597CCF555FD37C0EA2DF0E08B
:1008E000E71BF109F7FF03C0F195E195F109359791
:1008F00064F570E06C19710977FF03C0719561951B
:100900007109653071050CF550E0431B510957FF23
:1009100003C051954195510945305105B4F430E07B
:10092000291B310937FF03C0319521953109253045
:1009300031055CF490E08D19910997FF03C0919502
:100940008195910905970CF4A3C00E94B807D801BE
:100950005A962D913C915B97621B730B59967C9331
:100960006E9358975F96ED91FC919097AF01475920
:10097000594FDA019C91943B08F08AC0B9E09B9FE3
:10098000E00DF11D1124768B658BD80150962C91CA
:10099000D7011D968C912827878920FB80F9878BAA
:1009A000D80150963C91D7011D962C91232726956E
:1009B000217020FB81F9878BD80150963C91D7019B
:1009C0001D962C91232722FB222720F920FB82F958
:1009D000878BD80150963C91D7011D962C912327E7
:1009E00023FB222720F920FB83F9878BD80151961E
:1009F0003C91D7011E962C9123272295217020FB34
:100A000086F9878BD80151963C91D7011E962C917F
:100A1000232726FB222720F920FB84F9878BD80186
:100A200051963C91D7011E962C911E97232725FBAA
:100A3000222720F920FB85F9878B53968C915397B9
:100A4000808F54968C915497818F1F968C911F970D
:100A5000828F50968C915097838F51968C9151979D
:100A6000848F52968C91858F9F5FFA01908385E1E8
:100A7000F701D801139601900D928A95E1F70E9433
:100A8000B807D8015A966D937D938D939C935D978B
:100A900060960FB6F894DEBF0FBECDBFDF91CF9149
:100AA0001F910F91FF90EF90DF90CF90BF90AF908C
:100AB0000895EF92FF920F931F93CF93DF93CDB7DB
:100AC000DEB765970FB6F894DEBF0FBECDBF8C01C1
:100AD0007B010E94B807D8015B962D913C915C97F1
:100AE000621B730B5A967C936E93599758968C9110
:100AF00058979096ED91FC919197811123C085E1D3
:100B0000DE01119601900D928A95E1F785E1FE01D3
:100B10003196D801139601900D928A95E1F7F8016C
:100B2000128E118E0E94B807D8015B966D937D934B
:100B30008D939C935E975F961C925F9781E0589689
:100B40008C9329C1D8015F964C91DF01A759B94F09
:100B50008C91481708F0F5C0242F30E0DF0189E0C0
:100B6000489FA00DB11D1124CD01459655960D90BD
:100B7000BC91A02DA617B70708F0EAC0DC011296B9
:100B80008C91D80150969C9180FF03C090959170F4
:100B900001C09170D80150968C91509790FB80F9CC
:100BA00050968C9399E0929FD001939FB00D1124A1
:100BB000AE0FBF1F57969C9191FF05C0869581701F
:100BC00091E0982703C081FB992790F9D8015096AE
:100BD0008C91509790FB81F950968C9399E0929F5D
:100BE000D001939FB00D1124AE0FBF1F57969C915B
:100BF00092FF06C082FB882780F991E0982703C006
:100C000082FB992790F9D80150968C91509790FBD0
:100C100082F950968C9399E0929FD001939FB00DEA
:100C20001124AE0FBF1F57969C9183FB882780F934
:100C300093FF02C091E08927D80150969C9150976C
:100C400080FB93F950969C9389E0829FD001839F0B
:100C5000B00D1124AE0FBF1F57968C91D80151963D
:100C60009C919295917086FF02C081E09827D801EF
:100C700051968C91519790FB84F951968C9399E001
:100C8000929FD001939FB00D1124AE0FBF1F5796B6
:100C90009C9194FF06C086FB882780F991E09827F5
:100CA00003C086FB992790F9D80151968C915197F2
:100CB00090FB86F951968C9399E0929FD001939F77
:100CC000B00D1124AE0FBF1F57969C9185FB88274E
:100CD00080F995FF02C091E08927D80151969C9137
:100CE000519780FB95F951969C93519759E0529FEB
:100CF000C001539F900D1124E80FF91F808D569667
:100D00008C935697818D57968C935797828D5296D8
:100D10008C935297838D53968C935397848D5496CE
:100D20008C935497858D55968C9355974F5F5F960E
:100D30004C930E94B807F801638F748F858F968F4C
:100D400007C0E659F94F808191816817790700F54E
:100D5000D7011E969C911E9793FB442740F991FB67
:100D6000332730F992FB222720F985E1F8013396E9
:100D700001900D928A95E1F7F701868590FB80F945
:100D800040FB83F930FB81F920FB82F9868703C0A1
:100D9000D80158961C9265960FB6F894DEBF0FBE28
:100DA000CDBFDF91CF911F910F91FF90EF900895EC
:100DB000DF92EF92FF920F931F93CF93DF937C010B
:100DC000EB010E94C40DD82E0E94C40D8C0101704D
:100DD0001127D0FC0FC0012B11F080E201C08AEE78
:100DE000F70180830E94C40D6AEC70E00E94370E08
:100DF0008F5D0EC00E94C40D6AEC70E00E94370E39
:100E00008F5DF7018083012B11F080E201C08AEE33
:100E10008883DF91CF911F910F91FF90EF90DF902A
:100E20000895CF93DF93EC01FB018B81882319F0A8
:100E3000813061F01CC08FE78787808BCE010E94D4
:100E40004D02811114C081E08B8311C08C81878792
:100E50008D81808BCE010E944D02811108C0BE01A0
:100E60006B5F7F4FCE0104960E94D8061B82DF91F4
:100E7000CF910895CF93DF93EC018B81FB0187879E
:100E80008C81808BCE010E944D02811109C0BE0170
:100E90006C5F7F4FCE010396DF91CF910C94D80603
:100EA000DF91CF910895FC011192119287E0DF014B
:100EB0001D928A95E9F708953FB7F8948091DF0174
:100EC0009091E001A091E101B091E20126B5A89BCB
:100ED00005C02F3F19F00196A11DB11D3FBFBA2FCC
:100EE000A92F982F8827820F911DA11DB11DBC012C
:100EF000CD0142E0660F771F881F991F4A95D1F7F1
:100F000008958F929F92AF92BF92CF92DF92EF920D
:100F1000FF920E945C074B015C0184E6C82ED12C35
:100F2000E12CF12C0E945C07DC01CB0188199909A6
:100F3000AA09BB09883E9340A105B10598F321E0B9
:100F4000C21AD108E108F10888EE880E83E0981EE5
:100F5000A11CB11CC114D104E104F10419F7FF90E4
:100F6000EF90DF90CF90BF90AF909F908F900895BB
:100F70002FB7F8946091DB017091DC018091DD0165
:100F80009091DE012FBF08951F920F920FB60F921E
:100F900011242F933F938F939F93AF93BF9380918F
:100FA000DB019091DC01A091DD01B091DE01309177
:100FB000DA0123E0230F2D3720F40196A11DB11D86
:100FC00005C026E8230F0296A11DB11D2093DA016A
:100FD0008093DB019093DC01A093DD01B093DE01EF
:100FE0008091DF019091E001A091E101B091E201D7
:100FF0000196A11DB11D8093DF019093E001A093A4
:10100000E101B093E201BF91AF919F918F913F9128
:101010002F910F900FBE0F901F901895FC010FB6E7
:10102000F8946091CE087091CF088091D00890918B
:10103000D1080FBE309721F0608371838283938340
:101040000895CF93DF93CDB7DEB765970FB6F894C9
:10105000DEBF0FBECDBF789484B5826084BD84B5F9
:10106000816084BD85B5826085BD85B5816085BDA3
:1010700080916E00816080936E001092810080915B
:1010800081008260809381008091810081608093E3
:101090008100809180008160809380008091B10008
:1010A00084608093B1008091B00081608093B00033
:1010B00080917A00846080937A0080917A008260C7
:1010C00080937A0080917A00816080937A00809189
:1010D0007A00806880937A001092C10080E090E0EE
:1010E0000E940E08CB010E94C90DE7EAF0E02491AE
:1010F000E3E9F0E08491882399F090E0880F991F4C
:10110000FC01E458FF4FA591B491FC01EE58FF4F4C
:10111000859194918FB7F894EC91E22BEC938FBF6B
:1011200010E480E0E82E80E0F82E91E4B92E27ED5F
:10113000C22E21E0D22E8091C1019091C201892B53
:10114000B9F09091C30193FB992790F98091D60152
:10115000198323E02A839B8308E02EEC31E043E0EF
:10116000BE016F5F7F4F0E940801883029F10EC0D9
:101170008091D601198203E021EC31E041E0BE010B
:101180006F5F7F4F0E940801833039F01092C101D8
:101190001092C2011092C301DCC08091D601B982C5
:1011A0000AE024EC31E041E0BE016F5F7F4F0E9416
:1011B00008018A3031F2CDC08091CE0185FDE6CFA5
:1011C00085E1E1ECF1E0DE01119601900D928A9546
:1011D000E1F7BE016F5F7F4F89E991E00E943C0219
:1011E000882331F089E991E09093BD018093BC019F
:1011F000BE016F5F7F4F80EA91E00E943C0288232E
:1012000031F080EA91E09093BD018093BC01BE0172
:101210006F5F7F4F87EA91E00E943C02882331F0A4
:1012200087EA91E09093BD018093BC01BE016F5F9E
:101230007F4F8EEA91E00E943C02882331F08EEAD3
:1012400091E09093BD018093BC01BE016F5F7F4F21
:1012500085EB91E00E943C02882331F085EB91E020
:101260009093BD018093BC01A091BC01B091BD01E0
:1012700014968C91149715969C9115978917B0F434
:1012800012962C91129713969C911397E22FF92F97
:10129000E80FF11DE80FF11D208131818F5F149659
:1012A0008C933093BF012093BE0106C014961C920C
:1012B000D092BF01C092BE018091BE019091BF014A
:1012C000DC01ED91FC910190F081E02DBE016F5F9A
:1012D0007F4F09958F85847F8B7F8F878E8585FDD6
:1012E00038C00FB7F8949E01225F3F4FAE014C5FAC
:1012F0005F4FBE016F5F7F4F8091C0010E9453011D
:10130000813069F49E01225F3F4FAE014C5F5F4F19
:10131000BE016F5F7F4F8091C0010E9453018230F8
:1013200069F49E01225F3F4FAE014C5F5F4FBE01EB
:101330006F5F7F4F8091C0010E9453010FBF8350A8
:10134000833038F4E114F10409F4F5CE0E94000072
:10135000F2CE0E948107F6CFCF93DF9383E0809394
:10136000D60184E08093C001E8E9F1E010822CE22C
:1013700032E03283218320E131E0348323831582FC
:1013800096E0968317822BE132E0318720872CE0AC
:1013900031E033872287148692E09587168626E00F
:1013A00032E0308B278724E031E0328B218B138AA7
:1013B000848B158A84EF91E0978B868B82E091E095
:1013C000918F808F128E91E0938F148E22EE31E0F8
:1013D000368F258F20E031E030A3278F11A292A312
:1013E00013A229E931E035A324A3A7EDB1E0B7A307
:1013F000A6A312961C92129724E931E02D933C93F8
:10140000E9ECF8E012822CE831E03183208321E01E
:1014100030E034832383E4ECF8E0128224E831E006
:10142000318320838FE783838483EEEBF8E012829D
:101430002CE731E031832083138284838583E8EBBA
:10144000F8E0128224E731E031832083938322E0A5
:1014500030E035832483E2EBF8E012822CE631E0C1
:1014600031832083138284838583ECEAF8E012823F
:1014700024E631E031832083138284838583E8EA84
:10148000F8E012828CE591E0918380831382E2EA96
:10149000F8E0128284E591E09183808313828AEEE2
:1014A000848385838BE492E00E94530784E592E075
:1014B0000E9453078DE592E00E94530786E692E072
:1014C0000E9453078FE692E00E94530788E792E05C
:1014D0000E94530781E892E00E9453078AE892E055
:1014E0000E94530783E992E00E9453078CE992E03F
:1014F0000E94530785EA92E00E9453078EEA92E029
:101500000E94530787EB92E00E94530780EC92E021
:101510000E94530789EC92E00E94530782ED92E00B
:101520000E9453078BED92E00E94530784EE92E0F5
:101530000E9453078DEE92E00E94530786EF92E0DF
:101540000E9453078FEF92E00E94530788E093E0D8
:101550000E94530781E193E00E9453078AE193E0E0
:101560000E94530783E293E00E9453078CE293E0CA
:101570000E94530785E393E00E9453078EE393E0B4
:101580000E94530787E493E00E94530780E593E0AD
:101590000E94530789E593E00E94530782E693E097
:1015A0000E9453078BE693E00E94530784E793E081
:1015B0000E9453078DE793E00E94530786E893E06B
:1015C0000E9453078FE893E00E94530788E993E055
:1015D0000E94530781EA93E00E9453078AEA93E04E
:1015E0000E94530783EB93E00E9453078CEB93E038
:1015F0000E94530785EC93E00E9453078EEC93E022
:101600000E94530787ED93E00E94530780EE93E01A
:101610000E94530789EE93E00E94530782EF93E004
:101620000E9453078BEF93E00E94530784E094E0FD
:101630000E9453078DE094E00E94530786E194E0F6
:101640000E9453078FE194E00E94530788E294E0E0
:101650000E94530781E394E00E9453078AE394E0D9
:101660000E94530783E494E00E9453078CE494E0C3
:101670000E94530785E594E00E9453078EE594E0AD
:101680000E94530787E694E00E94530780E794E0A6
:101690000E94530789E794E00E94530782E894E090
:1016A0000E9453078BE894E00E94530784E994E07A
:1016B0000E9453078DE994E00E94530786EA94E064
:1016C0000E9453078FEA94E00E94530788EB94E04E
:1016D0000E94530781EC94E00E9453078AEC94E047
:1016E0000E94530783ED94E00E9453078CED94E031
:1016F0000E94530785EE94E00E9453078EEE94E01B
:101700000E94530787EF94E00E94530780E095E022
:101710000E94530789E095E00E94530782E195E01B
:101720000E9453078BE195E00E94530784E295E005
:101730000E9453078DE295E00E94530786E395E0EF
:101740000E9453078FE395E00E94530788E495E0D9
:101750000E94530781E595E00E9453078AE595E0D2
:101760000E94530783E695E00E9453078CE695E0BC
:101770000E94530785E795E00E9453078EE795E0A6
:101780000E94530787E895E00E94530780E995E09F
:101790000E94530789E995E00E94530782EA95E089
:1017A0000E9453078BEA95E00E94530784EB95E073
:1017B0000E9453078DEB95E00E94530786EC95E05D
:1017C0000E9453078FEC95E00E94530788ED95E047
:1017D0000E94530781EE95E00E9453078AEE95E040
:1017E0000E94530783EF95E00E9453078CEF95E02A
:1017F0000E94530785E096E00E9453078EE096E032
:101800000E94530787E196E00E94530780E296E02A
:101810000E94530789E296E00E94530782E396E014
:101820000E9453078BE396E00E94530784E496E0FE
:101830000E9453078DE496E00E94530786E596E0E8
:101840000E9453078FE596E00E94530788E696E0D2
:101850000E94530781E796E00E9453078AE796E0CB
:101860000E94530783E896E00E9453078CE896E0B5
:101870000E94530785E996E00E9453078EE996E09F
:101880000E94530787EA96E00E94530780EB96E098
:101890000E94530789EB96E00E94530782EC96E082
:1018A0000E9453078BEC96E00E94530784ED96E06C
:1018B0000E9453078DED96E00E94530786EE96E056
:1018C0000E9453078FEE96E00E94530788EF96E040
:1018D0000E94530781E097E00E9453078AE097E057
:1018E0000E94530783E197E00E9453078CE197E041
:1018F0000E94530785E297E00E9453078EE297E02B
:101900000E94530787E397E00E94530780E497E023
:101910000E94530789E497E00E94530782E597E00D
:101920000E9453078BE597E00E94530784E697E0F7
:101930000E9453078DE697E00E94530786E797E0E1
:101940000E9453078FE797E00E94530788E897E0CB
:101950000E94530781E997E00E9453078AE997E0C4
:101960000E94530783EA97E00E9453078CEA97E0AE
:101970000E94530785EB97E00E9453078EEB97E098
:101980000E94530787EC97E00E94530780ED97E091
:101990000E94530789ED97E00E94530782EE97E07B
:1019A0000E9453078BEE97E00E94530784EF97E065
:1019B0000E9453078DEF97E00E94530786E098E05E
:1019C0000E9453078FE098E00E94530788E198E057
:1019D0000E94530781E298E00E9453078AE298E050
:1019E0000E94530783E398E00E9453078CE398E03A
:1019F0000E94530785E498E00E9453078EE498E024
:101A00000E94530787E598E00E94530780E698E01C
:101A10000E94530789E698E00E94530782E798E006
:101A20000E9453078BE798E00E94530784E898E0F0
:101A30000E9453078DE898E00E94530786E998E0DA
:101A40000E94530786E392E010929F08E5E1F2E0DE
:101A500012822CE431E03183208325E1A8E1B2E059
:101A6000ED01322F19923A95E9F7118E108E128EF0
:101A7000138E148E158E168E90A3878FE3EFF1E0F0
:101A8000128244E451E051834083A6EFB1E0ED01BE
:101A900019922A95E9F7108E128E118E138E148EDC
:101AA000158E168E178E91A380A3EFEEF1E01282B1
:101AB0008CE391E0918380831382EBEEF1E012825C
:101AC00084E391E0918380831382E7EEF1E0128258
:101AD0008CE291E0918380831382E3EEF1E0128245
:101AE00084E291E0918380831382DF91CF91089506
:101AF0008F929F92AF92BF92CF92DF92EF92FF921E
:101B0000CF93DF93EC01688179818A819B81611594
:101B100071058105910521F464E279ED8BE597E08B
:101B20002DE133EF41E050E00E94D40D49015A010C
:101B30009B01AC01A7EAB1E40E94F30D6B017C01AB
:101B4000ACEEB4EFA50194010E94010EDC01CB01C3
:101B50008C0D9D1DAE1DBF1DB7FF03C00197A109D0
:101B6000B04888839983AA83BB839F77DF91CF9105
:101B7000FF90EF90DF90CF90BF90AF909F908F90AD
:101B800008950E94780D08958CE191E00E94780DEF
:101B90000895A0E0B0E080931C0190931D01A093F4
:101BA0001E01B0931F010895052E97FB1EF40094AB
:101BB0000E94EB0D57FD07D00E94060E07FC03D0D4
:101BC0004EF40C94EB0D50954095309521953F4F78
:101BD0004F4F5F4F089590958095709561957F4F19
:101BE0008F4F9F4F08950E94280EA59F900DB49F80
:101BF000900DA49F800D911D11240895B7FF0C94A2
:101C0000F30D0E94F30D821B930B0895A1E21A2E8F
:101C1000AA1BBB1BFD010DC0AA1FBB1FEE1FFF1F90
:101C2000A217B307E407F50720F0A21BB30BE40BE0
:101C3000F50B661F771F881F991F1A9469F7609527
:101C40007095809590959B01AC01BD01CF010895E1
:101C5000A29FB001B39FC001A39F700D811D1124ED
:101C6000911DB29F700D811D1124911D089597FB48
:101C7000072E16F4009407D077FD09D00E944B0E72
:101C800007FC05D03EF4909581959F4F089570957F
:101C900061957F4F0895AA1BBB1B51E107C0AA1F86
:101CA000BB1FA617B70710F0A61BB70B881F991FFD
:101CB0005A95A9F780959095BC01CD010895EE0F36
:101CC000FF1F0590F491E02D099481E090E0F894D5
:081CD0000C946A0EF894FFCF9A
:101CD800F3011502EF01EB01E701E301A808A208EF
:101CE800C908C408BE08B808B208AC08010000005A
:101CF80000000000CD02480200000000A7024802D0
:101D0800000000008102480200000000580248025A
:101D1800000000005905450200000000E803D50353
:101D28000000000013034B0200000000F2024B0207
:101D3800000000003B0338030000000011074B02BD
:101D4800000000007D034B0200000000630338031D
:101D5800000000003A074B0200000000B0034B02ED
:081D6800000000004C024B02D8
:00000001FF
