:100000000C9458000C9480000C9480000C94800098
:100010000C9480000C9480000C9480000C94800060
:100020000C9480000C9480000C9480000C94800050
:100030000C9480000C9480000C9480000C94800040
:100040000C947C060C9480000C9480000C9480002E
:100050000C9480000C9480000C9480000C94800020
:100060000C9480000C948000000000002300260007
:10007000290000000000250028002B0000000000DF
:10008000240027002A0004040404040404040202D7
:100090000202020203030303030301020408102007
:1000A00040800102040810200102040810202E08DC
:1000B00011241FBECFEFD8E0DEBFCDBF11E0A0E01E
:1000C000B1E0E4E7F9E102C005900D92A434B10774
:1000D000D9F728E0A4E4B1E001C01D92AC39B20721
:1000E000E1F710E0C8E5D0E004C02197FE010E94CE
:1000F000AD0CC735D107C9F70E94D9060C94B80CCE
:100100000C940000EF920F931F93F901DA013C91D8
:100110002E2D209532233C9330813E293083FC01E3
:10012000D80198E080E030E020E04C914E2189F049
:100130002A95D9F720E04C914E2159F02A95D9F70C
:1001400020E84C914E2129F02A95D9F73A9561F78C
:1001500017C047E04A95F1F7000031E0550F4C9188
:100160004E2109F051609A9529F45193839598E0B6
:10017000681731F020E84C914E2111F72A95D9F7F4
:100180001F910F91EF9008950F931F93F901208114
:10019000202B2083DA012C91202B2C93208140816D
:1001A000202B30E010E00095109550E0042315233B
:1001B000DC015D9148E00083550F40F474E07A95CE
:1001C000F1F720837AE07A95F1F705C07EE07A9521
:1001D000F1F7000020834A9529F073E07A95F1F752
:1001E0000000E9CF6A9529F071E07A95F1F70000F7
:1001F000E0CF72E07A95F1F700000000008374E030
:100200007A95F1F70000000020831F910F91089567
:100210007F928F929F92AF92BF92CF92DF92EF9296
:10022000FF920F931F93CF93DF93DB01642F59014C
:10023000F02E282F30E0F901E656FF4FE490F90147
:10024000EA57FF4F249130E0220F331FF901E458A1
:10025000FF4FC591D491F901EE58FF4FC590D4904E
:10026000F901E859FF4F859094907FB6F8940E2DD0
:100270009601AE01CD010E94C40084019601AE0139
:100280006F2DC5010E9482007FBEDF91CF911F912B
:100290000F91FF90EF90DF90CF90BF90AF909F9025
:1002A0008F907F9008953F924F925F926F927F92CE
:1002B0008F929F92AF92BF92CF92DF92EF92FF9276
:1002C0000F931F93CF93DF9300D01F92CDB7DEB76C
:1002D0003B014A01290190E0FC01E656FF4FF490F2
:1002E000FC01EA57FF4F849190E0880F991FFC01B1
:1002F000E458FF4FC590D490FC01EE58FF4FA590F5
:10030000B490FC01E859FF4F059114913FB6F89461
:1003100019821A821B82EF2C9501A60163E0CE019F
:1003200001960E9482008130B9F48981811109C04F
:100330000F2D9501A60163E0C3010E94C40081E076
:100340002BC0813411F50F2D9501A6016AE0C4017F
:100350000E94C40082E020C08330B9F489818034D7
:10036000A1F48A81833089F40F2D9501A60168E0FC
:10037000C2010E94C4008B818370813041F08230C1
:1003800041F0833041F486E007C080E005C084E09E
:1003900003C085E001C083E03FBE0F900F900F9037
:1003A000DF91CF911F910F91FF90EF90DF90CF9051
:1003B000BF90AF909F908F907F906F905F904F9085
:1003C0003F900895FC01108E089508950895FC0152
:1003D00092819E3120F49F5F928381E00895128282
:1003E00080E00895CF93DF93EC01FB018B8188239C
:1003F00019F0813061F014C085858B7F8587CE012F
:100400000E94E70181110CC081E08B8309C08585C2
:1004100084608587CE010E94E701811101C01B82A3
:10042000DF91CF910895CF93DF93EC018B819C8175
:10043000009769F00197B9F48AEEFB018787CE0136
:100440000E94E70181110FC01C821B820CC080E258
:10045000FB018787CE010E94E701811104C081E082
:1004600090E09C838B83DF91CF9108950E94B30C21
:10047000CF93DF93EC011E8E0E947006EF8DF8A1E2
:10048000EC53F94F2A8D3B8D621B730B7183608394
:10049000DF91CF910895AF92BF92CF92DF92EF920A
:1004A000FF920F931F93CF93DF93CDB7DEB7609783
:1004B0000FB6F894DEBF0FBECDBF8C017B01DC010F
:1004C0005E968C915E97811129C05F96ED91FC91AB
:1004D0009097ED53F94F10825F960D90BC91A02D2F
:1004E00085E1FB0101900D928A95E1F785E1FB0121
:1004F000D801139601900D928A95E1F7F801118EBB
:10050000108E0E947006D8015A966D937D938D933C
:100510009C935D9781E05E968C931DC188E0F80105
:100520007096DE01199601900D928A95E1F7F80117
:10053000C28833899489D588B688778988E0F7019D
:100540003D96DE01119601900D928A95E1F729857D
:10055000898182278F7009F05BC0D7011F966C914B
:100560001F9750964C91509751962C9151975296B7
:100570008C9152975396AC91F701A488FA855A81D1
:100580005F27F52FF07509F043C0B0E0AB19B10952
:10059000B7FF03C0B195A195B1091A97CCF555FDE8
:1005A00037C0EA2DF0E0E71BF109F7FF03C0F19532
:1005B000E195F1093A9764F570E06C19710977FFDC
:1005C00003C07195619571096A3071050CF550E0B1
:1005D000431B510957FF03C05195419551094A30BA
:1005E0005105B4F430E0291B310937FF03C03195C0
:1005F000219531092A3031055CF490E08D1991097B
:1006000097FF03C09195819591090A970CF4A3C0B7
:100610000E947006D8015A962D913C915B97621BFF
:10062000730B59967C936E9358975F96ED91FC915E
:100630009097AF014D53594FDA019C919E3B08F0C2
:100640008AC0B9E09B9FE00DF11D1124768B658B6C
:10065000D80150962C91D7011D968C912827878917
:1006600020FB80F9878BD80150963C91D7011D96CD
:100670002C9123272695217020FB81F9878BD801A7
:1006800050963C91D7011D962C91232722FB2227BF
:1006900020F920FB82F9878BD80150963C91D70135
:1006A0001D962C91232723FB222720F920FB83F979
:1006B000878BD80151963C91D7011E962C91232708
:1006C0002295217020FB86F9878BD80151963C91A9
:1006D000D7011E962C91232726FB222720F920FBE9
:1006E00084F9878BD80151963C91D7011E962C91A5
:1006F0001E97232725FB222720F920FB85F9878BCE
:1007000053968C915397808F54968C915497818FE8
:100710001F968C911F97828F50968C915097838F44
:1007200051968C915197848F52968C91858F9F5FB3
:10073000FA01908385E1F701D801139601900D929B
:100740008A95E1F70E947006D8015A966D937D93C1
:100750008D939C935D9760960FB6F894DEBF0FBEA5
:10076000CDBFDF91CF911F910F91FF90EF90DF9060
:10077000CF90BF90AF900895EF92FF920F931F9389
:10078000CF93DF93CDB7DEB765970FB6F894DEBF92
:100790000FBECDBF8C017B010E947006D8015B9615
:1007A0002D913C915C97621B730B5A967C936E93D0
:1007B000599758968C9158979096ED91FC919197F6
:1007C000811123C085E1DE01119601900D928A9579
:1007D000E1F785E1FE013196D801139601900D9263
:1007E0008A95E1F7F801128E118E0E947006D801E9
:1007F0005B966D937D938D939C935E975F961C9211
:100800005F9781E058968C9329C1D8015F964C91EF
:10081000DF01AD53B94F8C91481708F0F5C0242F74
:1008200030E0DF0189E0489FA00DB11D1124CD010A
:10083000459655960D90BC91A02DA617B70708F0C8
:10084000EAC0DC0112968C91D80150969C9180FFF1
:1008500003C09095917001C09170D80150968C9111
:10086000509790FB80F950968C9399E0929FD0011D
:10087000939FB00D1124AE0FBF1F57969C9191FF0F
:1008800005C08695817091E0982703C081FB992768
:1008900090F9D80150968C91509790FB81F9509621
:1008A0008C9399E0929FD001939FB00D1124AE0FCD
:1008B000BF1F57969C9192FF06C082FB882780F944
:1008C00091E0982703C082FB992790F9D8015096B0
:1008D0008C91509790FB82F950968C9399E0929F5F
:1008E000D001939FB00D1124AE0FBF1F57969C915E
:1008F00083FB882780F993FF02C091E08927D80104
:1009000050969C91509780FB93F950969C9389E068
:10091000829FD001839FB00D1124AE0FBF1F579649
:100920008C91D80151969C919295917086FF02C04E
:1009300081E09827D80151968C91519790FB84F9CA
:1009400051968C9399E0929FD001939FB00D112402
:10095000AE0FBF1F57969C9194FF06C086FB882759
:1009600080F991E0982703C086FB992790F9D80178
:1009700051968C91519790FB86F951968C9399E002
:10098000929FD001939FB00D1124AE0FBF1F5796B9
:100990009C9185FB882780F995FF02C091E089270B
:1009A000D80151969C91519780FB95F951969C9353
:1009B000519759E0529FC001539F900D1124E80FA9
:1009C000F91F808D56968C935697818D57968C93F0
:1009D0005797828D52968C935297838D53968C9312
:1009E0005397848D54968C935497858D55968C93FC
:1009F00055974F5F5F964C930E947006F801638F86
:100A0000748F858F968F07C0EC53F94F8081918149
:100A10006817790700F5D7011E969C911E9793FBE6
:100A2000442740F991FB332730F992FB222720F924
:100A300085E1F801339601900D928A95E1F7F7016F
:100A4000868590FB80F940FB83F930FB81F920FB20
:100A500082F9868703C0D80158961C9265960FB616
:100A6000F894DEBF0FBECDBFDF91CF911F910F91E4
:100A7000FF90EF900895FF920F931F93CF93DF9312
:100A8000EC01FB018B81882319F0813089F045C08E
:100A900086858F7B868780E2838B8FE78787808B35
:100AA000CE010E94E701811138C081E08B8335C0FF
:100AB0008685806486878AEE838B8C8187878D818B
:100AC000808BCE010E94E701811127C00E94120C89
:100AD000F82E0E94120C8C0101701127F0FC0EC040
:100AE000012B11F080E201C08AEE8C830E94120C6F
:100AF0006AEC70E00E94850C8F5D0DC00E94120CA4
:100B00006AEC70E00E94850C8F5D8C83012B11F0E4
:100B100080E201C08AEE8D831B82DF91CF911F910D
:100B20000F91FF900895FF920F931F93CF93DF9340
:100B3000EC018B81FB0187878C81808BCE010E9429
:100B4000E701811126C00E94120CF82E0E94120C9F
:100B50008C0101701127F0FC0EC0012B11F080E216
:100B600001C08AEE8B830E94120C6AEC70E00E9436
:100B7000850C8F5D0DC00E94120C6AEC70E00E9423
:100B8000850C8F5D8B83012B11F080E201C08AEE12
:100B90008C83DF91CF911F910F91FF9008953FB704
:100BA000F8948091740190917501A0917601B091B3
:100BB000770126B5A89B05C02F3F19F00196A11D0E
:100BC000B11D3FBFBA2FA92F982F8827820F911DE3
:100BD000A11DB11DBC01CD0142E0660F771F881F2A
:100BE000991F4A95D1F708950F931F93CF93DF93E1
:100BF000082FEB01142F8091560190915701DC01D1
:100C0000ED91FC910280F381E02D099590914901CD
:100C1000091316C080914801282F30E02F5F3F4F05
:100C2000412F50E0241735075CF48F5F8093480113
:100C3000FE01E80FF11DE80FF11D8081918110C0C8
:100C4000943039F4009349011092480188819981C8
:100C500007C084E0809349011092480185E998E03B
:100C60009093570180935601DF91CF911F910F917F
:100C700008958F929F92AF92BF92CF92DF92EF92A0
:100C8000FF920E94CF054B015C0184E6C82ED12C57
:100C9000E12CF12C0E94CF05DC01CB0188199909C8
:100CA000AA09BB09883E9340A105B10598F321E04C
:100CB000C21AD108E108F10888EE880E83E0981E78
:100CC000A11CB11CC114D104E104F10419F7FF9077
:100CD000EF90DF90CF90BF90AF909F908F9008954E
:100CE0002FB7F89460917001709171018091720139
:100CF000909173012FBF08951F920F920FB60F921C
:100D000011242F933F938F939F93AF93BF93809121
:100D1000700190917101A0917201B09173013091B5
:100D20006F0123E0230F2D3720F40196A11DB11D83
:100D300005C026E8230F0296A11DB11D20936F0167
:100D40008093700190937101A0937201B09373012D
:100D50008091740190917501A0917601B091770115
:100D60000196A11DB11D8093740190937501A0930C
:100D70007601B0937701BF91AF919F918F913F9191
:100D80002F910F900FBE0F901F901895FC010FB67A
:100D9000F894609198087091990880919A089091C0
:100DA0009B080FBE309721F0608371838283938309
:100DB0000895CF93DF93CDB7DEB765970FB6F8945C
:100DC000DEBF0FBECDBF789484B5826084BD84B58C
:100DD000816084BD85B5826085BD85B5816085BD36
:100DE00080916E00816080936E00109281008091EE
:100DF0008100826080938100809181008160809376
:100E00008100809180008160809380008091B1009A
:100E100084608093B1008091B00081608093B000C5
:100E200080917A00846080937A0080917A00826059
:100E300080937A0080917A00816080937A0080911B
:100E40007A00806880937A001092C10080E090E080
:100E50000E94C606CB010E94170CE7EAF0E024913D
:100E6000E3E9F0E08491882399F090E0880F991FDE
:100E7000FC01E458FF4FA591B491FC01EE58FF4FDF
:100E8000859194918FB7F894EC91E22BEC938FBFFE
:100E900080E0E82E80E0F82E11E490E4D92E8091D5
:100EA000590190915A01892BB9F090915B0193FB04
:100EB000992790F980916E01D98223E02A839B8340
:100EC00008E026E631E043E0BE016F5F7F4F0E94FD
:100ED0000801883029F10EC080916E01198203E06B
:100EE00029E531E041E0BE016F5F7F4F0E940801BC
:100EF000833039F01092590110925A0110925B011F
:100F0000A1C080916E0119830AE02CE531E041E037
:100F1000BE016F5F7F4F0E9408018A3031F292C09C
:100F20008091660185FDE6CF85E1E9E5F1E0DE012E
:100F3000119601900D928A95E1F78F8580FD04C08E
:100F400080914401811162C08F8583FD04C080912E
:100F50004501811162C08F8581FD04C080914601E9
:100F6000811162C08F8582FD04C08091470181118B
:100F700062C08091560190915701DC01ED91FC9186
:100F80000190F081E02DBE016F5F7F4F09958F8545
:100F9000847F8B7F8F878E8585FD54C00FB7F89433
:100FA0009E01225F3F4FAE014C5F5F4FBE016F5FFE
:100FB0007F4F809158010E945301813069F49E0156
:100FC000225F3F4FAE014C5F5F4FBE016F5F7F4FAF
:100FD000809158010E945301823069F49E01225F82
:100FE0003F4FAE014C5F5F4FBE016F5F7F4F8091FF
:100FF00058010E9453010FBF8350833018F5E1144C
:10100000F10409F44CCF0E94000049CF42E06AE4A9
:1010100071E080E00E94F40597CF41E06EE471E05A
:1010200081E00E94F40597CF42E060E571E082E044
:101030000E94F40597CF41E064E571E083E00E94EF
:10104000F40597CF0E943906DACFFC011192119274
:1010500087E0DF011D928A95E9F708950F931F93AA
:10106000CF93DF9383E080936E0184E080935801F7
:10107000E4E4F1E0108211821282138214828583EB
:101080008091040190910501A0910601B0910701A2
:1010900086839783A087B187C8E7D1E0D387C287CB
:1010A0008091080190910901A0910A01B0910B0172
:1010B00084879587A687B7870AE911E0118B008B93
:1010C000A5E9B8E0B38BA28B12961C92129780E42C
:1010D00091E08D939C93E0E9F8E0128288E391E03F
:1010E0009183808381E090E094838383EBE8F8E050
:1010F000128280E391E0918380838FE783838483EE
:10110000E7E8F8E0128288E291E09183808313821D
:10111000E1E8F8E0128280E291E09183808313821B
:101120008AEE8483858380ED91E00E94250889ED15
:1011300091E00E94250882EE91E00E9425088BEE46
:1011400091E00E94250884EF91E00E9425088DEF30
:1011500091E00E94250886E092E00E9425088FE039
:1011600092E00E94250888E192E00E94250881E231
:1011700092E00E9425088AE292E00E94250883E31B
:1011800092E00E9425088CE392E00E94250885E405
:1011900092E00E9425088EE492E00E94250887E5EF
:1011A00092E00E94250880E692E00E94250889E6E8
:1011B00092E00E94250882E792E00E9425088BE7D2
:1011C00092E00E94250884E892E00E9425088DE8BC
:1011D00092E00E94250886E992E00E9425088FE9A6
:1011E00092E00E94250888EA92E00E94250881EB9F
:1011F00092E00E9425088AEB92E00E94250883EC89
:1012000092E00E9425088CEC92E00E94250885ED72
:1012100092E00E9425088EED92E00E94250887EE5C
:1012200092E00E94250880EF92E00E94250889EF55
:1012300092E00E94250882E093E00E9425088BE05E
:1012400093E00E94250884E193E00E9425088DE147
:1012500093E00E94250886E293E00E9425088FE231
:1012600093E00E94250888E393E00E94250881E42A
:1012700093E00E9425088AE493E00E94250883E514
:1012800093E00E9425088CE593E00E94250885E6FE
:1012900093E00E9425088EE693E00E94250887E7E8
:1012A00093E00E94250880E893E00E94250889E8E1
:1012B00093E00E94250882E993E00E9425088BE9CB
:1012C00093E00E94250884EA93E00E9425088DEAB5
:1012D00093E00E94250886EB93E00E9425088FEB9F
:1012E00093E00E94250888EC93E00E94250881ED98
:1012F00093E00E9425088AED93E00E94250883EE82
:1013000093E00E9425088CEE93E00E94250885EF6B
:1013100093E00E9425088EEF93E00E94250887E065
:1013200094E00E94250880E194E00E94250889E16C
:1013300094E00E94250882E294E00E9425088BE256
:1013400094E00E94250884E394E00E9425088DE340
:1013500094E00E94250886E494E00E9425088FE42A
:1013600094E00E94250888E594E00E94250881E623
:1013700094E00E9425088AE694E00E94250883E70D
:1013800094E00E9425088CE794E00E94250885E8F7
:1013900094E00E9425088EE894E00E94250887E9E1
:1013A00094E00E94250880EA94E00E94250889EADA
:1013B00094E00E94250882EB94E00E9425088BEBC4
:1013C00094E00E94250884EC94E00E9425088DECAE
:1013D00094E00E94250886ED94E00E9425088FED98
:1013E00094E00E94250888EE94E00E94250881EF91
:1013F00094E00E9425088AEF94E00E94250883E08B
:1014000095E00E9425088CE095E00E94250885E182
:1014100095E00E9425088EE195E00E94250887E26C
:1014200095E00E94250880E395E00E94250889E365
:1014300095E00E94250882E495E00E9425088BE44F
:1014400095E00E94250884E595E00E9425088DE539
:1014500095E00E94250886E695E00E9425088FE623
:1014600095E00E94250888E795E00E94250881E81C
:1014700095E00E9425088AE895E00E94250883E906
:1014800095E00E9425088CE995E00E94250885EAF0
:1014900095E00E9425088EEA95E00E94250887EBDA
:1014A00095E00E94250880EC95E00E94250889ECD3
:1014B00095E00E94250882ED95E00E9425088BEDBD
:1014C00095E00E94250884EE95E00E9425088DEEA7
:1014D00095E00E94250886EF95E00E9425088FEF91
:1014E00095E00E94250888E096E00E94250881E1A9
:1014F00096E00E9425088AE196E00E94250883E292
:1015000096E00E9425088CE296E00E94250885E37B
:1015100096E00E9425088EE396E00E94250887E465
:1015200096E00E94250880E596E00E94250889E55E
:1015300096E00E94250882E696E00E9425088BE648
:1015400096E00E94250884E796E00E9425088DE732
:1015500096E00E94250886E896E00E9425088FE81C
:1015600096E00E94250888E996E00E94250881EA15
:1015700096E00E9425088AEA96E00E94250883EBFF
:1015800096E00E9425088CEB96E00E94250885ECE9
:1015900096E00E9425088EEC96E00E94250887EDD3
:1015A00096E00E94250880EE96E00E94250889EECC
:1015B00096E00E94250882EF96E00E9425088BEFB6
:1015C00096E00E94250884E097E00E9425088DE0BF
:1015D00097E00E94250886E197E00E9425088FE1A8
:1015E00097E00E94250888E297E00E94250881E3A1
:1015F00097E00E9425088AE397E00E94250883E48B
:1016000097E00E9425088CE497E00E94250885E574
:1016100097E00E9425088EE597E00E94250887E65E
:1016200097E00E94250880E797E00E94250889E757
:1016300097E00E94250882E897E00E9425088BE841
:1016400097E00E94250884E997E00E9425088DE92B
:1016500097E00E94250886EA97E00E9425088FEA15
:1016600097E00E94250888EB97E00E94250881EC0E
:1016700097E00E9425088AEC97E00E94250883EDF8
:1016800097E00E9425088CED97E00E94250885EEE2
:1016900097E00E9425088EEE97E00E94250887EFCC
:1016A00097E00E94250880E098E00E94250889E0E4
:1016B00098E00E94250882E198E00E9425088BE1CD
:1016C00098E00E94250884E298E00E9425088DE2B7
:1016D00098E00E94250886E398E00E9425088FE3A1
:1016E00098E00E94250888E498E00E94250881E59A
:1016F00098E00E9425088AE598E00E94250883E684
:1017000098E00E9425088CE698E00E94250885E76D
:1017100098E00E9425088BEB91E010927E08D8019A
:1017200012961C92129728E131E02D933C9325E10B
:10173000EDE9F1E0DF01322F1D923A95E9F7D8018A
:1017400059961C921E925897F801128E138E148E81
:10175000158E168E90A3878F1A8240E151E059832F
:101760004883EBE7F1E0DF011D922A95E9F7188E37
:101770001A8E198E1B8E1C8E1D8E1E8E1F8E99A387
:1017800088A3DF91CF911F910F9108958F929F921F
:10179000AF92BF92CF92DF92EF92FF92CF93DF93FF
:1017A000EC01688179818A819B81611571058105D0
:1017B000910521F464E279ED8BE597E02DE133EFBB
:1017C00041E050E00E94220C49015A019B01AC010A
:1017D000A7EAB1E40E94410C6B017C01ACEEB4EFCE
:1017E000A50194010E944F0CDC01CB018C0D9D1DC5
:1017F000AE1DBF1DB7FF03C00197A109B048888384
:101800009983AA83BB839F77DF91CF91FF90EF905D
:10181000DF90CF90BF90AF909F908F9008950E94DF
:10182000C60B089580E091E00E94C60B0895A0E0E9
:10183000B0E08093000190930101A0930201B09366
:1018400003010895052E97FB1EF400940E94390CA5
:1018500057FD07D00E94540C07FC03D04EF40C94A3
:10186000390C50954095309521953F4F4F4F5F4F24
:10187000089590958095709561957F4F8F4F9F4FFC
:1018800008950E94760CA59F900DB49F900DA49F83
:10189000800D911D11240895B7FF0C94410C0E94F6
:1018A000410C821B930B0895A1E21A2EAA1BBB1BAD
:1018B000FD010DC0AA1FBB1FEE1FFF1FA217B3071C
:1018C000E407F50720F0A21BB30BE40BF50B661F32
:1018D000771F881F991F1A9469F7609570958095F6
:1018E00090959B01AC01BD01CF010895A29FB0016D
:1018F000B39FC001A39F700D811D1124911DB29F44
:10190000700D811D1124911D089597FB072E16F46B
:10191000009407D077FD09D00E94990C07FC05D0F0
:101920003EF4909581959F4F0895709561957F4FF6
:101930000895AA1BBB1B51E107C0AA1FBB1FA61716
:10194000B70710F0A61BB70B881F991F5A95A9F768
:1019500080959095BC01CD010895EE0FFF1F059075
:10196000F491E02D099481E090E0F8940C94B80C87
:04197000F894FFCF19
:101974000100000090088B0887088108000000001F
:10198400BC03E201000000004B023802000000002A
:101994003B05E50100000000F201E5010000000044
:1019A4009305E501000000001302E50100000000BA
:0419B400E601E50162
:00000001FF
